{
	"compilerInput": "{\"language\":\"Solidity\",\"sources\":{\"PredictiveMaintenance.sol\":{\"content\":\"// SPDX-License-Identifier: MIT\\r\\npragma solidity ^0.8.0;\\r\\n\\r\\ncontract PredictiveMaintenance {\\r\\n    struct MaintenanceLog {\\r\\n        uint id;\\r\\n        string ipfsHash;\\r\\n        string dataHash;\\r\\n        bool maintenanceNeeded;\\r\\n        uint timestamp;\\r\\n    }\\r\\n\\r\\n    MaintenanceLog[] public logs;\\r\\n    uint public logCount;\\r\\n\\r\\n    event MaintenanceLogged(uint id, string ipfsHash, string dataHash, bool maintenanceNeeded, uint timestamp);\\r\\n\\r\\n    function logMaintenance(string memory _ipfsHash, string memory _dataHash, bool _maintenanceNeeded) public {\\r\\n        logCount++;\\r\\n        logs.push(MaintenanceLog(logCount, _ipfsHash, _dataHash, _maintenanceNeeded, block.timestamp));\\r\\n        emit MaintenanceLogged(logCount, _ipfsHash, _dataHash, _maintenanceNeeded, block.timestamp);\\r\\n    }\\r\\n\\r\\n    function getMaintenanceLog(uint _id) public view returns (MaintenanceLog memory) {\\r\\n        require(_id > 0 && _id <= logCount, \\\"Log does not exist\\\");\\r\\n        return logs[_id - 1];\\r\\n    }\\r\\n}\\r\\n\"}},\"settings\":{\"optimizer\":{\"enabled\":false,\"runs\":200},\"outputSelection\":{\"*\":{\"\":[\"ast\"],\"*\":[\"abi\",\"metadata\",\"devdoc\",\"userdoc\",\"storageLayout\",\"evm.legacyAssembly\",\"evm.bytecode\",\"evm.deployedBytecode\",\"evm.methodIdentifiers\",\"evm.gasEstimates\",\"evm.assembly\"]}},\"remappings\":[]}}",
	"name": "PredictiveMaintenance",
	"bytecode": {
		"linkReferences": {},
		"object": "608060405234801561001057600080fd5b50610c5c806100206000396000f3fe608060405234801561001057600080fd5b506004361061004c5760003560e01c8063a503898f14610051578063c9be7b551461006f578063df49749d1461009f578063e79899bd146100bb575b600080fd5b6100596100ef565b6040516100669190610949565b60405180910390f35b61008960048036038101906100849190610773565b6100f5565b6040516100969190610927565b60405180910390f35b6100b960048036038101906100b491906106f4565b610307565b005b6100d560048036038101906100d09190610773565b61042b565b6040516100e6959493929190610964565b60405180910390f35b60015481565b6100fd61058e565b60008211801561010f57506001548211155b61014e576040517f08c379a000000000000000000000000000000000000000000000000000000000815260040161014590610907565b60405180910390fd5b600060018361015d9190610a53565b81548110610194577f4e487b7100000000000000000000000000000000000000000000000000000000600052603260045260246000fd5b90600052602060002090600502016040518060a0016040529081600082015481526020016001820180546101c790610adf565b80601f01602080910402602001604051908101604052809291908181526020018280546101f390610adf565b80156102405780601f1061021557610100808354040283529160200191610240565b820191906000526020600020905b81548152906001019060200180831161022357829003601f168201915b5050505050815260200160028201805461025990610adf565b80601f016020809104026020016040519081016040528092919081815260200182805461028590610adf565b80156102d25780601f106102a7576101008083540402835291602001916102d2565b820191906000526020600020905b8154815290600101906020018083116102b557829003601f168201915b505050505081526020016003820160009054906101000a900460ff161515151581526020016004820154815250509050919050565b6001600081548092919061031a90610b11565b919050555060006040518060a001604052806001548152602001858152602001848152602001831515815260200142815250908060018154018082558091505060019003906000526020600020906005020160009091909190915060008201518160000155602082015181600101908051906020019061039b9291906105bf565b5060408201518160020190805190602001906103b89291906105bf565b5060608201518160030160006101000a81548160ff0219169083151502179055506080820151816004015550507f327e4ec254c296aefbe2b3d08c11fbd7cec20859baf4291dbc4dcf979a77cd286001548484844260405161041e959493929190610964565b60405180910390a1505050565b6000818154811061043b57600080fd5b906000526020600020906005020160009150905080600001549080600101805461046490610adf565b80601f016020809104026020016040519081016040528092919081815260200182805461049090610adf565b80156104dd5780601f106104b2576101008083540402835291602001916104dd565b820191906000526020600020905b8154815290600101906020018083116104c057829003601f168201915b5050505050908060020180546104f290610adf565b80601f016020809104026020016040519081016040528092919081815260200182805461051e90610adf565b801561056b5780601f106105405761010080835404028352916020019161056b565b820191906000526020600020905b81548152906001019060200180831161054e57829003601f168201915b5050505050908060030160009054906101000a900460ff16908060040154905085565b6040518060a00160405280600081526020016060815260200160608152602001600015158152602001600081525090565b8280546105cb90610adf565b90600052602060002090601f0160209004810192826105ed5760008555610634565b82601f1061060657805160ff1916838001178555610634565b82800160010185558215610634579182015b82811115610633578251825591602001919060010190610618565b5b5090506106419190610645565b5090565b5b8082111561065e576000816000905550600101610646565b5090565b6000610675610670846109f6565b6109c5565b90508281526020810184848401111561068d57600080fd5b610698848285610a9d565b509392505050565b6000813590506106af81610bf8565b92915050565b600082601f8301126106c657600080fd5b81356106d6848260208601610662565b91505092915050565b6000813590506106ee81610c0f565b92915050565b60008060006060848603121561070957600080fd5b600084013567ffffffffffffffff81111561072357600080fd5b61072f868287016106b5565b935050602084013567ffffffffffffffff81111561074c57600080fd5b610758868287016106b5565b9250506040610769868287016106a0565b9150509250925092565b60006020828403121561078557600080fd5b6000610793848285016106df565b91505092915050565b6107a581610a87565b82525050565b6107b481610a87565b82525050565b60006107c582610a26565b6107cf8185610a31565b93506107df818560208601610aac565b6107e881610be7565b840191505092915050565b60006107fe82610a26565b6108088185610a42565b9350610818818560208601610aac565b61082181610be7565b840191505092915050565b6000610839601283610a42565b91507f4c6f6720646f6573206e6f7420657869737400000000000000000000000000006000830152602082019050919050565b600060a08301600083015161088460008601826108e9565b506020830151848203602086015261089c82826107ba565b915050604083015184820360408601526108b682826107ba565b91505060608301516108cb606086018261079c565b5060808301516108de60808601826108e9565b508091505092915050565b6108f281610a93565b82525050565b61090181610a93565b82525050565b600060208201905081810360008301526109208161082c565b9050919050565b60006020820190508181036000830152610941818461086c565b905092915050565b600060208201905061095e60008301846108f8565b92915050565b600060a08201905061097960008301886108f8565b818103602083015261098b81876107f3565b9050818103604083015261099f81866107f3565b90506109ae60608301856107ab565b6109bb60808301846108f8565b9695505050505050565b6000604051905081810181811067ffffffffffffffff821117156109ec576109eb610bb8565b5b8060405250919050565b600067ffffffffffffffff821115610a1157610a10610bb8565b5b601f19601f8301169050602081019050919050565b600081519050919050565b600082825260208201905092915050565b600082825260208201905092915050565b6000610a5e82610a93565b9150610a6983610a93565b925082821015610a7c57610a7b610b5a565b5b828203905092915050565b60008115159050919050565b6000819050919050565b82818337600083830152505050565b60005b83811015610aca578082015181840152602081019050610aaf565b83811115610ad9576000848401525b50505050565b60006002820490506001821680610af757607f821691505b60208210811415610b0b57610b0a610b89565b5b50919050565b6000610b1c82610a93565b91507fffffffffffffffffffffffffffffffffffffffffffffffffffffffffffffffff821415610b4f57610b4e610b5a565b5b600182019050919050565b7f4e487b7100000000000000000000000000000000000000000000000000000000600052601160045260246000fd5b7f4e487b7100000000000000000000000000000000000000000000000000000000600052602260045260246000fd5b7f4e487b7100000000000000000000000000000000000000000000000000000000600052604160045260246000fd5b6000601f19601f8301169050919050565b610c0181610a87565b8114610c0c57600080fd5b50565b610c1881610a93565b8114610c2357600080fd5b5056fea26469706673582212207e25c92d27843f2470119fb91693fd57fe22ef3872c4e0f14e7eaf85eec9f26664736f6c63430008000033",
		"opcodes": "PUSH1 0x80 PUSH1 0x40 MSTORE CALLVALUE DUP1 ISZERO PUSH2 0x10 JUMPI PUSH1 0x0 DUP1 REVERT JUMPDEST POP PUSH2 0xC5C DUP1 PUSH2 0x20 PUSH1 0x0 CODECOPY PUSH1 0x0 RETURN INVALID PUSH1 0x80 PUSH1 0x40 MSTORE CALLVALUE DUP1 ISZERO PUSH2 0x10 JUMPI PUSH1 0x0 DUP1 REVERT JUMPDEST POP PUSH1 0x4 CALLDATASIZE LT PUSH2 0x4C JUMPI PUSH1 0x0 CALLDATALOAD PUSH1 0xE0 SHR DUP1 PUSH4 0xA503898F EQ PUSH2 0x51 JUMPI DUP1 PUSH4 0xC9BE7B55 EQ PUSH2 0x6F JUMPI DUP1 PUSH4 0xDF49749D EQ PUSH2 0x9F JUMPI DUP1 PUSH4 0xE79899BD EQ PUSH2 0xBB JUMPI JUMPDEST PUSH1 0x0 DUP1 REVERT JUMPDEST PUSH2 0x59 PUSH2 0xEF JUMP JUMPDEST PUSH1 0x40 MLOAD PUSH2 0x66 SWAP2 SWAP1 PUSH2 0x949 JUMP JUMPDEST PUSH1 0x40 MLOAD DUP1 SWAP2 SUB SWAP1 RETURN JUMPDEST PUSH2 0x89 PUSH1 0x4 DUP1 CALLDATASIZE SUB DUP2 ADD SWAP1 PUSH2 0x84 SWAP2 SWAP1 PUSH2 0x773 JUMP JUMPDEST PUSH2 0xF5 JUMP JUMPDEST PUSH1 0x40 MLOAD PUSH2 0x96 SWAP2 SWAP1 PUSH2 0x927 JUMP JUMPDEST PUSH1 0x40 MLOAD DUP1 SWAP2 SUB SWAP1 RETURN JUMPDEST PUSH2 0xB9 PUSH1 0x4 DUP1 CALLDATASIZE SUB DUP2 ADD SWAP1 PUSH2 0xB4 SWAP2 SWAP1 PUSH2 0x6F4 JUMP JUMPDEST PUSH2 0x307 JUMP JUMPDEST STOP JUMPDEST PUSH2 0xD5 PUSH1 0x4 DUP1 CALLDATASIZE SUB DUP2 ADD SWAP1 PUSH2 0xD0 SWAP2 SWAP1 PUSH2 0x773 JUMP JUMPDEST PUSH2 0x42B JUMP JUMPDEST PUSH1 0x40 MLOAD PUSH2 0xE6 SWAP6 SWAP5 SWAP4 SWAP3 SWAP2 SWAP1 PUSH2 0x964 JUMP JUMPDEST PUSH1 0x40 MLOAD DUP1 SWAP2 SUB SWAP1 RETURN JUMPDEST PUSH1 0x1 SLOAD DUP2 JUMP JUMPDEST PUSH2 0xFD PUSH2 0x58E JUMP JUMPDEST PUSH1 0x0 DUP3 GT DUP1 ISZERO PUSH2 0x10F JUMPI POP PUSH1 0x1 SLOAD DUP3 GT ISZERO JUMPDEST PUSH2 0x14E JUMPI PUSH1 0x40 MLOAD PUSH32 0x8C379A000000000000000000000000000000000000000000000000000000000 DUP2 MSTORE PUSH1 0x4 ADD PUSH2 0x145 SWAP1 PUSH2 0x907 JUMP JUMPDEST PUSH1 0x40 MLOAD DUP1 SWAP2 SUB SWAP1 REVERT JUMPDEST PUSH1 0x0 PUSH1 0x1 DUP4 PUSH2 0x15D SWAP2 SWAP1 PUSH2 0xA53 JUMP JUMPDEST DUP2 SLOAD DUP2 LT PUSH2 0x194 JUMPI PUSH32 0x4E487B7100000000000000000000000000000000000000000000000000000000 PUSH1 0x0 MSTORE PUSH1 0x32 PUSH1 0x4 MSTORE PUSH1 0x24 PUSH1 0x0 REVERT JUMPDEST SWAP1 PUSH1 0x0 MSTORE PUSH1 0x20 PUSH1 0x0 KECCAK256 SWAP1 PUSH1 0x5 MUL ADD PUSH1 0x40 MLOAD DUP1 PUSH1 0xA0 ADD PUSH1 0x40 MSTORE SWAP1 DUP2 PUSH1 0x0 DUP3 ADD SLOAD DUP2 MSTORE PUSH1 0x20 ADD PUSH1 0x1 DUP3 ADD DUP1 SLOAD PUSH2 0x1C7 SWAP1 PUSH2 0xADF JUMP JUMPDEST DUP1 PUSH1 0x1F ADD PUSH1 0x20 DUP1 SWAP2 DIV MUL PUSH1 0x20 ADD PUSH1 0x40 MLOAD SWAP1 DUP2 ADD PUSH1 0x40 MSTORE DUP1 SWAP3 SWAP2 SWAP1 DUP2 DUP2 MSTORE PUSH1 0x20 ADD DUP3 DUP1 SLOAD PUSH2 0x1F3 SWAP1 PUSH2 0xADF JUMP JUMPDEST DUP1 ISZERO PUSH2 0x240 JUMPI DUP1 PUSH1 0x1F LT PUSH2 0x215 JUMPI PUSH2 0x100 DUP1 DUP4 SLOAD DIV MUL DUP4 MSTORE SWAP2 PUSH1 0x20 ADD SWAP2 PUSH2 0x240 JUMP JUMPDEST DUP3 ADD SWAP2 SWAP1 PUSH1 0x0 MSTORE PUSH1 0x20 PUSH1 0x0 KECCAK256 SWAP1 JUMPDEST DUP2 SLOAD DUP2 MSTORE SWAP1 PUSH1 0x1 ADD SWAP1 PUSH1 0x20 ADD DUP1 DUP4 GT PUSH2 0x223 JUMPI DUP3 SWAP1 SUB PUSH1 0x1F AND DUP3 ADD SWAP2 JUMPDEST POP POP POP POP POP DUP2 MSTORE PUSH1 0x20 ADD PUSH1 0x2 DUP3 ADD DUP1 SLOAD PUSH2 0x259 SWAP1 PUSH2 0xADF JUMP JUMPDEST DUP1 PUSH1 0x1F ADD PUSH1 0x20 DUP1 SWAP2 DIV MUL PUSH1 0x20 ADD PUSH1 0x40 MLOAD SWAP1 DUP2 ADD PUSH1 0x40 MSTORE DUP1 SWAP3 SWAP2 SWAP1 DUP2 DUP2 MSTORE PUSH1 0x20 ADD DUP3 DUP1 SLOAD PUSH2 0x285 SWAP1 PUSH2 0xADF JUMP JUMPDEST DUP1 ISZERO PUSH2 0x2D2 JUMPI DUP1 PUSH1 0x1F LT PUSH2 0x2A7 JUMPI PUSH2 0x100 DUP1 DUP4 SLOAD DIV MUL DUP4 MSTORE SWAP2 PUSH1 0x20 ADD SWAP2 PUSH2 0x2D2 JUMP JUMPDEST DUP3 ADD SWAP2 SWAP1 PUSH1 0x0 MSTORE PUSH1 0x20 PUSH1 0x0 KECCAK256 SWAP1 JUMPDEST DUP2 SLOAD DUP2 MSTORE SWAP1 PUSH1 0x1 ADD SWAP1 PUSH1 0x20 ADD DUP1 DUP4 GT PUSH2 0x2B5 JUMPI DUP3 SWAP1 SUB PUSH1 0x1F AND DUP3 ADD SWAP2 JUMPDEST POP POP POP POP POP DUP2 MSTORE PUSH1 0x20 ADD PUSH1 0x3 DUP3 ADD PUSH1 0x0 SWAP1 SLOAD SWAP1 PUSH2 0x100 EXP SWAP1 DIV PUSH1 0xFF AND ISZERO ISZERO ISZERO ISZERO DUP2 MSTORE PUSH1 0x20 ADD PUSH1 0x4 DUP3 ADD SLOAD DUP2 MSTORE POP POP SWAP1 POP SWAP2 SWAP1 POP JUMP JUMPDEST PUSH1 0x1 PUSH1 0x0 DUP2 SLOAD DUP1 SWAP3 SWAP2 SWAP1 PUSH2 0x31A SWAP1 PUSH2 0xB11 JUMP JUMPDEST SWAP2 SWAP1 POP SSTORE POP PUSH1 0x0 PUSH1 0x40 MLOAD DUP1 PUSH1 0xA0 ADD PUSH1 0x40 MSTORE DUP1 PUSH1 0x1 SLOAD DUP2 MSTORE PUSH1 0x20 ADD DUP6 DUP2 MSTORE PUSH1 0x20 ADD DUP5 DUP2 MSTORE PUSH1 0x20 ADD DUP4 ISZERO ISZERO DUP2 MSTORE PUSH1 0x20 ADD TIMESTAMP DUP2 MSTORE POP SWAP1 DUP1 PUSH1 0x1 DUP2 SLOAD ADD DUP1 DUP3 SSTORE DUP1 SWAP2 POP POP PUSH1 0x1 SWAP1 SUB SWAP1 PUSH1 0x0 MSTORE PUSH1 0x20 PUSH1 0x0 KECCAK256 SWAP1 PUSH1 0x5 MUL ADD PUSH1 0x0 SWAP1 SWAP2 SWAP1 SWAP2 SWAP1 SWAP2 POP PUSH1 0x0 DUP3 ADD MLOAD DUP2 PUSH1 0x0 ADD SSTORE PUSH1 0x20 DUP3 ADD MLOAD DUP2 PUSH1 0x1 ADD SWAP1 DUP1 MLOAD SWAP1 PUSH1 0x20 ADD SWAP1 PUSH2 0x39B SWAP3 SWAP2 SWAP1 PUSH2 0x5BF JUMP JUMPDEST POP PUSH1 0x40 DUP3 ADD MLOAD DUP2 PUSH1 0x2 ADD SWAP1 DUP1 MLOAD SWAP1 PUSH1 0x20 ADD SWAP1 PUSH2 0x3B8 SWAP3 SWAP2 SWAP1 PUSH2 0x5BF JUMP JUMPDEST POP PUSH1 0x60 DUP3 ADD MLOAD DUP2 PUSH1 0x3 ADD PUSH1 0x0 PUSH2 0x100 EXP DUP2 SLOAD DUP2 PUSH1 0xFF MUL NOT AND SWAP1 DUP4 ISZERO ISZERO MUL OR SWAP1 SSTORE POP PUSH1 0x80 DUP3 ADD MLOAD DUP2 PUSH1 0x4 ADD SSTORE POP POP PUSH32 0x327E4EC254C296AEFBE2B3D08C11FBD7CEC20859BAF4291DBC4DCF979A77CD28 PUSH1 0x1 SLOAD DUP5 DUP5 DUP5 TIMESTAMP PUSH1 0x40 MLOAD PUSH2 0x41E SWAP6 SWAP5 SWAP4 SWAP3 SWAP2 SWAP1 PUSH2 0x964 JUMP JUMPDEST PUSH1 0x40 MLOAD DUP1 SWAP2 SUB SWAP1 LOG1 POP POP POP JUMP JUMPDEST PUSH1 0x0 DUP2 DUP2 SLOAD DUP2 LT PUSH2 0x43B JUMPI PUSH1 0x0 DUP1 REVERT JUMPDEST SWAP1 PUSH1 0x0 MSTORE PUSH1 0x20 PUSH1 0x0 KECCAK256 SWAP1 PUSH1 0x5 MUL ADD PUSH1 0x0 SWAP2 POP SWAP1 POP DUP1 PUSH1 0x0 ADD SLOAD SWAP1 DUP1 PUSH1 0x1 ADD DUP1 SLOAD PUSH2 0x464 SWAP1 PUSH2 0xADF JUMP JUMPDEST DUP1 PUSH1 0x1F ADD PUSH1 0x20 DUP1 SWAP2 DIV MUL PUSH1 0x20 ADD PUSH1 0x40 MLOAD SWAP1 DUP2 ADD PUSH1 0x40 MSTORE DUP1 SWAP3 SWAP2 SWAP1 DUP2 DUP2 MSTORE PUSH1 0x20 ADD DUP3 DUP1 SLOAD PUSH2 0x490 SWAP1 PUSH2 0xADF JUMP JUMPDEST DUP1 ISZERO PUSH2 0x4DD JUMPI DUP1 PUSH1 0x1F LT PUSH2 0x4B2 JUMPI PUSH2 0x100 DUP1 DUP4 SLOAD DIV MUL DUP4 MSTORE SWAP2 PUSH1 0x20 ADD SWAP2 PUSH2 0x4DD JUMP JUMPDEST DUP3 ADD SWAP2 SWAP1 PUSH1 0x0 MSTORE PUSH1 0x20 PUSH1 0x0 KECCAK256 SWAP1 JUMPDEST DUP2 SLOAD DUP2 MSTORE SWAP1 PUSH1 0x1 ADD SWAP1 PUSH1 0x20 ADD DUP1 DUP4 GT PUSH2 0x4C0 JUMPI DUP3 SWAP1 SUB PUSH1 0x1F AND DUP3 ADD SWAP2 JUMPDEST POP POP POP POP POP SWAP1 DUP1 PUSH1 0x2 ADD DUP1 SLOAD PUSH2 0x4F2 SWAP1 PUSH2 0xADF JUMP JUMPDEST DUP1 PUSH1 0x1F ADD PUSH1 0x20 DUP1 SWAP2 DIV MUL PUSH1 0x20 ADD PUSH1 0x40 MLOAD SWAP1 DUP2 ADD PUSH1 0x40 MSTORE DUP1 SWAP3 SWAP2 SWAP1 DUP2 DUP2 MSTORE PUSH1 0x20 ADD DUP3 DUP1 SLOAD PUSH2 0x51E SWAP1 PUSH2 0xADF JUMP JUMPDEST DUP1 ISZERO PUSH2 0x56B JUMPI DUP1 PUSH1 0x1F LT PUSH2 0x540 JUMPI PUSH2 0x100 DUP1 DUP4 SLOAD DIV MUL DUP4 MSTORE SWAP2 PUSH1 0x20 ADD SWAP2 PUSH2 0x56B JUMP JUMPDEST DUP3 ADD SWAP2 SWAP1 PUSH1 0x0 MSTORE PUSH1 0x20 PUSH1 0x0 KECCAK256 SWAP1 JUMPDEST DUP2 SLOAD DUP2 MSTORE SWAP1 PUSH1 0x1 ADD SWAP1 PUSH1 0x20 ADD DUP1 DUP4 GT PUSH2 0x54E JUMPI DUP3 SWAP1 SUB PUSH1 0x1F AND DUP3 ADD SWAP2 JUMPDEST POP POP POP POP POP SWAP1 DUP1 PUSH1 0x3 ADD PUSH1 0x0 SWAP1 SLOAD SWAP1 PUSH2 0x100 EXP SWAP1 DIV PUSH1 0xFF AND SWAP1 DUP1 PUSH1 0x4 ADD SLOAD SWAP1 POP DUP6 JUMP JUMPDEST PUSH1 0x40 MLOAD DUP1 PUSH1 0xA0 ADD PUSH1 0x40 MSTORE DUP1 PUSH1 0x0 DUP2 MSTORE PUSH1 0x20 ADD PUSH1 0x60 DUP2 MSTORE PUSH1 0x20 ADD PUSH1 0x60 DUP2 MSTORE PUSH1 0x20 ADD PUSH1 0x0 ISZERO ISZERO DUP2 MSTORE PUSH1 0x20 ADD PUSH1 0x0 DUP2 MSTORE POP SWAP1 JUMP JUMPDEST DUP3 DUP1 SLOAD PUSH2 0x5CB SWAP1 PUSH2 0xADF JUMP JUMPDEST SWAP1 PUSH1 0x0 MSTORE PUSH1 0x20 PUSH1 0x0 KECCAK256 SWAP1 PUSH1 0x1F ADD PUSH1 0x20 SWAP1 DIV DUP2 ADD SWAP3 DUP3 PUSH2 0x5ED JUMPI PUSH1 0x0 DUP6 SSTORE PUSH2 0x634 JUMP JUMPDEST DUP3 PUSH1 0x1F LT PUSH2 0x606 JUMPI DUP1 MLOAD PUSH1 0xFF NOT AND DUP4 DUP1 ADD OR DUP6 SSTORE PUSH2 0x634 JUMP JUMPDEST DUP3 DUP1 ADD PUSH1 0x1 ADD DUP6 SSTORE DUP3 ISZERO PUSH2 0x634 JUMPI SWAP2 DUP3 ADD JUMPDEST DUP3 DUP2 GT ISZERO PUSH2 0x633 JUMPI DUP3 MLOAD DUP3 SSTORE SWAP2 PUSH1 0x20 ADD SWAP2 SWAP1 PUSH1 0x1 ADD SWAP1 PUSH2 0x618 JUMP JUMPDEST JUMPDEST POP SWAP1 POP PUSH2 0x641 SWAP2 SWAP1 PUSH2 0x645 JUMP JUMPDEST POP SWAP1 JUMP JUMPDEST JUMPDEST DUP1 DUP3 GT ISZERO PUSH2 0x65E JUMPI PUSH1 0x0 DUP2 PUSH1 0x0 SWAP1 SSTORE POP PUSH1 0x1 ADD PUSH2 0x646 JUMP JUMPDEST POP SWAP1 JUMP JUMPDEST PUSH1 0x0 PUSH2 0x675 PUSH2 0x670 DUP5 PUSH2 0x9F6 JUMP JUMPDEST PUSH2 0x9C5 JUMP JUMPDEST SWAP1 POP DUP3 DUP2 MSTORE PUSH1 0x20 DUP2 ADD DUP5 DUP5 DUP5 ADD GT ISZERO PUSH2 0x68D JUMPI PUSH1 0x0 DUP1 REVERT JUMPDEST PUSH2 0x698 DUP5 DUP3 DUP6 PUSH2 0xA9D JUMP JUMPDEST POP SWAP4 SWAP3 POP POP POP JUMP JUMPDEST PUSH1 0x0 DUP2 CALLDATALOAD SWAP1 POP PUSH2 0x6AF DUP2 PUSH2 0xBF8 JUMP JUMPDEST SWAP3 SWAP2 POP POP JUMP JUMPDEST PUSH1 0x0 DUP3 PUSH1 0x1F DUP4 ADD SLT PUSH2 0x6C6 JUMPI PUSH1 0x0 DUP1 REVERT JUMPDEST DUP2 CALLDATALOAD PUSH2 0x6D6 DUP5 DUP3 PUSH1 0x20 DUP7 ADD PUSH2 0x662 JUMP JUMPDEST SWAP2 POP POP SWAP3 SWAP2 POP POP JUMP JUMPDEST PUSH1 0x0 DUP2 CALLDATALOAD SWAP1 POP PUSH2 0x6EE DUP2 PUSH2 0xC0F JUMP JUMPDEST SWAP3 SWAP2 POP POP JUMP JUMPDEST PUSH1 0x0 DUP1 PUSH1 0x0 PUSH1 0x60 DUP5 DUP7 SUB SLT ISZERO PUSH2 0x709 JUMPI PUSH1 0x0 DUP1 REVERT JUMPDEST PUSH1 0x0 DUP5 ADD CALLDATALOAD PUSH8 0xFFFFFFFFFFFFFFFF DUP2 GT ISZERO PUSH2 0x723 JUMPI PUSH1 0x0 DUP1 REVERT JUMPDEST PUSH2 0x72F DUP7 DUP3 DUP8 ADD PUSH2 0x6B5 JUMP JUMPDEST SWAP4 POP POP PUSH1 0x20 DUP5 ADD CALLDATALOAD PUSH8 0xFFFFFFFFFFFFFFFF DUP2 GT ISZERO PUSH2 0x74C JUMPI PUSH1 0x0 DUP1 REVERT JUMPDEST PUSH2 0x758 DUP7 DUP3 DUP8 ADD PUSH2 0x6B5 JUMP JUMPDEST SWAP3 POP POP PUSH1 0x40 PUSH2 0x769 DUP7 DUP3 DUP8 ADD PUSH2 0x6A0 JUMP JUMPDEST SWAP2 POP POP SWAP3 POP SWAP3 POP SWAP3 JUMP JUMPDEST PUSH1 0x0 PUSH1 0x20 DUP3 DUP5 SUB SLT ISZERO PUSH2 0x785 JUMPI PUSH1 0x0 DUP1 REVERT JUMPDEST PUSH1 0x0 PUSH2 0x793 DUP5 DUP3 DUP6 ADD PUSH2 0x6DF JUMP JUMPDEST SWAP2 POP POP SWAP3 SWAP2 POP POP JUMP JUMPDEST PUSH2 0x7A5 DUP2 PUSH2 0xA87 JUMP JUMPDEST DUP3 MSTORE POP POP JUMP JUMPDEST PUSH2 0x7B4 DUP2 PUSH2 0xA87 JUMP JUMPDEST DUP3 MSTORE POP POP JUMP JUMPDEST PUSH1 0x0 PUSH2 0x7C5 DUP3 PUSH2 0xA26 JUMP JUMPDEST PUSH2 0x7CF DUP2 DUP6 PUSH2 0xA31 JUMP JUMPDEST SWAP4 POP PUSH2 0x7DF DUP2 DUP6 PUSH1 0x20 DUP7 ADD PUSH2 0xAAC JUMP JUMPDEST PUSH2 0x7E8 DUP2 PUSH2 0xBE7 JUMP JUMPDEST DUP5 ADD SWAP2 POP POP SWAP3 SWAP2 POP POP JUMP JUMPDEST PUSH1 0x0 PUSH2 0x7FE DUP3 PUSH2 0xA26 JUMP JUMPDEST PUSH2 0x808 DUP2 DUP6 PUSH2 0xA42 JUMP JUMPDEST SWAP4 POP PUSH2 0x818 DUP2 DUP6 PUSH1 0x20 DUP7 ADD PUSH2 0xAAC JUMP JUMPDEST PUSH2 0x821 DUP2 PUSH2 0xBE7 JUMP JUMPDEST DUP5 ADD SWAP2 POP POP SWAP3 SWAP2 POP POP JUMP JUMPDEST PUSH1 0x0 PUSH2 0x839 PUSH1 0x12 DUP4 PUSH2 0xA42 JUMP JUMPDEST SWAP2 POP PUSH32 0x4C6F6720646F6573206E6F742065786973740000000000000000000000000000 PUSH1 0x0 DUP4 ADD MSTORE PUSH1 0x20 DUP3 ADD SWAP1 POP SWAP2 SWAP1 POP JUMP JUMPDEST PUSH1 0x0 PUSH1 0xA0 DUP4 ADD PUSH1 0x0 DUP4 ADD MLOAD PUSH2 0x884 PUSH1 0x0 DUP7 ADD DUP3 PUSH2 0x8E9 JUMP JUMPDEST POP PUSH1 0x20 DUP4 ADD MLOAD DUP5 DUP3 SUB PUSH1 0x20 DUP7 ADD MSTORE PUSH2 0x89C DUP3 DUP3 PUSH2 0x7BA JUMP JUMPDEST SWAP2 POP POP PUSH1 0x40 DUP4 ADD MLOAD DUP5 DUP3 SUB PUSH1 0x40 DUP7 ADD MSTORE PUSH2 0x8B6 DUP3 DUP3 PUSH2 0x7BA JUMP JUMPDEST SWAP2 POP POP PUSH1 0x60 DUP4 ADD MLOAD PUSH2 0x8CB PUSH1 0x60 DUP7 ADD DUP3 PUSH2 0x79C JUMP JUMPDEST POP PUSH1 0x80 DUP4 ADD MLOAD PUSH2 0x8DE PUSH1 0x80 DUP7 ADD DUP3 PUSH2 0x8E9 JUMP JUMPDEST POP DUP1 SWAP2 POP POP SWAP3 SWAP2 POP POP JUMP JUMPDEST PUSH2 0x8F2 DUP2 PUSH2 0xA93 JUMP JUMPDEST DUP3 MSTORE POP POP JUMP JUMPDEST PUSH2 0x901 DUP2 PUSH2 0xA93 JUMP JUMPDEST DUP3 MSTORE POP POP JUMP JUMPDEST PUSH1 0x0 PUSH1 0x20 DUP3 ADD SWAP1 POP DUP2 DUP2 SUB PUSH1 0x0 DUP4 ADD MSTORE PUSH2 0x920 DUP2 PUSH2 0x82C JUMP JUMPDEST SWAP1 POP SWAP2 SWAP1 POP JUMP JUMPDEST PUSH1 0x0 PUSH1 0x20 DUP3 ADD SWAP1 POP DUP2 DUP2 SUB PUSH1 0x0 DUP4 ADD MSTORE PUSH2 0x941 DUP2 DUP5 PUSH2 0x86C JUMP JUMPDEST SWAP1 POP SWAP3 SWAP2 POP POP JUMP JUMPDEST PUSH1 0x0 PUSH1 0x20 DUP3 ADD SWAP1 POP PUSH2 0x95E PUSH1 0x0 DUP4 ADD DUP5 PUSH2 0x8F8 JUMP JUMPDEST SWAP3 SWAP2 POP POP JUMP JUMPDEST PUSH1 0x0 PUSH1 0xA0 DUP3 ADD SWAP1 POP PUSH2 0x979 PUSH1 0x0 DUP4 ADD DUP9 PUSH2 0x8F8 JUMP JUMPDEST DUP2 DUP2 SUB PUSH1 0x20 DUP4 ADD MSTORE PUSH2 0x98B DUP2 DUP8 PUSH2 0x7F3 JUMP JUMPDEST SWAP1 POP DUP2 DUP2 SUB PUSH1 0x40 DUP4 ADD MSTORE PUSH2 0x99F DUP2 DUP7 PUSH2 0x7F3 JUMP JUMPDEST SWAP1 POP PUSH2 0x9AE PUSH1 0x60 DUP4 ADD DUP6 PUSH2 0x7AB JUMP JUMPDEST PUSH2 0x9BB PUSH1 0x80 DUP4 ADD DUP5 PUSH2 0x8F8 JUMP JUMPDEST SWAP7 SWAP6 POP POP POP POP POP POP JUMP JUMPDEST PUSH1 0x0 PUSH1 0x40 MLOAD SWAP1 POP DUP2 DUP2 ADD DUP2 DUP2 LT PUSH8 0xFFFFFFFFFFFFFFFF DUP3 GT OR ISZERO PUSH2 0x9EC JUMPI PUSH2 0x9EB PUSH2 0xBB8 JUMP JUMPDEST JUMPDEST DUP1 PUSH1 0x40 MSTORE POP SWAP2 SWAP1 POP JUMP JUMPDEST PUSH1 0x0 PUSH8 0xFFFFFFFFFFFFFFFF DUP3 GT ISZERO PUSH2 0xA11 JUMPI PUSH2 0xA10 PUSH2 0xBB8 JUMP JUMPDEST JUMPDEST PUSH1 0x1F NOT PUSH1 0x1F DUP4 ADD AND SWAP1 POP PUSH1 0x20 DUP2 ADD SWAP1 POP SWAP2 SWAP1 POP JUMP JUMPDEST PUSH1 0x0 DUP2 MLOAD SWAP1 POP SWAP2 SWAP1 POP JUMP JUMPDEST PUSH1 0x0 DUP3 DUP3 MSTORE PUSH1 0x20 DUP3 ADD SWAP1 POP SWAP3 SWAP2 POP POP JUMP JUMPDEST PUSH1 0x0 DUP3 DUP3 MSTORE PUSH1 0x20 DUP3 ADD SWAP1 POP SWAP3 SWAP2 POP POP JUMP JUMPDEST PUSH1 0x0 PUSH2 0xA5E DUP3 PUSH2 0xA93 JUMP JUMPDEST SWAP2 POP PUSH2 0xA69 DUP4 PUSH2 0xA93 JUMP JUMPDEST SWAP3 POP DUP3 DUP3 LT ISZERO PUSH2 0xA7C JUMPI PUSH2 0xA7B PUSH2 0xB5A JUMP JUMPDEST JUMPDEST DUP3 DUP3 SUB SWAP1 POP SWAP3 SWAP2 POP POP JUMP JUMPDEST PUSH1 0x0 DUP2 ISZERO ISZERO SWAP1 POP SWAP2 SWAP1 POP JUMP JUMPDEST PUSH1 0x0 DUP2 SWAP1 POP SWAP2 SWAP1 POP JUMP JUMPDEST DUP3 DUP2 DUP4 CALLDATACOPY PUSH1 0x0 DUP4 DUP4 ADD MSTORE POP POP POP JUMP JUMPDEST PUSH1 0x0 JUMPDEST DUP4 DUP2 LT ISZERO PUSH2 0xACA JUMPI DUP1 DUP3 ADD MLOAD DUP2 DUP5 ADD MSTORE PUSH1 0x20 DUP2 ADD SWAP1 POP PUSH2 0xAAF JUMP JUMPDEST DUP4 DUP2 GT ISZERO PUSH2 0xAD9 JUMPI PUSH1 0x0 DUP5 DUP5 ADD MSTORE JUMPDEST POP POP POP POP JUMP JUMPDEST PUSH1 0x0 PUSH1 0x2 DUP3 DIV SWAP1 POP PUSH1 0x1 DUP3 AND DUP1 PUSH2 0xAF7 JUMPI PUSH1 0x7F DUP3 AND SWAP2 POP JUMPDEST PUSH1 0x20 DUP3 LT DUP2 EQ ISZERO PUSH2 0xB0B JUMPI PUSH2 0xB0A PUSH2 0xB89 JUMP JUMPDEST JUMPDEST POP SWAP2 SWAP1 POP JUMP JUMPDEST PUSH1 0x0 PUSH2 0xB1C DUP3 PUSH2 0xA93 JUMP JUMPDEST SWAP2 POP PUSH32 0xFFFFFFFFFFFFFFFFFFFFFFFFFFFFFFFFFFFFFFFFFFFFFFFFFFFFFFFFFFFFFFFF DUP3 EQ ISZERO PUSH2 0xB4F JUMPI PUSH2 0xB4E PUSH2 0xB5A JUMP JUMPDEST JUMPDEST PUSH1 0x1 DUP3 ADD SWAP1 POP SWAP2 SWAP1 POP JUMP JUMPDEST PUSH32 0x4E487B7100000000000000000000000000000000000000000000000000000000 PUSH1 0x0 MSTORE PUSH1 0x11 PUSH1 0x4 MSTORE PUSH1 0x24 PUSH1 0x0 REVERT JUMPDEST PUSH32 0x4E487B7100000000000000000000000000000000000000000000000000000000 PUSH1 0x0 MSTORE PUSH1 0x22 PUSH1 0x4 MSTORE PUSH1 0x24 PUSH1 0x0 REVERT JUMPDEST PUSH32 0x4E487B7100000000000000000000000000000000000000000000000000000000 PUSH1 0x0 MSTORE PUSH1 0x41 PUSH1 0x4 MSTORE PUSH1 0x24 PUSH1 0x0 REVERT JUMPDEST PUSH1 0x0 PUSH1 0x1F NOT PUSH1 0x1F DUP4 ADD AND SWAP1 POP SWAP2 SWAP1 POP JUMP JUMPDEST PUSH2 0xC01 DUP2 PUSH2 0xA87 JUMP JUMPDEST DUP2 EQ PUSH2 0xC0C JUMPI PUSH1 0x0 DUP1 REVERT JUMPDEST POP JUMP JUMPDEST PUSH2 0xC18 DUP2 PUSH2 0xA93 JUMP JUMPDEST DUP2 EQ PUSH2 0xC23 JUMPI PUSH1 0x0 DUP1 REVERT JUMPDEST POP JUMP INVALID LOG2 PUSH5 0x6970667358 0x22 SLT KECCAK256 PUSH31 0x25C92D27843F2470119FB91693FD57FE22EF3872C4E0F14E7EAF85EEC9F266 PUSH5 0x736F6C6343 STOP ADDMOD STOP STOP CALLER "
	},
	"abi": [
		{
			"inputs": [
				{
					"internalType": "string",
					"name": "_ipfsHash",
					"type": "string"
				},
				{
					"internalType": "string",
					"name": "_dataHash",
					"type": "string"
				},
				{
					"internalType": "bool",
					"name": "_maintenanceNeeded",
					"type": "bool"
				}
			],
			"name": "logMaintenance",
			"outputs": [],
			"stateMutability": "nonpayable",
			"type": "function"
		},
		{
			"anonymous": false,
			"inputs": [
				{
					"indexed": false,
					"internalType": "uint256",
					"name": "id",
					"type": "uint256"
				},
				{
					"indexed": false,
					"internalType": "string",
					"name": "ipfsHash",
					"type": "string"
				},
				{
					"indexed": false,
					"internalType": "string",
					"name": "dataHash",
					"type": "string"
				},
				{
					"indexed": false,
					"internalType": "bool",
					"name": "maintenanceNeeded",
					"type": "bool"
				},
				{
					"indexed": false,
					"internalType": "uint256",
					"name": "timestamp",
					"type": "uint256"
				}
			],
			"name": "MaintenanceLogged",
			"type": "event"
		},
		{
			"inputs": [
				{
					"internalType": "uint256",
					"name": "_id",
					"type": "uint256"
				}
			],
			"name": "getMaintenanceLog",
			"outputs": [
				{
					"components": [
						{
							"internalType": "uint256",
							"name": "id",
							"type": "uint256"
						},
						{
							"internalType": "string",
							"name": "ipfsHash",
							"type": "string"
						},
						{
							"internalType": "string",
							"name": "dataHash",
							"type": "string"
						},
						{
							"internalType": "bool",
							"name": "maintenanceNeeded",
							"type": "bool"
						},
						{
							"internalType": "uint256",
							"name": "timestamp",
							"type": "uint256"
						}
					],
					"internalType": "struct PredictiveMaintenance.MaintenanceLog",
					"name": "",
					"type": "tuple"
				}
			],
			"stateMutability": "view",
			"type": "function"
		},
		{
			"inputs": [],
			"name": "logCount",
			"outputs": [
				{
					"internalType": "uint256",
					"name": "",
					"type": "uint256"
				}
			],
			"stateMutability": "view",
			"type": "function"
		},
		{
			"inputs": [
				{
					"internalType": "uint256",
					"name": "",
					"type": "uint256"
				}
			],
			"name": "logs",
			"outputs": [
				{
					"internalType": "uint256",
					"name": "id",
					"type": "uint256"
				},
				{
					"internalType": "string",
					"name": "ipfsHash",
					"type": "string"
				},
				{
					"internalType": "string",
					"name": "dataHash",
					"type": "string"
				},
				{
					"internalType": "bool",
					"name": "maintenanceNeeded",
					"type": "bool"
				},
				{
					"internalType": "uint256",
					"name": "timestamp",
					"type": "uint256"
				}
			],
			"stateMutability": "view",
			"type": "function"
		}
	],
	"storageLayout": {
		"storage": [
			{
				"astId": 16,
				"contract": "PredictiveMaintenance.sol:PredictiveMaintenance",
				"label": "logs",
				"offset": 0,
				"slot": "0",
				"type": "t_array(t_struct(MaintenanceLog)12_storage)dyn_storage"
			},
			{
				"astId": 18,
				"contract": "PredictiveMaintenance.sol:PredictiveMaintenance",
				"label": "logCount",
				"offset": 0,
				"slot": "1",
				"type": "t_uint256"
			}
		],
		"types": {
			"t_array(t_struct(MaintenanceLog)12_storage)dyn_storage": {
				"base": "t_struct(MaintenanceLog)12_storage",
				"encoding": "dynamic_array",
				"label": "struct PredictiveMaintenance.MaintenanceLog[]",
				"numberOfBytes": "32"
			},
			"t_bool": {
				"encoding": "inplace",
				"label": "bool",
				"numberOfBytes": "1"
			},
			"t_string_storage": {
				"encoding": "bytes",
				"label": "string",
				"numberOfBytes": "32"
			},
			"t_struct(MaintenanceLog)12_storage": {
				"encoding": "inplace",
				"label": "struct PredictiveMaintenance.MaintenanceLog",
				"members": [
					{
						"astId": 3,
						"contract": "PredictiveMaintenance.sol:PredictiveMaintenance",
						"label": "id",
						"offset": 0,
						"slot": "0",
						"type": "t_uint256"
					},
					{
						"astId": 5,
						"contract": "PredictiveMaintenance.sol:PredictiveMaintenance",
						"label": "ipfsHash",
						"offset": 0,
						"slot": "1",
						"type": "t_string_storage"
					},
					{
						"astId": 7,
						"contract": "PredictiveMaintenance.sol:PredictiveMaintenance",
						"label": "dataHash",
						"offset": 0,
						"slot": "2",
						"type": "t_string_storage"
					},
					{
						"astId": 9,
						"contract": "PredictiveMaintenance.sol:PredictiveMaintenance",
						"label": "maintenanceNeeded",
						"offset": 0,
						"slot": "3",
						"type": "t_bool"
					},
					{
						"astId": 11,
						"contract": "PredictiveMaintenance.sol:PredictiveMaintenance",
						"label": "timestamp",
						"offset": 0,
						"slot": "4",
						"type": "t_uint256"
					}
				],
				"numberOfBytes": "160"
			},
			"t_uint256": {
				"encoding": "inplace",
				"label": "uint256",
				"numberOfBytes": "32"
			}
		}
	},
	"web3Deploy": "var predictivemaintenanceContract = new web3.eth.Contract([{\"anonymous\":false,\"inputs\":[{\"indexed\":false,\"internalType\":\"uint256\",\"name\":\"id\",\"type\":\"uint256\"},{\"indexed\":false,\"internalType\":\"string\",\"name\":\"ipfsHash\",\"type\":\"string\"},{\"indexed\":false,\"internalType\":\"string\",\"name\":\"dataHash\",\"type\":\"string\"},{\"indexed\":false,\"internalType\":\"bool\",\"name\":\"maintenanceNeeded\",\"type\":\"bool\"},{\"indexed\":false,\"internalType\":\"uint256\",\"name\":\"timestamp\",\"type\":\"uint256\"}],\"name\":\"MaintenanceLogged\",\"type\":\"event\"},{\"inputs\":[{\"internalType\":\"uint256\",\"name\":\"_id\",\"type\":\"uint256\"}],\"name\":\"getMaintenanceLog\",\"outputs\":[{\"components\":[{\"internalType\":\"uint256\",\"name\":\"id\",\"type\":\"uint256\"},{\"internalType\":\"string\",\"name\":\"ipfsHash\",\"type\":\"string\"},{\"internalType\":\"string\",\"name\":\"dataHash\",\"type\":\"string\"},{\"internalType\":\"bool\",\"name\":\"maintenanceNeeded\",\"type\":\"bool\"},{\"internalType\":\"uint256\",\"name\":\"timestamp\",\"type\":\"uint256\"}],\"internalType\":\"struct PredictiveMaintenance.MaintenanceLog\",\"name\":\"\",\"type\":\"tuple\"}],\"stateMutability\":\"view\",\"type\":\"function\"},{\"inputs\":[],\"name\":\"logCount\",\"outputs\":[{\"internalType\":\"uint256\",\"name\":\"\",\"type\":\"uint256\"}],\"stateMutability\":\"view\",\"type\":\"function\"},{\"inputs\":[{\"internalType\":\"string\",\"name\":\"_ipfsHash\",\"type\":\"string\"},{\"internalType\":\"string\",\"name\":\"_dataHash\",\"type\":\"string\"},{\"internalType\":\"bool\",\"name\":\"_maintenanceNeeded\",\"type\":\"bool\"}],\"name\":\"logMaintenance\",\"outputs\":[],\"stateMutability\":\"nonpayable\",\"type\":\"function\"},{\"inputs\":[{\"internalType\":\"uint256\",\"name\":\"\",\"type\":\"uint256\"}],\"name\":\"logs\",\"outputs\":[{\"internalType\":\"uint256\",\"name\":\"id\",\"type\":\"uint256\"},{\"internalType\":\"string\",\"name\":\"ipfsHash\",\"type\":\"string\"},{\"internalType\":\"string\",\"name\":\"dataHash\",\"type\":\"string\"},{\"internalType\":\"bool\",\"name\":\"maintenanceNeeded\",\"type\":\"bool\"},{\"internalType\":\"uint256\",\"name\":\"timestamp\",\"type\":\"uint256\"}],\"stateMutability\":\"view\",\"type\":\"function\"}]);\nvar predictivemaintenance = predictivemaintenanceContract.deploy({\n     data: '0x608060405234801561001057600080fd5b50610c5c806100206000396000f3fe608060405234801561001057600080fd5b506004361061004c5760003560e01c8063a503898f14610051578063c9be7b551461006f578063df49749d1461009f578063e79899bd146100bb575b600080fd5b6100596100ef565b6040516100669190610949565b60405180910390f35b61008960048036038101906100849190610773565b6100f5565b6040516100969190610927565b60405180910390f35b6100b960048036038101906100b491906106f4565b610307565b005b6100d560048036038101906100d09190610773565b61042b565b6040516100e6959493929190610964565b60405180910390f35b60015481565b6100fd61058e565b60008211801561010f57506001548211155b61014e576040517f08c379a000000000000000000000000000000000000000000000000000000000815260040161014590610907565b60405180910390fd5b600060018361015d9190610a53565b81548110610194577f4e487b7100000000000000000000000000000000000000000000000000000000600052603260045260246000fd5b90600052602060002090600502016040518060a0016040529081600082015481526020016001820180546101c790610adf565b80601f01602080910402602001604051908101604052809291908181526020018280546101f390610adf565b80156102405780601f1061021557610100808354040283529160200191610240565b820191906000526020600020905b81548152906001019060200180831161022357829003601f168201915b5050505050815260200160028201805461025990610adf565b80601f016020809104026020016040519081016040528092919081815260200182805461028590610adf565b80156102d25780601f106102a7576101008083540402835291602001916102d2565b820191906000526020600020905b8154815290600101906020018083116102b557829003601f168201915b505050505081526020016003820160009054906101000a900460ff161515151581526020016004820154815250509050919050565b6001600081548092919061031a90610b11565b919050555060006040518060a001604052806001548152602001858152602001848152602001831515815260200142815250908060018154018082558091505060019003906000526020600020906005020160009091909190915060008201518160000155602082015181600101908051906020019061039b9291906105bf565b5060408201518160020190805190602001906103b89291906105bf565b5060608201518160030160006101000a81548160ff0219169083151502179055506080820151816004015550507f327e4ec254c296aefbe2b3d08c11fbd7cec20859baf4291dbc4dcf979a77cd286001548484844260405161041e959493929190610964565b60405180910390a1505050565b6000818154811061043b57600080fd5b906000526020600020906005020160009150905080600001549080600101805461046490610adf565b80601f016020809104026020016040519081016040528092919081815260200182805461049090610adf565b80156104dd5780601f106104b2576101008083540402835291602001916104dd565b820191906000526020600020905b8154815290600101906020018083116104c057829003601f168201915b5050505050908060020180546104f290610adf565b80601f016020809104026020016040519081016040528092919081815260200182805461051e90610adf565b801561056b5780601f106105405761010080835404028352916020019161056b565b820191906000526020600020905b81548152906001019060200180831161054e57829003601f168201915b5050505050908060030160009054906101000a900460ff16908060040154905085565b6040518060a00160405280600081526020016060815260200160608152602001600015158152602001600081525090565b8280546105cb90610adf565b90600052602060002090601f0160209004810192826105ed5760008555610634565b82601f1061060657805160ff1916838001178555610634565b82800160010185558215610634579182015b82811115610633578251825591602001919060010190610618565b5b5090506106419190610645565b5090565b5b8082111561065e576000816000905550600101610646565b5090565b6000610675610670846109f6565b6109c5565b90508281526020810184848401111561068d57600080fd5b610698848285610a9d565b509392505050565b6000813590506106af81610bf8565b92915050565b600082601f8301126106c657600080fd5b81356106d6848260208601610662565b91505092915050565b6000813590506106ee81610c0f565b92915050565b60008060006060848603121561070957600080fd5b600084013567ffffffffffffffff81111561072357600080fd5b61072f868287016106b5565b935050602084013567ffffffffffffffff81111561074c57600080fd5b610758868287016106b5565b9250506040610769868287016106a0565b9150509250925092565b60006020828403121561078557600080fd5b6000610793848285016106df565b91505092915050565b6107a581610a87565b82525050565b6107b481610a87565b82525050565b60006107c582610a26565b6107cf8185610a31565b93506107df818560208601610aac565b6107e881610be7565b840191505092915050565b60006107fe82610a26565b6108088185610a42565b9350610818818560208601610aac565b61082181610be7565b840191505092915050565b6000610839601283610a42565b91507f4c6f6720646f6573206e6f7420657869737400000000000000000000000000006000830152602082019050919050565b600060a08301600083015161088460008601826108e9565b506020830151848203602086015261089c82826107ba565b915050604083015184820360408601526108b682826107ba565b91505060608301516108cb606086018261079c565b5060808301516108de60808601826108e9565b508091505092915050565b6108f281610a93565b82525050565b61090181610a93565b82525050565b600060208201905081810360008301526109208161082c565b9050919050565b60006020820190508181036000830152610941818461086c565b905092915050565b600060208201905061095e60008301846108f8565b92915050565b600060a08201905061097960008301886108f8565b818103602083015261098b81876107f3565b9050818103604083015261099f81866107f3565b90506109ae60608301856107ab565b6109bb60808301846108f8565b9695505050505050565b6000604051905081810181811067ffffffffffffffff821117156109ec576109eb610bb8565b5b8060405250919050565b600067ffffffffffffffff821115610a1157610a10610bb8565b5b601f19601f8301169050602081019050919050565b600081519050919050565b600082825260208201905092915050565b600082825260208201905092915050565b6000610a5e82610a93565b9150610a6983610a93565b925082821015610a7c57610a7b610b5a565b5b828203905092915050565b60008115159050919050565b6000819050919050565b82818337600083830152505050565b60005b83811015610aca578082015181840152602081019050610aaf565b83811115610ad9576000848401525b50505050565b60006002820490506001821680610af757607f821691505b60208210811415610b0b57610b0a610b89565b5b50919050565b6000610b1c82610a93565b91507fffffffffffffffffffffffffffffffffffffffffffffffffffffffffffffffff821415610b4f57610b4e610b5a565b5b600182019050919050565b7f4e487b7100000000000000000000000000000000000000000000000000000000600052601160045260246000fd5b7f4e487b7100000000000000000000000000000000000000000000000000000000600052602260045260246000fd5b7f4e487b7100000000000000000000000000000000000000000000000000000000600052604160045260246000fd5b6000601f19601f8301169050919050565b610c0181610a87565b8114610c0c57600080fd5b50565b610c1881610a93565b8114610c2357600080fd5b5056fea26469706673582212207e25c92d27843f2470119fb91693fd57fe22ef3872c4e0f14e7eaf85eec9f26664736f6c63430008000033', \n     arguments: [\n     ]\n}).send({\n     from: web3.eth.accounts[0], \n     gas: '4700000'\n   }, function (e, contract){\n    console.log(e, contract);\n    if (typeof contract.address !== 'undefined') {\n         console.log('Contract mined! address: ' + contract.address + ' transactionHash: ' + contract.transactionHash);\n    }\n })",
	"functionHashes": {
		"c9be7b55": "getMaintenanceLog(uint256)",
		"a503898f": "logCount()",
		"df49749d": "logMaintenance(string,string,bool)",
		"e79899bd": "logs(uint256)"
	},
	"gasEstimates": {
		"Creation": {
			"codeDepositCost": "632800",
			"executionCost": "664",
			"totalCost": "633464"
		},
		"External": {
			"getMaintenanceLog(uint256)": "infinite",
			"logCount()": "1107",
			"logMaintenance(string,string,bool)": "infinite",
			"logs(uint256)": "infinite"
		}
	},
	"devdoc": {
		"kind": "dev",
		"methods": {},
		"version": 1
	},
	"userdoc": {
		"kind": "user",
		"methods": {},
		"version": 1
	},
	"Runtime Bytecode": {
		"immutableReferences": {},
		"linkReferences": {},
		"object": "608060405234801561001057600080fd5b506004361061004c5760003560e01c8063a503898f14610051578063c9be7b551461006f578063df49749d1461009f578063e79899bd146100bb575b600080fd5b6100596100ef565b6040516100669190610949565b60405180910390f35b61008960048036038101906100849190610773565b6100f5565b6040516100969190610927565b60405180910390f35b6100b960048036038101906100b491906106f4565b610307565b005b6100d560048036038101906100d09190610773565b61042b565b6040516100e6959493929190610964565b60405180910390f35b60015481565b6100fd61058e565b60008211801561010f57506001548211155b61014e576040517f08c379a000000000000000000000000000000000000000000000000000000000815260040161014590610907565b60405180910390fd5b600060018361015d9190610a53565b81548110610194577f4e487b7100000000000000000000000000000000000000000000000000000000600052603260045260246000fd5b90600052602060002090600502016040518060a0016040529081600082015481526020016001820180546101c790610adf565b80601f01602080910402602001604051908101604052809291908181526020018280546101f390610adf565b80156102405780601f1061021557610100808354040283529160200191610240565b820191906000526020600020905b81548152906001019060200180831161022357829003601f168201915b5050505050815260200160028201805461025990610adf565b80601f016020809104026020016040519081016040528092919081815260200182805461028590610adf565b80156102d25780601f106102a7576101008083540402835291602001916102d2565b820191906000526020600020905b8154815290600101906020018083116102b557829003601f168201915b505050505081526020016003820160009054906101000a900460ff161515151581526020016004820154815250509050919050565b6001600081548092919061031a90610b11565b919050555060006040518060a001604052806001548152602001858152602001848152602001831515815260200142815250908060018154018082558091505060019003906000526020600020906005020160009091909190915060008201518160000155602082015181600101908051906020019061039b9291906105bf565b5060408201518160020190805190602001906103b89291906105bf565b5060608201518160030160006101000a81548160ff0219169083151502179055506080820151816004015550507f327e4ec254c296aefbe2b3d08c11fbd7cec20859baf4291dbc4dcf979a77cd286001548484844260405161041e959493929190610964565b60405180910390a1505050565b6000818154811061043b57600080fd5b906000526020600020906005020160009150905080600001549080600101805461046490610adf565b80601f016020809104026020016040519081016040528092919081815260200182805461049090610adf565b80156104dd5780601f106104b2576101008083540402835291602001916104dd565b820191906000526020600020905b8154815290600101906020018083116104c057829003601f168201915b5050505050908060020180546104f290610adf565b80601f016020809104026020016040519081016040528092919081815260200182805461051e90610adf565b801561056b5780601f106105405761010080835404028352916020019161056b565b820191906000526020600020905b81548152906001019060200180831161054e57829003601f168201915b5050505050908060030160009054906101000a900460ff16908060040154905085565b6040518060a00160405280600081526020016060815260200160608152602001600015158152602001600081525090565b8280546105cb90610adf565b90600052602060002090601f0160209004810192826105ed5760008555610634565b82601f1061060657805160ff1916838001178555610634565b82800160010185558215610634579182015b82811115610633578251825591602001919060010190610618565b5b5090506106419190610645565b5090565b5b8082111561065e576000816000905550600101610646565b5090565b6000610675610670846109f6565b6109c5565b90508281526020810184848401111561068d57600080fd5b610698848285610a9d565b509392505050565b6000813590506106af81610bf8565b92915050565b600082601f8301126106c657600080fd5b81356106d6848260208601610662565b91505092915050565b6000813590506106ee81610c0f565b92915050565b60008060006060848603121561070957600080fd5b600084013567ffffffffffffffff81111561072357600080fd5b61072f868287016106b5565b935050602084013567ffffffffffffffff81111561074c57600080fd5b610758868287016106b5565b9250506040610769868287016106a0565b9150509250925092565b60006020828403121561078557600080fd5b6000610793848285016106df565b91505092915050565b6107a581610a87565b82525050565b6107b481610a87565b82525050565b60006107c582610a26565b6107cf8185610a31565b93506107df818560208601610aac565b6107e881610be7565b840191505092915050565b60006107fe82610a26565b6108088185610a42565b9350610818818560208601610aac565b61082181610be7565b840191505092915050565b6000610839601283610a42565b91507f4c6f6720646f6573206e6f7420657869737400000000000000000000000000006000830152602082019050919050565b600060a08301600083015161088460008601826108e9565b506020830151848203602086015261089c82826107ba565b915050604083015184820360408601526108b682826107ba565b91505060608301516108cb606086018261079c565b5060808301516108de60808601826108e9565b508091505092915050565b6108f281610a93565b82525050565b61090181610a93565b82525050565b600060208201905081810360008301526109208161082c565b9050919050565b60006020820190508181036000830152610941818461086c565b905092915050565b600060208201905061095e60008301846108f8565b92915050565b600060a08201905061097960008301886108f8565b818103602083015261098b81876107f3565b9050818103604083015261099f81866107f3565b90506109ae60608301856107ab565b6109bb60808301846108f8565b9695505050505050565b6000604051905081810181811067ffffffffffffffff821117156109ec576109eb610bb8565b5b8060405250919050565b600067ffffffffffffffff821115610a1157610a10610bb8565b5b601f19601f8301169050602081019050919050565b600081519050919050565b600082825260208201905092915050565b600082825260208201905092915050565b6000610a5e82610a93565b9150610a6983610a93565b925082821015610a7c57610a7b610b5a565b5b828203905092915050565b60008115159050919050565b6000819050919050565b82818337600083830152505050565b60005b83811015610aca578082015181840152602081019050610aaf565b83811115610ad9576000848401525b50505050565b60006002820490506001821680610af757607f821691505b60208210811415610b0b57610b0a610b89565b5b50919050565b6000610b1c82610a93565b91507fffffffffffffffffffffffffffffffffffffffffffffffffffffffffffffffff821415610b4f57610b4e610b5a565b5b600182019050919050565b7f4e487b7100000000000000000000000000000000000000000000000000000000600052601160045260246000fd5b7f4e487b7100000000000000000000000000000000000000000000000000000000600052602260045260246000fd5b7f4e487b7100000000000000000000000000000000000000000000000000000000600052604160045260246000fd5b6000601f19601f8301169050919050565b610c0181610a87565b8114610c0c57600080fd5b50565b610c1881610a93565b8114610c2357600080fd5b5056fea26469706673582212207e25c92d27843f2470119fb91693fd57fe22ef3872c4e0f14e7eaf85eec9f26664736f6c63430008000033",
		"opcodes": "PUSH1 0x80 PUSH1 0x40 MSTORE CALLVALUE DUP1 ISZERO PUSH2 0x10 JUMPI PUSH1 0x0 DUP1 REVERT JUMPDEST POP PUSH1 0x4 CALLDATASIZE LT PUSH2 0x4C JUMPI PUSH1 0x0 CALLDATALOAD PUSH1 0xE0 SHR DUP1 PUSH4 0xA503898F EQ PUSH2 0x51 JUMPI DUP1 PUSH4 0xC9BE7B55 EQ PUSH2 0x6F JUMPI DUP1 PUSH4 0xDF49749D EQ PUSH2 0x9F JUMPI DUP1 PUSH4 0xE79899BD EQ PUSH2 0xBB JUMPI JUMPDEST PUSH1 0x0 DUP1 REVERT JUMPDEST PUSH2 0x59 PUSH2 0xEF JUMP JUMPDEST PUSH1 0x40 MLOAD PUSH2 0x66 SWAP2 SWAP1 PUSH2 0x949 JUMP JUMPDEST PUSH1 0x40 MLOAD DUP1 SWAP2 SUB SWAP1 RETURN JUMPDEST PUSH2 0x89 PUSH1 0x4 DUP1 CALLDATASIZE SUB DUP2 ADD SWAP1 PUSH2 0x84 SWAP2 SWAP1 PUSH2 0x773 JUMP JUMPDEST PUSH2 0xF5 JUMP JUMPDEST PUSH1 0x40 MLOAD PUSH2 0x96 SWAP2 SWAP1 PUSH2 0x927 JUMP JUMPDEST PUSH1 0x40 MLOAD DUP1 SWAP2 SUB SWAP1 RETURN JUMPDEST PUSH2 0xB9 PUSH1 0x4 DUP1 CALLDATASIZE SUB DUP2 ADD SWAP1 PUSH2 0xB4 SWAP2 SWAP1 PUSH2 0x6F4 JUMP JUMPDEST PUSH2 0x307 JUMP JUMPDEST STOP JUMPDEST PUSH2 0xD5 PUSH1 0x4 DUP1 CALLDATASIZE SUB DUP2 ADD SWAP1 PUSH2 0xD0 SWAP2 SWAP1 PUSH2 0x773 JUMP JUMPDEST PUSH2 0x42B JUMP JUMPDEST PUSH1 0x40 MLOAD PUSH2 0xE6 SWAP6 SWAP5 SWAP4 SWAP3 SWAP2 SWAP1 PUSH2 0x964 JUMP JUMPDEST PUSH1 0x40 MLOAD DUP1 SWAP2 SUB SWAP1 RETURN JUMPDEST PUSH1 0x1 SLOAD DUP2 JUMP JUMPDEST PUSH2 0xFD PUSH2 0x58E JUMP JUMPDEST PUSH1 0x0 DUP3 GT DUP1 ISZERO PUSH2 0x10F JUMPI POP PUSH1 0x1 SLOAD DUP3 GT ISZERO JUMPDEST PUSH2 0x14E JUMPI PUSH1 0x40 MLOAD PUSH32 0x8C379A000000000000000000000000000000000000000000000000000000000 DUP2 MSTORE PUSH1 0x4 ADD PUSH2 0x145 SWAP1 PUSH2 0x907 JUMP JUMPDEST PUSH1 0x40 MLOAD DUP1 SWAP2 SUB SWAP1 REVERT JUMPDEST PUSH1 0x0 PUSH1 0x1 DUP4 PUSH2 0x15D SWAP2 SWAP1 PUSH2 0xA53 JUMP JUMPDEST DUP2 SLOAD DUP2 LT PUSH2 0x194 JUMPI PUSH32 0x4E487B7100000000000000000000000000000000000000000000000000000000 PUSH1 0x0 MSTORE PUSH1 0x32 PUSH1 0x4 MSTORE PUSH1 0x24 PUSH1 0x0 REVERT JUMPDEST SWAP1 PUSH1 0x0 MSTORE PUSH1 0x20 PUSH1 0x0 KECCAK256 SWAP1 PUSH1 0x5 MUL ADD PUSH1 0x40 MLOAD DUP1 PUSH1 0xA0 ADD PUSH1 0x40 MSTORE SWAP1 DUP2 PUSH1 0x0 DUP3 ADD SLOAD DUP2 MSTORE PUSH1 0x20 ADD PUSH1 0x1 DUP3 ADD DUP1 SLOAD PUSH2 0x1C7 SWAP1 PUSH2 0xADF JUMP JUMPDEST DUP1 PUSH1 0x1F ADD PUSH1 0x20 DUP1 SWAP2 DIV MUL PUSH1 0x20 ADD PUSH1 0x40 MLOAD SWAP1 DUP2 ADD PUSH1 0x40 MSTORE DUP1 SWAP3 SWAP2 SWAP1 DUP2 DUP2 MSTORE PUSH1 0x20 ADD DUP3 DUP1 SLOAD PUSH2 0x1F3 SWAP1 PUSH2 0xADF JUMP JUMPDEST DUP1 ISZERO PUSH2 0x240 JUMPI DUP1 PUSH1 0x1F LT PUSH2 0x215 JUMPI PUSH2 0x100 DUP1 DUP4 SLOAD DIV MUL DUP4 MSTORE SWAP2 PUSH1 0x20 ADD SWAP2 PUSH2 0x240 JUMP JUMPDEST DUP3 ADD SWAP2 SWAP1 PUSH1 0x0 MSTORE PUSH1 0x20 PUSH1 0x0 KECCAK256 SWAP1 JUMPDEST DUP2 SLOAD DUP2 MSTORE SWAP1 PUSH1 0x1 ADD SWAP1 PUSH1 0x20 ADD DUP1 DUP4 GT PUSH2 0x223 JUMPI DUP3 SWAP1 SUB PUSH1 0x1F AND DUP3 ADD SWAP2 JUMPDEST POP POP POP POP POP DUP2 MSTORE PUSH1 0x20 ADD PUSH1 0x2 DUP3 ADD DUP1 SLOAD PUSH2 0x259 SWAP1 PUSH2 0xADF JUMP JUMPDEST DUP1 PUSH1 0x1F ADD PUSH1 0x20 DUP1 SWAP2 DIV MUL PUSH1 0x20 ADD PUSH1 0x40 MLOAD SWAP1 DUP2 ADD PUSH1 0x40 MSTORE DUP1 SWAP3 SWAP2 SWAP1 DUP2 DUP2 MSTORE PUSH1 0x20 ADD DUP3 DUP1 SLOAD PUSH2 0x285 SWAP1 PUSH2 0xADF JUMP JUMPDEST DUP1 ISZERO PUSH2 0x2D2 JUMPI DUP1 PUSH1 0x1F LT PUSH2 0x2A7 JUMPI PUSH2 0x100 DUP1 DUP4 SLOAD DIV MUL DUP4 MSTORE SWAP2 PUSH1 0x20 ADD SWAP2 PUSH2 0x2D2 JUMP JUMPDEST DUP3 ADD SWAP2 SWAP1 PUSH1 0x0 MSTORE PUSH1 0x20 PUSH1 0x0 KECCAK256 SWAP1 JUMPDEST DUP2 SLOAD DUP2 MSTORE SWAP1 PUSH1 0x1 ADD SWAP1 PUSH1 0x20 ADD DUP1 DUP4 GT PUSH2 0x2B5 JUMPI DUP3 SWAP1 SUB PUSH1 0x1F AND DUP3 ADD SWAP2 JUMPDEST POP POP POP POP POP DUP2 MSTORE PUSH1 0x20 ADD PUSH1 0x3 DUP3 ADD PUSH1 0x0 SWAP1 SLOAD SWAP1 PUSH2 0x100 EXP SWAP1 DIV PUSH1 0xFF AND ISZERO ISZERO ISZERO ISZERO DUP2 MSTORE PUSH1 0x20 ADD PUSH1 0x4 DUP3 ADD SLOAD DUP2 MSTORE POP POP SWAP1 POP SWAP2 SWAP1 POP JUMP JUMPDEST PUSH1 0x1 PUSH1 0x0 DUP2 SLOAD DUP1 SWAP3 SWAP2 SWAP1 PUSH2 0x31A SWAP1 PUSH2 0xB11 JUMP JUMPDEST SWAP2 SWAP1 POP SSTORE POP PUSH1 0x0 PUSH1 0x40 MLOAD DUP1 PUSH1 0xA0 ADD PUSH1 0x40 MSTORE DUP1 PUSH1 0x1 SLOAD DUP2 MSTORE PUSH1 0x20 ADD DUP6 DUP2 MSTORE PUSH1 0x20 ADD DUP5 DUP2 MSTORE PUSH1 0x20 ADD DUP4 ISZERO ISZERO DUP2 MSTORE PUSH1 0x20 ADD TIMESTAMP DUP2 MSTORE POP SWAP1 DUP1 PUSH1 0x1 DUP2 SLOAD ADD DUP1 DUP3 SSTORE DUP1 SWAP2 POP POP PUSH1 0x1 SWAP1 SUB SWAP1 PUSH1 0x0 MSTORE PUSH1 0x20 PUSH1 0x0 KECCAK256 SWAP1 PUSH1 0x5 MUL ADD PUSH1 0x0 SWAP1 SWAP2 SWAP1 SWAP2 SWAP1 SWAP2 POP PUSH1 0x0 DUP3 ADD MLOAD DUP2 PUSH1 0x0 ADD SSTORE PUSH1 0x20 DUP3 ADD MLOAD DUP2 PUSH1 0x1 ADD SWAP1 DUP1 MLOAD SWAP1 PUSH1 0x20 ADD SWAP1 PUSH2 0x39B SWAP3 SWAP2 SWAP1 PUSH2 0x5BF JUMP JUMPDEST POP PUSH1 0x40 DUP3 ADD MLOAD DUP2 PUSH1 0x2 ADD SWAP1 DUP1 MLOAD SWAP1 PUSH1 0x20 ADD SWAP1 PUSH2 0x3B8 SWAP3 SWAP2 SWAP1 PUSH2 0x5BF JUMP JUMPDEST POP PUSH1 0x60 DUP3 ADD MLOAD DUP2 PUSH1 0x3 ADD PUSH1 0x0 PUSH2 0x100 EXP DUP2 SLOAD DUP2 PUSH1 0xFF MUL NOT AND SWAP1 DUP4 ISZERO ISZERO MUL OR SWAP1 SSTORE POP PUSH1 0x80 DUP3 ADD MLOAD DUP2 PUSH1 0x4 ADD SSTORE POP POP PUSH32 0x327E4EC254C296AEFBE2B3D08C11FBD7CEC20859BAF4291DBC4DCF979A77CD28 PUSH1 0x1 SLOAD DUP5 DUP5 DUP5 TIMESTAMP PUSH1 0x40 MLOAD PUSH2 0x41E SWAP6 SWAP5 SWAP4 SWAP3 SWAP2 SWAP1 PUSH2 0x964 JUMP JUMPDEST PUSH1 0x40 MLOAD DUP1 SWAP2 SUB SWAP1 LOG1 POP POP POP JUMP JUMPDEST PUSH1 0x0 DUP2 DUP2 SLOAD DUP2 LT PUSH2 0x43B JUMPI PUSH1 0x0 DUP1 REVERT JUMPDEST SWAP1 PUSH1 0x0 MSTORE PUSH1 0x20 PUSH1 0x0 KECCAK256 SWAP1 PUSH1 0x5 MUL ADD PUSH1 0x0 SWAP2 POP SWAP1 POP DUP1 PUSH1 0x0 ADD SLOAD SWAP1 DUP1 PUSH1 0x1 ADD DUP1 SLOAD PUSH2 0x464 SWAP1 PUSH2 0xADF JUMP JUMPDEST DUP1 PUSH1 0x1F ADD PUSH1 0x20 DUP1 SWAP2 DIV MUL PUSH1 0x20 ADD PUSH1 0x40 MLOAD SWAP1 DUP2 ADD PUSH1 0x40 MSTORE DUP1 SWAP3 SWAP2 SWAP1 DUP2 DUP2 MSTORE PUSH1 0x20 ADD DUP3 DUP1 SLOAD PUSH2 0x490 SWAP1 PUSH2 0xADF JUMP JUMPDEST DUP1 ISZERO PUSH2 0x4DD JUMPI DUP1 PUSH1 0x1F LT PUSH2 0x4B2 JUMPI PUSH2 0x100 DUP1 DUP4 SLOAD DIV MUL DUP4 MSTORE SWAP2 PUSH1 0x20 ADD SWAP2 PUSH2 0x4DD JUMP JUMPDEST DUP3 ADD SWAP2 SWAP1 PUSH1 0x0 MSTORE PUSH1 0x20 PUSH1 0x0 KECCAK256 SWAP1 JUMPDEST DUP2 SLOAD DUP2 MSTORE SWAP1 PUSH1 0x1 ADD SWAP1 PUSH1 0x20 ADD DUP1 DUP4 GT PUSH2 0x4C0 JUMPI DUP3 SWAP1 SUB PUSH1 0x1F AND DUP3 ADD SWAP2 JUMPDEST POP POP POP POP POP SWAP1 DUP1 PUSH1 0x2 ADD DUP1 SLOAD PUSH2 0x4F2 SWAP1 PUSH2 0xADF JUMP JUMPDEST DUP1 PUSH1 0x1F ADD PUSH1 0x20 DUP1 SWAP2 DIV MUL PUSH1 0x20 ADD PUSH1 0x40 MLOAD SWAP1 DUP2 ADD PUSH1 0x40 MSTORE DUP1 SWAP3 SWAP2 SWAP1 DUP2 DUP2 MSTORE PUSH1 0x20 ADD DUP3 DUP1 SLOAD PUSH2 0x51E SWAP1 PUSH2 0xADF JUMP JUMPDEST DUP1 ISZERO PUSH2 0x56B JUMPI DUP1 PUSH1 0x1F LT PUSH2 0x540 JUMPI PUSH2 0x100 DUP1 DUP4 SLOAD DIV MUL DUP4 MSTORE SWAP2 PUSH1 0x20 ADD SWAP2 PUSH2 0x56B JUMP JUMPDEST DUP3 ADD SWAP2 SWAP1 PUSH1 0x0 MSTORE PUSH1 0x20 PUSH1 0x0 KECCAK256 SWAP1 JUMPDEST DUP2 SLOAD DUP2 MSTORE SWAP1 PUSH1 0x1 ADD SWAP1 PUSH1 0x20 ADD DUP1 DUP4 GT PUSH2 0x54E JUMPI DUP3 SWAP1 SUB PUSH1 0x1F AND DUP3 ADD SWAP2 JUMPDEST POP POP POP POP POP SWAP1 DUP1 PUSH1 0x3 ADD PUSH1 0x0 SWAP1 SLOAD SWAP1 PUSH2 0x100 EXP SWAP1 DIV PUSH1 0xFF AND SWAP1 DUP1 PUSH1 0x4 ADD SLOAD SWAP1 POP DUP6 JUMP JUMPDEST PUSH1 0x40 MLOAD DUP1 PUSH1 0xA0 ADD PUSH1 0x40 MSTORE DUP1 PUSH1 0x0 DUP2 MSTORE PUSH1 0x20 ADD PUSH1 0x60 DUP2 MSTORE PUSH1 0x20 ADD PUSH1 0x60 DUP2 MSTORE PUSH1 0x20 ADD PUSH1 0x0 ISZERO ISZERO DUP2 MSTORE PUSH1 0x20 ADD PUSH1 0x0 DUP2 MSTORE POP SWAP1 JUMP JUMPDEST DUP3 DUP1 SLOAD PUSH2 0x5CB SWAP1 PUSH2 0xADF JUMP JUMPDEST SWAP1 PUSH1 0x0 MSTORE PUSH1 0x20 PUSH1 0x0 KECCAK256 SWAP1 PUSH1 0x1F ADD PUSH1 0x20 SWAP1 DIV DUP2 ADD SWAP3 DUP3 PUSH2 0x5ED JUMPI PUSH1 0x0 DUP6 SSTORE PUSH2 0x634 JUMP JUMPDEST DUP3 PUSH1 0x1F LT PUSH2 0x606 JUMPI DUP1 MLOAD PUSH1 0xFF NOT AND DUP4 DUP1 ADD OR DUP6 SSTORE PUSH2 0x634 JUMP JUMPDEST DUP3 DUP1 ADD PUSH1 0x1 ADD DUP6 SSTORE DUP3 ISZERO PUSH2 0x634 JUMPI SWAP2 DUP3 ADD JUMPDEST DUP3 DUP2 GT ISZERO PUSH2 0x633 JUMPI DUP3 MLOAD DUP3 SSTORE SWAP2 PUSH1 0x20 ADD SWAP2 SWAP1 PUSH1 0x1 ADD SWAP1 PUSH2 0x618 JUMP JUMPDEST JUMPDEST POP SWAP1 POP PUSH2 0x641 SWAP2 SWAP1 PUSH2 0x645 JUMP JUMPDEST POP SWAP1 JUMP JUMPDEST JUMPDEST DUP1 DUP3 GT ISZERO PUSH2 0x65E JUMPI PUSH1 0x0 DUP2 PUSH1 0x0 SWAP1 SSTORE POP PUSH1 0x1 ADD PUSH2 0x646 JUMP JUMPDEST POP SWAP1 JUMP JUMPDEST PUSH1 0x0 PUSH2 0x675 PUSH2 0x670 DUP5 PUSH2 0x9F6 JUMP JUMPDEST PUSH2 0x9C5 JUMP JUMPDEST SWAP1 POP DUP3 DUP2 MSTORE PUSH1 0x20 DUP2 ADD DUP5 DUP5 DUP5 ADD GT ISZERO PUSH2 0x68D JUMPI PUSH1 0x0 DUP1 REVERT JUMPDEST PUSH2 0x698 DUP5 DUP3 DUP6 PUSH2 0xA9D JUMP JUMPDEST POP SWAP4 SWAP3 POP POP POP JUMP JUMPDEST PUSH1 0x0 DUP2 CALLDATALOAD SWAP1 POP PUSH2 0x6AF DUP2 PUSH2 0xBF8 JUMP JUMPDEST SWAP3 SWAP2 POP POP JUMP JUMPDEST PUSH1 0x0 DUP3 PUSH1 0x1F DUP4 ADD SLT PUSH2 0x6C6 JUMPI PUSH1 0x0 DUP1 REVERT JUMPDEST DUP2 CALLDATALOAD PUSH2 0x6D6 DUP5 DUP3 PUSH1 0x20 DUP7 ADD PUSH2 0x662 JUMP JUMPDEST SWAP2 POP POP SWAP3 SWAP2 POP POP JUMP JUMPDEST PUSH1 0x0 DUP2 CALLDATALOAD SWAP1 POP PUSH2 0x6EE DUP2 PUSH2 0xC0F JUMP JUMPDEST SWAP3 SWAP2 POP POP JUMP JUMPDEST PUSH1 0x0 DUP1 PUSH1 0x0 PUSH1 0x60 DUP5 DUP7 SUB SLT ISZERO PUSH2 0x709 JUMPI PUSH1 0x0 DUP1 REVERT JUMPDEST PUSH1 0x0 DUP5 ADD CALLDATALOAD PUSH8 0xFFFFFFFFFFFFFFFF DUP2 GT ISZERO PUSH2 0x723 JUMPI PUSH1 0x0 DUP1 REVERT JUMPDEST PUSH2 0x72F DUP7 DUP3 DUP8 ADD PUSH2 0x6B5 JUMP JUMPDEST SWAP4 POP POP PUSH1 0x20 DUP5 ADD CALLDATALOAD PUSH8 0xFFFFFFFFFFFFFFFF DUP2 GT ISZERO PUSH2 0x74C JUMPI PUSH1 0x0 DUP1 REVERT JUMPDEST PUSH2 0x758 DUP7 DUP3 DUP8 ADD PUSH2 0x6B5 JUMP JUMPDEST SWAP3 POP POP PUSH1 0x40 PUSH2 0x769 DUP7 DUP3 DUP8 ADD PUSH2 0x6A0 JUMP JUMPDEST SWAP2 POP POP SWAP3 POP SWAP3 POP SWAP3 JUMP JUMPDEST PUSH1 0x0 PUSH1 0x20 DUP3 DUP5 SUB SLT ISZERO PUSH2 0x785 JUMPI PUSH1 0x0 DUP1 REVERT JUMPDEST PUSH1 0x0 PUSH2 0x793 DUP5 DUP3 DUP6 ADD PUSH2 0x6DF JUMP JUMPDEST SWAP2 POP POP SWAP3 SWAP2 POP POP JUMP JUMPDEST PUSH2 0x7A5 DUP2 PUSH2 0xA87 JUMP JUMPDEST DUP3 MSTORE POP POP JUMP JUMPDEST PUSH2 0x7B4 DUP2 PUSH2 0xA87 JUMP JUMPDEST DUP3 MSTORE POP POP JUMP JUMPDEST PUSH1 0x0 PUSH2 0x7C5 DUP3 PUSH2 0xA26 JUMP JUMPDEST PUSH2 0x7CF DUP2 DUP6 PUSH2 0xA31 JUMP JUMPDEST SWAP4 POP PUSH2 0x7DF DUP2 DUP6 PUSH1 0x20 DUP7 ADD PUSH2 0xAAC JUMP JUMPDEST PUSH2 0x7E8 DUP2 PUSH2 0xBE7 JUMP JUMPDEST DUP5 ADD SWAP2 POP POP SWAP3 SWAP2 POP POP JUMP JUMPDEST PUSH1 0x0 PUSH2 0x7FE DUP3 PUSH2 0xA26 JUMP JUMPDEST PUSH2 0x808 DUP2 DUP6 PUSH2 0xA42 JUMP JUMPDEST SWAP4 POP PUSH2 0x818 DUP2 DUP6 PUSH1 0x20 DUP7 ADD PUSH2 0xAAC JUMP JUMPDEST PUSH2 0x821 DUP2 PUSH2 0xBE7 JUMP JUMPDEST DUP5 ADD SWAP2 POP POP SWAP3 SWAP2 POP POP JUMP JUMPDEST PUSH1 0x0 PUSH2 0x839 PUSH1 0x12 DUP4 PUSH2 0xA42 JUMP JUMPDEST SWAP2 POP PUSH32 0x4C6F6720646F6573206E6F742065786973740000000000000000000000000000 PUSH1 0x0 DUP4 ADD MSTORE PUSH1 0x20 DUP3 ADD SWAP1 POP SWAP2 SWAP1 POP JUMP JUMPDEST PUSH1 0x0 PUSH1 0xA0 DUP4 ADD PUSH1 0x0 DUP4 ADD MLOAD PUSH2 0x884 PUSH1 0x0 DUP7 ADD DUP3 PUSH2 0x8E9 JUMP JUMPDEST POP PUSH1 0x20 DUP4 ADD MLOAD DUP5 DUP3 SUB PUSH1 0x20 DUP7 ADD MSTORE PUSH2 0x89C DUP3 DUP3 PUSH2 0x7BA JUMP JUMPDEST SWAP2 POP POP PUSH1 0x40 DUP4 ADD MLOAD DUP5 DUP3 SUB PUSH1 0x40 DUP7 ADD MSTORE PUSH2 0x8B6 DUP3 DUP3 PUSH2 0x7BA JUMP JUMPDEST SWAP2 POP POP PUSH1 0x60 DUP4 ADD MLOAD PUSH2 0x8CB PUSH1 0x60 DUP7 ADD DUP3 PUSH2 0x79C JUMP JUMPDEST POP PUSH1 0x80 DUP4 ADD MLOAD PUSH2 0x8DE PUSH1 0x80 DUP7 ADD DUP3 PUSH2 0x8E9 JUMP JUMPDEST POP DUP1 SWAP2 POP POP SWAP3 SWAP2 POP POP JUMP JUMPDEST PUSH2 0x8F2 DUP2 PUSH2 0xA93 JUMP JUMPDEST DUP3 MSTORE POP POP JUMP JUMPDEST PUSH2 0x901 DUP2 PUSH2 0xA93 JUMP JUMPDEST DUP3 MSTORE POP POP JUMP JUMPDEST PUSH1 0x0 PUSH1 0x20 DUP3 ADD SWAP1 POP DUP2 DUP2 SUB PUSH1 0x0 DUP4 ADD MSTORE PUSH2 0x920 DUP2 PUSH2 0x82C JUMP JUMPDEST SWAP1 POP SWAP2 SWAP1 POP JUMP JUMPDEST PUSH1 0x0 PUSH1 0x20 DUP3 ADD SWAP1 POP DUP2 DUP2 SUB PUSH1 0x0 DUP4 ADD MSTORE PUSH2 0x941 DUP2 DUP5 PUSH2 0x86C JUMP JUMPDEST SWAP1 POP SWAP3 SWAP2 POP POP JUMP JUMPDEST PUSH1 0x0 PUSH1 0x20 DUP3 ADD SWAP1 POP PUSH2 0x95E PUSH1 0x0 DUP4 ADD DUP5 PUSH2 0x8F8 JUMP JUMPDEST SWAP3 SWAP2 POP POP JUMP JUMPDEST PUSH1 0x0 PUSH1 0xA0 DUP3 ADD SWAP1 POP PUSH2 0x979 PUSH1 0x0 DUP4 ADD DUP9 PUSH2 0x8F8 JUMP JUMPDEST DUP2 DUP2 SUB PUSH1 0x20 DUP4 ADD MSTORE PUSH2 0x98B DUP2 DUP8 PUSH2 0x7F3 JUMP JUMPDEST SWAP1 POP DUP2 DUP2 SUB PUSH1 0x40 DUP4 ADD MSTORE PUSH2 0x99F DUP2 DUP7 PUSH2 0x7F3 JUMP JUMPDEST SWAP1 POP PUSH2 0x9AE PUSH1 0x60 DUP4 ADD DUP6 PUSH2 0x7AB JUMP JUMPDEST PUSH2 0x9BB PUSH1 0x80 DUP4 ADD DUP5 PUSH2 0x8F8 JUMP JUMPDEST SWAP7 SWAP6 POP POP POP POP POP POP JUMP JUMPDEST PUSH1 0x0 PUSH1 0x40 MLOAD SWAP1 POP DUP2 DUP2 ADD DUP2 DUP2 LT PUSH8 0xFFFFFFFFFFFFFFFF DUP3 GT OR ISZERO PUSH2 0x9EC JUMPI PUSH2 0x9EB PUSH2 0xBB8 JUMP JUMPDEST JUMPDEST DUP1 PUSH1 0x40 MSTORE POP SWAP2 SWAP1 POP JUMP JUMPDEST PUSH1 0x0 PUSH8 0xFFFFFFFFFFFFFFFF DUP3 GT ISZERO PUSH2 0xA11 JUMPI PUSH2 0xA10 PUSH2 0xBB8 JUMP JUMPDEST JUMPDEST PUSH1 0x1F NOT PUSH1 0x1F DUP4 ADD AND SWAP1 POP PUSH1 0x20 DUP2 ADD SWAP1 POP SWAP2 SWAP1 POP JUMP JUMPDEST PUSH1 0x0 DUP2 MLOAD SWAP1 POP SWAP2 SWAP1 POP JUMP JUMPDEST PUSH1 0x0 DUP3 DUP3 MSTORE PUSH1 0x20 DUP3 ADD SWAP1 POP SWAP3 SWAP2 POP POP JUMP JUMPDEST PUSH1 0x0 DUP3 DUP3 MSTORE PUSH1 0x20 DUP3 ADD SWAP1 POP SWAP3 SWAP2 POP POP JUMP JUMPDEST PUSH1 0x0 PUSH2 0xA5E DUP3 PUSH2 0xA93 JUMP JUMPDEST SWAP2 POP PUSH2 0xA69 DUP4 PUSH2 0xA93 JUMP JUMPDEST SWAP3 POP DUP3 DUP3 LT ISZERO PUSH2 0xA7C JUMPI PUSH2 0xA7B PUSH2 0xB5A JUMP JUMPDEST JUMPDEST DUP3 DUP3 SUB SWAP1 POP SWAP3 SWAP2 POP POP JUMP JUMPDEST PUSH1 0x0 DUP2 ISZERO ISZERO SWAP1 POP SWAP2 SWAP1 POP JUMP JUMPDEST PUSH1 0x0 DUP2 SWAP1 POP SWAP2 SWAP1 POP JUMP JUMPDEST DUP3 DUP2 DUP4 CALLDATACOPY PUSH1 0x0 DUP4 DUP4 ADD MSTORE POP POP POP JUMP JUMPDEST PUSH1 0x0 JUMPDEST DUP4 DUP2 LT ISZERO PUSH2 0xACA JUMPI DUP1 DUP3 ADD MLOAD DUP2 DUP5 ADD MSTORE PUSH1 0x20 DUP2 ADD SWAP1 POP PUSH2 0xAAF JUMP JUMPDEST DUP4 DUP2 GT ISZERO PUSH2 0xAD9 JUMPI PUSH1 0x0 DUP5 DUP5 ADD MSTORE JUMPDEST POP POP POP POP JUMP JUMPDEST PUSH1 0x0 PUSH1 0x2 DUP3 DIV SWAP1 POP PUSH1 0x1 DUP3 AND DUP1 PUSH2 0xAF7 JUMPI PUSH1 0x7F DUP3 AND SWAP2 POP JUMPDEST PUSH1 0x20 DUP3 LT DUP2 EQ ISZERO PUSH2 0xB0B JUMPI PUSH2 0xB0A PUSH2 0xB89 JUMP JUMPDEST JUMPDEST POP SWAP2 SWAP1 POP JUMP JUMPDEST PUSH1 0x0 PUSH2 0xB1C DUP3 PUSH2 0xA93 JUMP JUMPDEST SWAP2 POP PUSH32 0xFFFFFFFFFFFFFFFFFFFFFFFFFFFFFFFFFFFFFFFFFFFFFFFFFFFFFFFFFFFFFFFF DUP3 EQ ISZERO PUSH2 0xB4F JUMPI PUSH2 0xB4E PUSH2 0xB5A JUMP JUMPDEST JUMPDEST PUSH1 0x1 DUP3 ADD SWAP1 POP SWAP2 SWAP1 POP JUMP JUMPDEST PUSH32 0x4E487B7100000000000000000000000000000000000000000000000000000000 PUSH1 0x0 MSTORE PUSH1 0x11 PUSH1 0x4 MSTORE PUSH1 0x24 PUSH1 0x0 REVERT JUMPDEST PUSH32 0x4E487B7100000000000000000000000000000000000000000000000000000000 PUSH1 0x0 MSTORE PUSH1 0x22 PUSH1 0x4 MSTORE PUSH1 0x24 PUSH1 0x0 REVERT JUMPDEST PUSH32 0x4E487B7100000000000000000000000000000000000000000000000000000000 PUSH1 0x0 MSTORE PUSH1 0x41 PUSH1 0x4 MSTORE PUSH1 0x24 PUSH1 0x0 REVERT JUMPDEST PUSH1 0x0 PUSH1 0x1F NOT PUSH1 0x1F DUP4 ADD AND SWAP1 POP SWAP2 SWAP1 POP JUMP JUMPDEST PUSH2 0xC01 DUP2 PUSH2 0xA87 JUMP JUMPDEST DUP2 EQ PUSH2 0xC0C JUMPI PUSH1 0x0 DUP1 REVERT JUMPDEST POP JUMP JUMPDEST PUSH2 0xC18 DUP2 PUSH2 0xA93 JUMP JUMPDEST DUP2 EQ PUSH2 0xC23 JUMPI PUSH1 0x0 DUP1 REVERT JUMPDEST POP JUMP INVALID LOG2 PUSH5 0x6970667358 0x22 SLT KECCAK256 PUSH31 0x25C92D27843F2470119FB91693FD57FE22EF3872C4E0F14E7EAF85EEC9F266 PUSH5 0x736F6C6343 STOP ADDMOD STOP STOP CALLER "
	},
	"Assembly": ".code\n  PUSH 80\t\t\tcontract PredictiveMaintenance...\n  PUSH 40\t\t\tcontract PredictiveMaintenance...\n  MSTORE \t\t\tcontract PredictiveMaintenance...\n  CALLVALUE \t\t\tcontract PredictiveMaintenance...\n  DUP1 \t\t\tcontract PredictiveMaintenance...\n  ISZERO \t\t\tcontract PredictiveMaintenance...\n  PUSH [tag] 1\t\t\tcontract PredictiveMaintenance...\n  JUMPI \t\t\tcontract PredictiveMaintenance...\n  PUSH 0\t\t\tcontract PredictiveMaintenance...\n  DUP1 \t\t\tcontract PredictiveMaintenance...\n  REVERT \t\t\tcontract PredictiveMaintenance...\ntag 1\t\t\tcontract PredictiveMaintenance...\n  JUMPDEST \t\t\tcontract PredictiveMaintenance...\n  POP \t\t\tcontract PredictiveMaintenance...\n  PUSH #[$] 0000000000000000000000000000000000000000000000000000000000000000\t\t\tcontract PredictiveMaintenance...\n  DUP1 \t\t\tcontract PredictiveMaintenance...\n  PUSH [$] 0000000000000000000000000000000000000000000000000000000000000000\t\t\tcontract PredictiveMaintenance...\n  PUSH 0\t\t\tcontract PredictiveMaintenance...\n  CODECOPY \t\t\tcontract PredictiveMaintenance...\n  PUSH 0\t\t\tcontract PredictiveMaintenance...\n  RETURN \t\t\tcontract PredictiveMaintenance...\n.data\n  0:\n    .code\n      PUSH 80\t\t\tcontract PredictiveMaintenance...\n      PUSH 40\t\t\tcontract PredictiveMaintenance...\n      MSTORE \t\t\tcontract PredictiveMaintenance...\n      CALLVALUE \t\t\tcontract PredictiveMaintenance...\n      DUP1 \t\t\tcontract PredictiveMaintenance...\n      ISZERO \t\t\tcontract PredictiveMaintenance...\n      PUSH [tag] 1\t\t\tcontract PredictiveMaintenance...\n      JUMPI \t\t\tcontract PredictiveMaintenance...\n      PUSH 0\t\t\tcontract PredictiveMaintenance...\n      DUP1 \t\t\tcontract PredictiveMaintenance...\n      REVERT \t\t\tcontract PredictiveMaintenance...\n    tag 1\t\t\tcontract PredictiveMaintenance...\n      JUMPDEST \t\t\tcontract PredictiveMaintenance...\n      POP \t\t\tcontract PredictiveMaintenance...\n      PUSH 4\t\t\tcontract PredictiveMaintenance...\n      CALLDATASIZE \t\t\tcontract PredictiveMaintenance...\n      LT \t\t\tcontract PredictiveMaintenance...\n      PUSH [tag] 2\t\t\tcontract PredictiveMaintenance...\n      JUMPI \t\t\tcontract PredictiveMaintenance...\n      PUSH 0\t\t\tcontract PredictiveMaintenance...\n      CALLDATALOAD \t\t\tcontract PredictiveMaintenance...\n      PUSH E0\t\t\tcontract PredictiveMaintenance...\n      SHR \t\t\tcontract PredictiveMaintenance...\n      DUP1 \t\t\tcontract PredictiveMaintenance...\n      PUSH A503898F\t\t\tcontract PredictiveMaintenance...\n      EQ \t\t\tcontract PredictiveMaintenance...\n      PUSH [tag] 3\t\t\tcontract PredictiveMaintenance...\n      JUMPI \t\t\tcontract PredictiveMaintenance...\n      DUP1 \t\t\tcontract PredictiveMaintenance...\n      PUSH C9BE7B55\t\t\tcontract PredictiveMaintenance...\n      EQ \t\t\tcontract PredictiveMaintenance...\n      PUSH [tag] 4\t\t\tcontract PredictiveMaintenance...\n      JUMPI \t\t\tcontract PredictiveMaintenance...\n      DUP1 \t\t\tcontract PredictiveMaintenance...\n      PUSH DF49749D\t\t\tcontract PredictiveMaintenance...\n      EQ \t\t\tcontract PredictiveMaintenance...\n      PUSH [tag] 5\t\t\tcontract PredictiveMaintenance...\n      JUMPI \t\t\tcontract PredictiveMaintenance...\n      DUP1 \t\t\tcontract PredictiveMaintenance...\n      PUSH E79899BD\t\t\tcontract PredictiveMaintenance...\n      EQ \t\t\tcontract PredictiveMaintenance...\n      PUSH [tag] 6\t\t\tcontract PredictiveMaintenance...\n      JUMPI \t\t\tcontract PredictiveMaintenance...\n    tag 2\t\t\tcontract PredictiveMaintenance...\n      JUMPDEST \t\t\tcontract PredictiveMaintenance...\n      PUSH 0\t\t\tcontract PredictiveMaintenance...\n      DUP1 \t\t\tcontract PredictiveMaintenance...\n      REVERT \t\t\tcontract PredictiveMaintenance...\n    tag 3\t\t\tuint public logCount\n      JUMPDEST \t\t\tuint public logCount\n      PUSH [tag] 7\t\t\tuint public logCount\n      PUSH [tag] 8\t\t\tuint public logCount\n      JUMP [in]\t\t\tuint public logCount\n    tag 7\t\t\tuint public logCount\n      JUMPDEST \t\t\tuint public logCount\n      PUSH 40\t\t\tuint public logCount\n      MLOAD \t\t\tuint public logCount\n      PUSH [tag] 9\t\t\tuint public logCount\n      SWAP2 \t\t\tuint public logCount\n      SWAP1 \t\t\tuint public logCount\n      PUSH [tag] 10\t\t\tuint public logCount\n      JUMP [in]\t\t\tuint public logCount\n    tag 9\t\t\tuint public logCount\n      JUMPDEST \t\t\tuint public logCount\n      PUSH 40\t\t\tuint public logCount\n      MLOAD \t\t\tuint public logCount\n      DUP1 \t\t\tuint public logCount\n      SWAP2 \t\t\tuint public logCount\n      SUB \t\t\tuint public logCount\n      SWAP1 \t\t\tuint public logCount\n      RETURN \t\t\tuint public logCount\n    tag 4\t\t\tfunction getMaintenanceLog(uin...\n      JUMPDEST \t\t\tfunction getMaintenanceLog(uin...\n      PUSH [tag] 11\t\t\tfunction getMaintenanceLog(uin...\n      PUSH 4\t\t\tfunction getMaintenanceLog(uin...\n      DUP1 \t\t\tfunction getMaintenanceLog(uin...\n      CALLDATASIZE \t\t\tfunction getMaintenanceLog(uin...\n      SUB \t\t\tfunction getMaintenanceLog(uin...\n      DUP2 \t\t\tfunction getMaintenanceLog(uin...\n      ADD \t\t\tfunction getMaintenanceLog(uin...\n      SWAP1 \t\t\tfunction getMaintenanceLog(uin...\n      PUSH [tag] 12\t\t\tfunction getMaintenanceLog(uin...\n      SWAP2 \t\t\tfunction getMaintenanceLog(uin...\n      SWAP1 \t\t\tfunction getMaintenanceLog(uin...\n      PUSH [tag] 13\t\t\tfunction getMaintenanceLog(uin...\n      JUMP [in]\t\t\tfunction getMaintenanceLog(uin...\n    tag 12\t\t\tfunction getMaintenanceLog(uin...\n      JUMPDEST \t\t\tfunction getMaintenanceLog(uin...\n      PUSH [tag] 14\t\t\tfunction getMaintenanceLog(uin...\n      JUMP [in]\t\t\tfunction getMaintenanceLog(uin...\n    tag 11\t\t\tfunction getMaintenanceLog(uin...\n      JUMPDEST \t\t\tfunction getMaintenanceLog(uin...\n      PUSH 40\t\t\tfunction getMaintenanceLog(uin...\n      MLOAD \t\t\tfunction getMaintenanceLog(uin...\n      PUSH [tag] 15\t\t\tfunction getMaintenanceLog(uin...\n      SWAP2 \t\t\tfunction getMaintenanceLog(uin...\n      SWAP1 \t\t\tfunction getMaintenanceLog(uin...\n      PUSH [tag] 16\t\t\tfunction getMaintenanceLog(uin...\n      JUMP [in]\t\t\tfunction getMaintenanceLog(uin...\n    tag 15\t\t\tfunction getMaintenanceLog(uin...\n      JUMPDEST \t\t\tfunction getMaintenanceLog(uin...\n      PUSH 40\t\t\tfunction getMaintenanceLog(uin...\n      MLOAD \t\t\tfunction getMaintenanceLog(uin...\n      DUP1 \t\t\tfunction getMaintenanceLog(uin...\n      SWAP2 \t\t\tfunction getMaintenanceLog(uin...\n      SUB \t\t\tfunction getMaintenanceLog(uin...\n      SWAP1 \t\t\tfunction getMaintenanceLog(uin...\n      RETURN \t\t\tfunction getMaintenanceLog(uin...\n    tag 5\t\t\tfunction logMaintenance(string...\n      JUMPDEST \t\t\tfunction logMaintenance(string...\n      PUSH [tag] 17\t\t\tfunction logMaintenance(string...\n      PUSH 4\t\t\tfunction logMaintenance(string...\n      DUP1 \t\t\tfunction logMaintenance(string...\n      CALLDATASIZE \t\t\tfunction logMaintenance(string...\n      SUB \t\t\tfunction logMaintenance(string...\n      DUP2 \t\t\tfunction logMaintenance(string...\n      ADD \t\t\tfunction logMaintenance(string...\n      SWAP1 \t\t\tfunction logMaintenance(string...\n      PUSH [tag] 18\t\t\tfunction logMaintenance(string...\n      SWAP2 \t\t\tfunction logMaintenance(string...\n      SWAP1 \t\t\tfunction logMaintenance(string...\n      PUSH [tag] 19\t\t\tfunction logMaintenance(string...\n      JUMP [in]\t\t\tfunction logMaintenance(string...\n    tag 18\t\t\tfunction logMaintenance(string...\n      JUMPDEST \t\t\tfunction logMaintenance(string...\n      PUSH [tag] 20\t\t\tfunction logMaintenance(string...\n      JUMP [in]\t\t\tfunction logMaintenance(string...\n    tag 17\t\t\tfunction logMaintenance(string...\n      JUMPDEST \t\t\tfunction logMaintenance(string...\n      STOP \t\t\tfunction logMaintenance(string...\n    tag 6\t\t\tMaintenanceLog[] public logs\n      JUMPDEST \t\t\tMaintenanceLog[] public logs\n      PUSH [tag] 21\t\t\tMaintenanceLog[] public logs\n      PUSH 4\t\t\tMaintenanceLog[] public logs\n      DUP1 \t\t\tMaintenanceLog[] public logs\n      CALLDATASIZE \t\t\tMaintenanceLog[] public logs\n      SUB \t\t\tMaintenanceLog[] public logs\n      DUP2 \t\t\tMaintenanceLog[] public logs\n      ADD \t\t\tMaintenanceLog[] public logs\n      SWAP1 \t\t\tMaintenanceLog[] public logs\n      PUSH [tag] 22\t\t\tMaintenanceLog[] public logs\n      SWAP2 \t\t\tMaintenanceLog[] public logs\n      SWAP1 \t\t\tMaintenanceLog[] public logs\n      PUSH [tag] 13\t\t\tMaintenanceLog[] public logs\n      JUMP [in]\t\t\tMaintenanceLog[] public logs\n    tag 22\t\t\tMaintenanceLog[] public logs\n      JUMPDEST \t\t\tMaintenanceLog[] public logs\n      PUSH [tag] 23\t\t\tMaintenanceLog[] public logs\n      JUMP [in]\t\t\tMaintenanceLog[] public logs\n    tag 21\t\t\tMaintenanceLog[] public logs\n      JUMPDEST \t\t\tMaintenanceLog[] public logs\n      PUSH 40\t\t\tMaintenanceLog[] public logs\n      MLOAD \t\t\tMaintenanceLog[] public logs\n      PUSH [tag] 24\t\t\tMaintenanceLog[] public logs\n      SWAP6 \t\t\tMaintenanceLog[] public logs\n      SWAP5 \t\t\tMaintenanceLog[] public logs\n      SWAP4 \t\t\tMaintenanceLog[] public logs\n      SWAP3 \t\t\tMaintenanceLog[] public logs\n      SWAP2 \t\t\tMaintenanceLog[] public logs\n      SWAP1 \t\t\tMaintenanceLog[] public logs\n      PUSH [tag] 25\t\t\tMaintenanceLog[] public logs\n      JUMP [in]\t\t\tMaintenanceLog[] public logs\n    tag 24\t\t\tMaintenanceLog[] public logs\n      JUMPDEST \t\t\tMaintenanceLog[] public logs\n      PUSH 40\t\t\tMaintenanceLog[] public logs\n      MLOAD \t\t\tMaintenanceLog[] public logs\n      DUP1 \t\t\tMaintenanceLog[] public logs\n      SWAP2 \t\t\tMaintenanceLog[] public logs\n      SUB \t\t\tMaintenanceLog[] public logs\n      SWAP1 \t\t\tMaintenanceLog[] public logs\n      RETURN \t\t\tMaintenanceLog[] public logs\n    tag 8\t\t\tuint public logCount\n      JUMPDEST \t\t\tuint public logCount\n      PUSH 1\t\t\tuint public logCount\n      SLOAD \t\t\tuint public logCount\n      DUP2 \t\t\tuint public logCount\n      JUMP [out]\t\t\tuint public logCount\n    tag 14\t\t\tfunction getMaintenanceLog(uin...\n      JUMPDEST \t\t\tfunction getMaintenanceLog(uin...\n      PUSH [tag] 26\t\t\tMaintenanceLog memory\n      PUSH [tag] 27\t\t\tMaintenanceLog memory\n      JUMP [in]\t\t\tMaintenanceLog memory\n    tag 26\t\t\tMaintenanceLog memory\n      JUMPDEST \t\t\tMaintenanceLog memory\n      PUSH 0\t\t\t0\n      DUP3 \t\t\t_id\n      GT \t\t\t_id > 0\n      DUP1 \t\t\t_id > 0 && _id <= logCount\n      ISZERO \t\t\t_id > 0 && _id <= logCount\n      PUSH [tag] 29\t\t\t_id > 0 && _id <= logCount\n      JUMPI \t\t\t_id > 0 && _id <= logCount\n      POP \t\t\t_id > 0 && _id <= logCount\n      PUSH 1\t\t\tlogCount\n      SLOAD \t\t\tlogCount\n      DUP3 \t\t\t_id\n      GT \t\t\t_id <= logCount\n      ISZERO \t\t\t_id <= logCount\n    tag 29\t\t\t_id > 0 && _id <= logCount\n      JUMPDEST \t\t\t_id > 0 && _id <= logCount\n      PUSH [tag] 30\t\t\trequire(_id > 0 && _id <= logC...\n      JUMPI \t\t\trequire(_id > 0 && _id <= logC...\n      PUSH 40\t\t\trequire(_id > 0 && _id <= logC...\n      MLOAD \t\t\trequire(_id > 0 && _id <= logC...\n      PUSH 8C379A000000000000000000000000000000000000000000000000000000000\t\t\trequire(_id > 0 && _id <= logC...\n      DUP2 \t\t\trequire(_id > 0 && _id <= logC...\n      MSTORE \t\t\trequire(_id > 0 && _id <= logC...\n      PUSH 4\t\t\trequire(_id > 0 && _id <= logC...\n      ADD \t\t\trequire(_id > 0 && _id <= logC...\n      PUSH [tag] 31\t\t\trequire(_id > 0 && _id <= logC...\n      SWAP1 \t\t\trequire(_id > 0 && _id <= logC...\n      PUSH [tag] 32\t\t\trequire(_id > 0 && _id <= logC...\n      JUMP [in]\t\t\trequire(_id > 0 && _id <= logC...\n    tag 31\t\t\trequire(_id > 0 && _id <= logC...\n      JUMPDEST \t\t\trequire(_id > 0 && _id <= logC...\n      PUSH 40\t\t\trequire(_id > 0 && _id <= logC...\n      MLOAD \t\t\trequire(_id > 0 && _id <= logC...\n      DUP1 \t\t\trequire(_id > 0 && _id <= logC...\n      SWAP2 \t\t\trequire(_id > 0 && _id <= logC...\n      SUB \t\t\trequire(_id > 0 && _id <= logC...\n      SWAP1 \t\t\trequire(_id > 0 && _id <= logC...\n      REVERT \t\t\trequire(_id > 0 && _id <= logC...\n    tag 30\t\t\trequire(_id > 0 && _id <= logC...\n      JUMPDEST \t\t\trequire(_id > 0 && _id <= logC...\n      PUSH 0\t\t\tlogs\n      PUSH 1\t\t\t1\n      DUP4 \t\t\t_id\n      PUSH [tag] 33\t\t\t_id - 1\n      SWAP2 \t\t\t_id - 1\n      SWAP1 \t\t\t_id - 1\n      PUSH [tag] 34\t\t\t_id - 1\n      JUMP [in]\t\t\t_id - 1\n    tag 33\t\t\t_id - 1\n      JUMPDEST \t\t\t_id - 1\n      DUP2 \t\t\tlogs[_id - 1]\n      SLOAD \t\t\tlogs[_id - 1]\n      DUP2 \t\t\tlogs[_id - 1]\n      LT \t\t\tlogs[_id - 1]\n      PUSH [tag] 35\t\t\tlogs[_id - 1]\n      JUMPI \t\t\tlogs[_id - 1]\n      PUSH 4E487B7100000000000000000000000000000000000000000000000000000000\t\t\tlogs[_id - 1]\n      PUSH 0\t\t\tlogs[_id - 1]\n      MSTORE \t\t\tlogs[_id - 1]\n      PUSH 32\t\t\tlogs[_id - 1]\n      PUSH 4\t\t\tlogs[_id - 1]\n      MSTORE \t\t\tlogs[_id - 1]\n      PUSH 24\t\t\tlogs[_id - 1]\n      PUSH 0\t\t\tlogs[_id - 1]\n      REVERT \t\t\tlogs[_id - 1]\n    tag 35\t\t\tlogs[_id - 1]\n      JUMPDEST \t\t\tlogs[_id - 1]\n      SWAP1 \t\t\tlogs[_id - 1]\n      PUSH 0\t\t\tlogs[_id - 1]\n      MSTORE \t\t\tlogs[_id - 1]\n      PUSH 20\t\t\tlogs[_id - 1]\n      PUSH 0\t\t\tlogs[_id - 1]\n      KECCAK256 \t\t\tlogs[_id - 1]\n      SWAP1 \t\t\tlogs[_id - 1]\n      PUSH 5\t\t\tlogs[_id - 1]\n      MUL \t\t\tlogs[_id - 1]\n      ADD \t\t\tlogs[_id - 1]\n      PUSH 40\t\t\treturn logs[_id - 1]\n      MLOAD \t\t\treturn logs[_id - 1]\n      DUP1 \t\t\treturn logs[_id - 1]\n      PUSH A0\t\t\treturn logs[_id - 1]\n      ADD \t\t\treturn logs[_id - 1]\n      PUSH 40\t\t\treturn logs[_id - 1]\n      MSTORE \t\t\treturn logs[_id - 1]\n      SWAP1 \t\t\treturn logs[_id - 1]\n      DUP2 \t\t\treturn logs[_id - 1]\n      PUSH 0\t\t\treturn logs[_id - 1]\n      DUP3 \t\t\treturn logs[_id - 1]\n      ADD \t\t\treturn logs[_id - 1]\n      SLOAD \t\t\treturn logs[_id - 1]\n      DUP2 \t\t\treturn logs[_id - 1]\n      MSTORE \t\t\treturn logs[_id - 1]\n      PUSH 20\t\t\treturn logs[_id - 1]\n      ADD \t\t\treturn logs[_id - 1]\n      PUSH 1\t\t\treturn logs[_id - 1]\n      DUP3 \t\t\treturn logs[_id - 1]\n      ADD \t\t\treturn logs[_id - 1]\n      DUP1 \t\t\treturn logs[_id - 1]\n      SLOAD \t\t\treturn logs[_id - 1]\n      PUSH [tag] 37\t\t\treturn logs[_id - 1]\n      SWAP1 \t\t\treturn logs[_id - 1]\n      PUSH [tag] 38\t\t\treturn logs[_id - 1]\n      JUMP [in]\t\t\treturn logs[_id - 1]\n    tag 37\t\t\treturn logs[_id - 1]\n      JUMPDEST \t\t\treturn logs[_id - 1]\n      DUP1 \t\t\treturn logs[_id - 1]\n      PUSH 1F\t\t\treturn logs[_id - 1]\n      ADD \t\t\treturn logs[_id - 1]\n      PUSH 20\t\t\treturn logs[_id - 1]\n      DUP1 \t\t\treturn logs[_id - 1]\n      SWAP2 \t\t\treturn logs[_id - 1]\n      DIV \t\t\treturn logs[_id - 1]\n      MUL \t\t\treturn logs[_id - 1]\n      PUSH 20\t\t\treturn logs[_id - 1]\n      ADD \t\t\treturn logs[_id - 1]\n      PUSH 40\t\t\treturn logs[_id - 1]\n      MLOAD \t\t\treturn logs[_id - 1]\n      SWAP1 \t\t\treturn logs[_id - 1]\n      DUP2 \t\t\treturn logs[_id - 1]\n      ADD \t\t\treturn logs[_id - 1]\n      PUSH 40\t\t\treturn logs[_id - 1]\n      MSTORE \t\t\treturn logs[_id - 1]\n      DUP1 \t\t\treturn logs[_id - 1]\n      SWAP3 \t\t\treturn logs[_id - 1]\n      SWAP2 \t\t\treturn logs[_id - 1]\n      SWAP1 \t\t\treturn logs[_id - 1]\n      DUP2 \t\t\treturn logs[_id - 1]\n      DUP2 \t\t\treturn logs[_id - 1]\n      MSTORE \t\t\treturn logs[_id - 1]\n      PUSH 20\t\t\treturn logs[_id - 1]\n      ADD \t\t\treturn logs[_id - 1]\n      DUP3 \t\t\treturn logs[_id - 1]\n      DUP1 \t\t\treturn logs[_id - 1]\n      SLOAD \t\t\treturn logs[_id - 1]\n      PUSH [tag] 39\t\t\treturn logs[_id - 1]\n      SWAP1 \t\t\treturn logs[_id - 1]\n      PUSH [tag] 38\t\t\treturn logs[_id - 1]\n      JUMP [in]\t\t\treturn logs[_id - 1]\n    tag 39\t\t\treturn logs[_id - 1]\n      JUMPDEST \t\t\treturn logs[_id - 1]\n      DUP1 \t\t\treturn logs[_id - 1]\n      ISZERO \t\t\treturn logs[_id - 1]\n      PUSH [tag] 40\t\t\treturn logs[_id - 1]\n      JUMPI \t\t\treturn logs[_id - 1]\n      DUP1 \t\t\treturn logs[_id - 1]\n      PUSH 1F\t\t\treturn logs[_id - 1]\n      LT \t\t\treturn logs[_id - 1]\n      PUSH [tag] 41\t\t\treturn logs[_id - 1]\n      JUMPI \t\t\treturn logs[_id - 1]\n      PUSH 100\t\t\treturn logs[_id - 1]\n      DUP1 \t\t\treturn logs[_id - 1]\n      DUP4 \t\t\treturn logs[_id - 1]\n      SLOAD \t\t\treturn logs[_id - 1]\n      DIV \t\t\treturn logs[_id - 1]\n      MUL \t\t\treturn logs[_id - 1]\n      DUP4 \t\t\treturn logs[_id - 1]\n      MSTORE \t\t\treturn logs[_id - 1]\n      SWAP2 \t\t\treturn logs[_id - 1]\n      PUSH 20\t\t\treturn logs[_id - 1]\n      ADD \t\t\treturn logs[_id - 1]\n      SWAP2 \t\t\treturn logs[_id - 1]\n      PUSH [tag] 40\t\t\treturn logs[_id - 1]\n      JUMP \t\t\treturn logs[_id - 1]\n    tag 41\t\t\treturn logs[_id - 1]\n      JUMPDEST \t\t\treturn logs[_id - 1]\n      DUP3 \t\t\treturn logs[_id - 1]\n      ADD \t\t\treturn logs[_id - 1]\n      SWAP2 \t\t\treturn logs[_id - 1]\n      SWAP1 \t\t\treturn logs[_id - 1]\n      PUSH 0\t\t\treturn logs[_id - 1]\n      MSTORE \t\t\treturn logs[_id - 1]\n      PUSH 20\t\t\treturn logs[_id - 1]\n      PUSH 0\t\t\treturn logs[_id - 1]\n      KECCAK256 \t\t\treturn logs[_id - 1]\n      SWAP1 \t\t\treturn logs[_id - 1]\n    tag 42\t\t\treturn logs[_id - 1]\n      JUMPDEST \t\t\treturn logs[_id - 1]\n      DUP2 \t\t\treturn logs[_id - 1]\n      SLOAD \t\t\treturn logs[_id - 1]\n      DUP2 \t\t\treturn logs[_id - 1]\n      MSTORE \t\t\treturn logs[_id - 1]\n      SWAP1 \t\t\treturn logs[_id - 1]\n      PUSH 1\t\t\treturn logs[_id - 1]\n      ADD \t\t\treturn logs[_id - 1]\n      SWAP1 \t\t\treturn logs[_id - 1]\n      PUSH 20\t\t\treturn logs[_id - 1]\n      ADD \t\t\treturn logs[_id - 1]\n      DUP1 \t\t\treturn logs[_id - 1]\n      DUP4 \t\t\treturn logs[_id - 1]\n      GT \t\t\treturn logs[_id - 1]\n      PUSH [tag] 42\t\t\treturn logs[_id - 1]\n      JUMPI \t\t\treturn logs[_id - 1]\n      DUP3 \t\t\treturn logs[_id - 1]\n      SWAP1 \t\t\treturn logs[_id - 1]\n      SUB \t\t\treturn logs[_id - 1]\n      PUSH 1F\t\t\treturn logs[_id - 1]\n      AND \t\t\treturn logs[_id - 1]\n      DUP3 \t\t\treturn logs[_id - 1]\n      ADD \t\t\treturn logs[_id - 1]\n      SWAP2 \t\t\treturn logs[_id - 1]\n    tag 40\t\t\treturn logs[_id - 1]\n      JUMPDEST \t\t\treturn logs[_id - 1]\n      POP \t\t\treturn logs[_id - 1]\n      POP \t\t\treturn logs[_id - 1]\n      POP \t\t\treturn logs[_id - 1]\n      POP \t\t\treturn logs[_id - 1]\n      POP \t\t\treturn logs[_id - 1]\n      DUP2 \t\t\treturn logs[_id - 1]\n      MSTORE \t\t\treturn logs[_id - 1]\n      PUSH 20\t\t\treturn logs[_id - 1]\n      ADD \t\t\treturn logs[_id - 1]\n      PUSH 2\t\t\treturn logs[_id - 1]\n      DUP3 \t\t\treturn logs[_id - 1]\n      ADD \t\t\treturn logs[_id - 1]\n      DUP1 \t\t\treturn logs[_id - 1]\n      SLOAD \t\t\treturn logs[_id - 1]\n      PUSH [tag] 43\t\t\treturn logs[_id - 1]\n      SWAP1 \t\t\treturn logs[_id - 1]\n      PUSH [tag] 38\t\t\treturn logs[_id - 1]\n      JUMP [in]\t\t\treturn logs[_id - 1]\n    tag 43\t\t\treturn logs[_id - 1]\n      JUMPDEST \t\t\treturn logs[_id - 1]\n      DUP1 \t\t\treturn logs[_id - 1]\n      PUSH 1F\t\t\treturn logs[_id - 1]\n      ADD \t\t\treturn logs[_id - 1]\n      PUSH 20\t\t\treturn logs[_id - 1]\n      DUP1 \t\t\treturn logs[_id - 1]\n      SWAP2 \t\t\treturn logs[_id - 1]\n      DIV \t\t\treturn logs[_id - 1]\n      MUL \t\t\treturn logs[_id - 1]\n      PUSH 20\t\t\treturn logs[_id - 1]\n      ADD \t\t\treturn logs[_id - 1]\n      PUSH 40\t\t\treturn logs[_id - 1]\n      MLOAD \t\t\treturn logs[_id - 1]\n      SWAP1 \t\t\treturn logs[_id - 1]\n      DUP2 \t\t\treturn logs[_id - 1]\n      ADD \t\t\treturn logs[_id - 1]\n      PUSH 40\t\t\treturn logs[_id - 1]\n      MSTORE \t\t\treturn logs[_id - 1]\n      DUP1 \t\t\treturn logs[_id - 1]\n      SWAP3 \t\t\treturn logs[_id - 1]\n      SWAP2 \t\t\treturn logs[_id - 1]\n      SWAP1 \t\t\treturn logs[_id - 1]\n      DUP2 \t\t\treturn logs[_id - 1]\n      DUP2 \t\t\treturn logs[_id - 1]\n      MSTORE \t\t\treturn logs[_id - 1]\n      PUSH 20\t\t\treturn logs[_id - 1]\n      ADD \t\t\treturn logs[_id - 1]\n      DUP3 \t\t\treturn logs[_id - 1]\n      DUP1 \t\t\treturn logs[_id - 1]\n      SLOAD \t\t\treturn logs[_id - 1]\n      PUSH [tag] 44\t\t\treturn logs[_id - 1]\n      SWAP1 \t\t\treturn logs[_id - 1]\n      PUSH [tag] 38\t\t\treturn logs[_id - 1]\n      JUMP [in]\t\t\treturn logs[_id - 1]\n    tag 44\t\t\treturn logs[_id - 1]\n      JUMPDEST \t\t\treturn logs[_id - 1]\n      DUP1 \t\t\treturn logs[_id - 1]\n      ISZERO \t\t\treturn logs[_id - 1]\n      PUSH [tag] 45\t\t\treturn logs[_id - 1]\n      JUMPI \t\t\treturn logs[_id - 1]\n      DUP1 \t\t\treturn logs[_id - 1]\n      PUSH 1F\t\t\treturn logs[_id - 1]\n      LT \t\t\treturn logs[_id - 1]\n      PUSH [tag] 46\t\t\treturn logs[_id - 1]\n      JUMPI \t\t\treturn logs[_id - 1]\n      PUSH 100\t\t\treturn logs[_id - 1]\n      DUP1 \t\t\treturn logs[_id - 1]\n      DUP4 \t\t\treturn logs[_id - 1]\n      SLOAD \t\t\treturn logs[_id - 1]\n      DIV \t\t\treturn logs[_id - 1]\n      MUL \t\t\treturn logs[_id - 1]\n      DUP4 \t\t\treturn logs[_id - 1]\n      MSTORE \t\t\treturn logs[_id - 1]\n      SWAP2 \t\t\treturn logs[_id - 1]\n      PUSH 20\t\t\treturn logs[_id - 1]\n      ADD \t\t\treturn logs[_id - 1]\n      SWAP2 \t\t\treturn logs[_id - 1]\n      PUSH [tag] 45\t\t\treturn logs[_id - 1]\n      JUMP \t\t\treturn logs[_id - 1]\n    tag 46\t\t\treturn logs[_id - 1]\n      JUMPDEST \t\t\treturn logs[_id - 1]\n      DUP3 \t\t\treturn logs[_id - 1]\n      ADD \t\t\treturn logs[_id - 1]\n      SWAP2 \t\t\treturn logs[_id - 1]\n      SWAP1 \t\t\treturn logs[_id - 1]\n      PUSH 0\t\t\treturn logs[_id - 1]\n      MSTORE \t\t\treturn logs[_id - 1]\n      PUSH 20\t\t\treturn logs[_id - 1]\n      PUSH 0\t\t\treturn logs[_id - 1]\n      KECCAK256 \t\t\treturn logs[_id - 1]\n      SWAP1 \t\t\treturn logs[_id - 1]\n    tag 47\t\t\treturn logs[_id - 1]\n      JUMPDEST \t\t\treturn logs[_id - 1]\n      DUP2 \t\t\treturn logs[_id - 1]\n      SLOAD \t\t\treturn logs[_id - 1]\n      DUP2 \t\t\treturn logs[_id - 1]\n      MSTORE \t\t\treturn logs[_id - 1]\n      SWAP1 \t\t\treturn logs[_id - 1]\n      PUSH 1\t\t\treturn logs[_id - 1]\n      ADD \t\t\treturn logs[_id - 1]\n      SWAP1 \t\t\treturn logs[_id - 1]\n      PUSH 20\t\t\treturn logs[_id - 1]\n      ADD \t\t\treturn logs[_id - 1]\n      DUP1 \t\t\treturn logs[_id - 1]\n      DUP4 \t\t\treturn logs[_id - 1]\n      GT \t\t\treturn logs[_id - 1]\n      PUSH [tag] 47\t\t\treturn logs[_id - 1]\n      JUMPI \t\t\treturn logs[_id - 1]\n      DUP3 \t\t\treturn logs[_id - 1]\n      SWAP1 \t\t\treturn logs[_id - 1]\n      SUB \t\t\treturn logs[_id - 1]\n      PUSH 1F\t\t\treturn logs[_id - 1]\n      AND \t\t\treturn logs[_id - 1]\n      DUP3 \t\t\treturn logs[_id - 1]\n      ADD \t\t\treturn logs[_id - 1]\n      SWAP2 \t\t\treturn logs[_id - 1]\n    tag 45\t\t\treturn logs[_id - 1]\n      JUMPDEST \t\t\treturn logs[_id - 1]\n      POP \t\t\treturn logs[_id - 1]\n      POP \t\t\treturn logs[_id - 1]\n      POP \t\t\treturn logs[_id - 1]\n      POP \t\t\treturn logs[_id - 1]\n      POP \t\t\treturn logs[_id - 1]\n      DUP2 \t\t\treturn logs[_id - 1]\n      MSTORE \t\t\treturn logs[_id - 1]\n      PUSH 20\t\t\treturn logs[_id - 1]\n      ADD \t\t\treturn logs[_id - 1]\n      PUSH 3\t\t\treturn logs[_id - 1]\n      DUP3 \t\t\treturn logs[_id - 1]\n      ADD \t\t\treturn logs[_id - 1]\n      PUSH 0\t\t\treturn logs[_id - 1]\n      SWAP1 \t\t\treturn logs[_id - 1]\n      SLOAD \t\t\treturn logs[_id - 1]\n      SWAP1 \t\t\treturn logs[_id - 1]\n      PUSH 100\t\t\treturn logs[_id - 1]\n      EXP \t\t\treturn logs[_id - 1]\n      SWAP1 \t\t\treturn logs[_id - 1]\n      DIV \t\t\treturn logs[_id - 1]\n      PUSH FF\t\t\treturn logs[_id - 1]\n      AND \t\t\treturn logs[_id - 1]\n      ISZERO \t\t\treturn logs[_id - 1]\n      ISZERO \t\t\treturn logs[_id - 1]\n      ISZERO \t\t\treturn logs[_id - 1]\n      ISZERO \t\t\treturn logs[_id - 1]\n      DUP2 \t\t\treturn logs[_id - 1]\n      MSTORE \t\t\treturn logs[_id - 1]\n      PUSH 20\t\t\treturn logs[_id - 1]\n      ADD \t\t\treturn logs[_id - 1]\n      PUSH 4\t\t\treturn logs[_id - 1]\n      DUP3 \t\t\treturn logs[_id - 1]\n      ADD \t\t\treturn logs[_id - 1]\n      SLOAD \t\t\treturn logs[_id - 1]\n      DUP2 \t\t\treturn logs[_id - 1]\n      MSTORE \t\t\treturn logs[_id - 1]\n      POP \t\t\treturn logs[_id - 1]\n      POP \t\t\treturn logs[_id - 1]\n      SWAP1 \t\t\treturn logs[_id - 1]\n      POP \t\t\treturn logs[_id - 1]\n      SWAP2 \t\t\tfunction getMaintenanceLog(uin...\n      SWAP1 \t\t\tfunction getMaintenanceLog(uin...\n      POP \t\t\tfunction getMaintenanceLog(uin...\n      JUMP [out]\t\t\tfunction getMaintenanceLog(uin...\n    tag 20\t\t\tfunction logMaintenance(string...\n      JUMPDEST \t\t\tfunction logMaintenance(string...\n      PUSH 1\t\t\tlogCount\n      PUSH 0\t\t\tlogCount\n      DUP2 \t\t\tlogCount++\n      SLOAD \t\t\tlogCount++\n      DUP1 \t\t\tlogCount++\n      SWAP3 \t\t\tlogCount++\n      SWAP2 \t\t\tlogCount++\n      SWAP1 \t\t\tlogCount++\n      PUSH [tag] 49\t\t\tlogCount++\n      SWAP1 \t\t\tlogCount++\n      PUSH [tag] 50\t\t\tlogCount++\n      JUMP [in]\t\t\tlogCount++\n    tag 49\t\t\tlogCount++\n      JUMPDEST \t\t\tlogCount++\n      SWAP2 \t\t\tlogCount++\n      SWAP1 \t\t\tlogCount++\n      POP \t\t\tlogCount++\n      SSTORE \t\t\tlogCount++\n      POP \t\t\tlogCount++\n      PUSH 0\t\t\tlogs\n      PUSH 40\t\t\tMaintenanceLog(logCount, _ipfs...\n      MLOAD \t\t\tMaintenanceLog(logCount, _ipfs...\n      DUP1 \t\t\tMaintenanceLog(logCount, _ipfs...\n      PUSH A0\t\t\tMaintenanceLog(logCount, _ipfs...\n      ADD \t\t\tMaintenanceLog(logCount, _ipfs...\n      PUSH 40\t\t\tMaintenanceLog(logCount, _ipfs...\n      MSTORE \t\t\tMaintenanceLog(logCount, _ipfs...\n      DUP1 \t\t\tMaintenanceLog(logCount, _ipfs...\n      PUSH 1\t\t\tlogCount\n      SLOAD \t\t\tlogCount\n      DUP2 \t\t\tMaintenanceLog(logCount, _ipfs...\n      MSTORE \t\t\tMaintenanceLog(logCount, _ipfs...\n      PUSH 20\t\t\tMaintenanceLog(logCount, _ipfs...\n      ADD \t\t\tMaintenanceLog(logCount, _ipfs...\n      DUP6 \t\t\t_ipfsHash\n      DUP2 \t\t\tMaintenanceLog(logCount, _ipfs...\n      MSTORE \t\t\tMaintenanceLog(logCount, _ipfs...\n      PUSH 20\t\t\tMaintenanceLog(logCount, _ipfs...\n      ADD \t\t\tMaintenanceLog(logCount, _ipfs...\n      DUP5 \t\t\t_dataHash\n      DUP2 \t\t\tMaintenanceLog(logCount, _ipfs...\n      MSTORE \t\t\tMaintenanceLog(logCount, _ipfs...\n      PUSH 20\t\t\tMaintenanceLog(logCount, _ipfs...\n      ADD \t\t\tMaintenanceLog(logCount, _ipfs...\n      DUP4 \t\t\t_maintenanceNeeded\n      ISZERO \t\t\tMaintenanceLog(logCount, _ipfs...\n      ISZERO \t\t\tMaintenanceLog(logCount, _ipfs...\n      DUP2 \t\t\tMaintenanceLog(logCount, _ipfs...\n      MSTORE \t\t\tMaintenanceLog(logCount, _ipfs...\n      PUSH 20\t\t\tMaintenanceLog(logCount, _ipfs...\n      ADD \t\t\tMaintenanceLog(logCount, _ipfs...\n      TIMESTAMP \t\t\tblock.timestamp\n      DUP2 \t\t\tMaintenanceLog(logCount, _ipfs...\n      MSTORE \t\t\tMaintenanceLog(logCount, _ipfs...\n      POP \t\t\tMaintenanceLog(logCount, _ipfs...\n      SWAP1 \t\t\tlogs.push(MaintenanceLog(logCo...\n      DUP1 \t\t\tlogs.push(MaintenanceLog(logCo...\n      PUSH 1\t\t\tlogs.push(MaintenanceLog(logCo...\n      DUP2 \t\t\tlogs.push(MaintenanceLog(logCo...\n      SLOAD \t\t\tlogs.push(MaintenanceLog(logCo...\n      ADD \t\t\tlogs.push(MaintenanceLog(logCo...\n      DUP1 \t\t\tlogs.push(MaintenanceLog(logCo...\n      DUP3 \t\t\tlogs.push(MaintenanceLog(logCo...\n      SSTORE \t\t\tlogs.push(MaintenanceLog(logCo...\n      DUP1 \t\t\tlogs.push(MaintenanceLog(logCo...\n      SWAP2 \t\t\tlogs.push(MaintenanceLog(logCo...\n      POP \t\t\tlogs.push(MaintenanceLog(logCo...\n      POP \t\t\tlogs.push(MaintenanceLog(logCo...\n      PUSH 1\t\t\tlogs.push(MaintenanceLog(logCo...\n      SWAP1 \t\t\tlogs.push(MaintenanceLog(logCo...\n      SUB \t\t\tlogs.push(MaintenanceLog(logCo...\n      SWAP1 \t\t\tlogs.push(MaintenanceLog(logCo...\n      PUSH 0\t\t\tlogs.push(MaintenanceLog(logCo...\n      MSTORE \t\t\tlogs.push(MaintenanceLog(logCo...\n      PUSH 20\t\t\tlogs.push(MaintenanceLog(logCo...\n      PUSH 0\t\t\tlogs.push(MaintenanceLog(logCo...\n      KECCAK256 \t\t\tlogs.push(MaintenanceLog(logCo...\n      SWAP1 \t\t\tlogs.push(MaintenanceLog(logCo...\n      PUSH 5\t\t\tlogs.push(MaintenanceLog(logCo...\n      MUL \t\t\tlogs.push(MaintenanceLog(logCo...\n      ADD \t\t\tlogs.push(MaintenanceLog(logCo...\n      PUSH 0\t\t\tlogs.push(MaintenanceLog(logCo...\n      SWAP1 \t\t\tlogs.push(MaintenanceLog(logCo...\n      SWAP2 \t\t\tlogs.push(MaintenanceLog(logCo...\n      SWAP1 \t\t\tlogs.push(MaintenanceLog(logCo...\n      SWAP2 \t\t\tlogs.push(MaintenanceLog(logCo...\n      SWAP1 \t\t\tlogs.push(MaintenanceLog(logCo...\n      SWAP2 \t\t\tlogs.push(MaintenanceLog(logCo...\n      POP \t\t\tlogs.push(MaintenanceLog(logCo...\n      PUSH 0\t\t\tlogs.push(MaintenanceLog(logCo...\n      DUP3 \t\t\tlogs.push(MaintenanceLog(logCo...\n      ADD \t\t\tlogs.push(MaintenanceLog(logCo...\n      MLOAD \t\t\tlogs.push(MaintenanceLog(logCo...\n      DUP2 \t\t\tlogs.push(MaintenanceLog(logCo...\n      PUSH 0\t\t\tlogs.push(MaintenanceLog(logCo...\n      ADD \t\t\tlogs.push(MaintenanceLog(logCo...\n      SSTORE \t\t\tlogs.push(MaintenanceLog(logCo...\n      PUSH 20\t\t\tlogs.push(MaintenanceLog(logCo...\n      DUP3 \t\t\tlogs.push(MaintenanceLog(logCo...\n      ADD \t\t\tlogs.push(MaintenanceLog(logCo...\n      MLOAD \t\t\tlogs.push(MaintenanceLog(logCo...\n      DUP2 \t\t\tlogs.push(MaintenanceLog(logCo...\n      PUSH 1\t\t\tlogs.push(MaintenanceLog(logCo...\n      ADD \t\t\tlogs.push(MaintenanceLog(logCo...\n      SWAP1 \t\t\tlogs.push(MaintenanceLog(logCo...\n      DUP1 \t\t\tlogs.push(MaintenanceLog(logCo...\n      MLOAD \t\t\tlogs.push(MaintenanceLog(logCo...\n      SWAP1 \t\t\tlogs.push(MaintenanceLog(logCo...\n      PUSH 20\t\t\tlogs.push(MaintenanceLog(logCo...\n      ADD \t\t\tlogs.push(MaintenanceLog(logCo...\n      SWAP1 \t\t\tlogs.push(MaintenanceLog(logCo...\n      PUSH [tag] 52\t\t\tlogs.push(MaintenanceLog(logCo...\n      SWAP3 \t\t\tlogs.push(MaintenanceLog(logCo...\n      SWAP2 \t\t\tlogs.push(MaintenanceLog(logCo...\n      SWAP1 \t\t\tlogs.push(MaintenanceLog(logCo...\n      PUSH [tag] 53\t\t\tlogs.push(MaintenanceLog(logCo...\n      JUMP [in]\t\t\tlogs.push(MaintenanceLog(logCo...\n    tag 52\t\t\tlogs.push(MaintenanceLog(logCo...\n      JUMPDEST \t\t\tlogs.push(MaintenanceLog(logCo...\n      POP \t\t\tlogs.push(MaintenanceLog(logCo...\n      PUSH 40\t\t\tlogs.push(MaintenanceLog(logCo...\n      DUP3 \t\t\tlogs.push(MaintenanceLog(logCo...\n      ADD \t\t\tlogs.push(MaintenanceLog(logCo...\n      MLOAD \t\t\tlogs.push(MaintenanceLog(logCo...\n      DUP2 \t\t\tlogs.push(MaintenanceLog(logCo...\n      PUSH 2\t\t\tlogs.push(MaintenanceLog(logCo...\n      ADD \t\t\tlogs.push(MaintenanceLog(logCo...\n      SWAP1 \t\t\tlogs.push(MaintenanceLog(logCo...\n      DUP1 \t\t\tlogs.push(MaintenanceLog(logCo...\n      MLOAD \t\t\tlogs.push(MaintenanceLog(logCo...\n      SWAP1 \t\t\tlogs.push(MaintenanceLog(logCo...\n      PUSH 20\t\t\tlogs.push(MaintenanceLog(logCo...\n      ADD \t\t\tlogs.push(MaintenanceLog(logCo...\n      SWAP1 \t\t\tlogs.push(MaintenanceLog(logCo...\n      PUSH [tag] 54\t\t\tlogs.push(MaintenanceLog(logCo...\n      SWAP3 \t\t\tlogs.push(MaintenanceLog(logCo...\n      SWAP2 \t\t\tlogs.push(MaintenanceLog(logCo...\n      SWAP1 \t\t\tlogs.push(MaintenanceLog(logCo...\n      PUSH [tag] 53\t\t\tlogs.push(MaintenanceLog(logCo...\n      JUMP [in]\t\t\tlogs.push(MaintenanceLog(logCo...\n    tag 54\t\t\tlogs.push(MaintenanceLog(logCo...\n      JUMPDEST \t\t\tlogs.push(MaintenanceLog(logCo...\n      POP \t\t\tlogs.push(MaintenanceLog(logCo...\n      PUSH 60\t\t\tlogs.push(MaintenanceLog(logCo...\n      DUP3 \t\t\tlogs.push(MaintenanceLog(logCo...\n      ADD \t\t\tlogs.push(MaintenanceLog(logCo...\n      MLOAD \t\t\tlogs.push(MaintenanceLog(logCo...\n      DUP2 \t\t\tlogs.push(MaintenanceLog(logCo...\n      PUSH 3\t\t\tlogs.push(MaintenanceLog(logCo...\n      ADD \t\t\tlogs.push(MaintenanceLog(logCo...\n      PUSH 0\t\t\tlogs.push(MaintenanceLog(logCo...\n      PUSH 100\t\t\tlogs.push(MaintenanceLog(logCo...\n      EXP \t\t\tlogs.push(MaintenanceLog(logCo...\n      DUP2 \t\t\tlogs.push(MaintenanceLog(logCo...\n      SLOAD \t\t\tlogs.push(MaintenanceLog(logCo...\n      DUP2 \t\t\tlogs.push(MaintenanceLog(logCo...\n      PUSH FF\t\t\tlogs.push(MaintenanceLog(logCo...\n      MUL \t\t\tlogs.push(MaintenanceLog(logCo...\n      NOT \t\t\tlogs.push(MaintenanceLog(logCo...\n      AND \t\t\tlogs.push(MaintenanceLog(logCo...\n      SWAP1 \t\t\tlogs.push(MaintenanceLog(logCo...\n      DUP4 \t\t\tlogs.push(MaintenanceLog(logCo...\n      ISZERO \t\t\tlogs.push(MaintenanceLog(logCo...\n      ISZERO \t\t\tlogs.push(MaintenanceLog(logCo...\n      MUL \t\t\tlogs.push(MaintenanceLog(logCo...\n      OR \t\t\tlogs.push(MaintenanceLog(logCo...\n      SWAP1 \t\t\tlogs.push(MaintenanceLog(logCo...\n      SSTORE \t\t\tlogs.push(MaintenanceLog(logCo...\n      POP \t\t\tlogs.push(MaintenanceLog(logCo...\n      PUSH 80\t\t\tlogs.push(MaintenanceLog(logCo...\n      DUP3 \t\t\tlogs.push(MaintenanceLog(logCo...\n      ADD \t\t\tlogs.push(MaintenanceLog(logCo...\n      MLOAD \t\t\tlogs.push(MaintenanceLog(logCo...\n      DUP2 \t\t\tlogs.push(MaintenanceLog(logCo...\n      PUSH 4\t\t\tlogs.push(MaintenanceLog(logCo...\n      ADD \t\t\tlogs.push(MaintenanceLog(logCo...\n      SSTORE \t\t\tlogs.push(MaintenanceLog(logCo...\n      POP \t\t\tlogs.push(MaintenanceLog(logCo...\n      POP \t\t\tlogs.push(MaintenanceLog(logCo...\n      PUSH 327E4EC254C296AEFBE2B3D08C11FBD7CEC20859BAF4291DBC4DCF979A77CD28\t\t\tMaintenanceLogged(logCount, _i...\n      PUSH 1\t\t\tlogCount\n      SLOAD \t\t\tlogCount\n      DUP5 \t\t\t_ipfsHash\n      DUP5 \t\t\t_dataHash\n      DUP5 \t\t\t_maintenanceNeeded\n      TIMESTAMP \t\t\tblock.timestamp\n      PUSH 40\t\t\tMaintenanceLogged(logCount, _i...\n      MLOAD \t\t\tMaintenanceLogged(logCount, _i...\n      PUSH [tag] 55\t\t\tMaintenanceLogged(logCount, _i...\n      SWAP6 \t\t\tMaintenanceLogged(logCount, _i...\n      SWAP5 \t\t\tMaintenanceLogged(logCount, _i...\n      SWAP4 \t\t\tMaintenanceLogged(logCount, _i...\n      SWAP3 \t\t\tMaintenanceLogged(logCount, _i...\n      SWAP2 \t\t\tMaintenanceLogged(logCount, _i...\n      SWAP1 \t\t\tMaintenanceLogged(logCount, _i...\n      PUSH [tag] 25\t\t\tMaintenanceLogged(logCount, _i...\n      JUMP [in]\t\t\tMaintenanceLogged(logCount, _i...\n    tag 55\t\t\tMaintenanceLogged(logCount, _i...\n      JUMPDEST \t\t\tMaintenanceLogged(logCount, _i...\n      PUSH 40\t\t\tMaintenanceLogged(logCount, _i...\n      MLOAD \t\t\tMaintenanceLogged(logCount, _i...\n      DUP1 \t\t\tMaintenanceLogged(logCount, _i...\n      SWAP2 \t\t\tMaintenanceLogged(logCount, _i...\n      SUB \t\t\tMaintenanceLogged(logCount, _i...\n      SWAP1 \t\t\tMaintenanceLogged(logCount, _i...\n      LOG1 \t\t\tMaintenanceLogged(logCount, _i...\n      POP \t\t\tfunction logMaintenance(string...\n      POP \t\t\tfunction logMaintenance(string...\n      POP \t\t\tfunction logMaintenance(string...\n      JUMP [out]\t\t\tfunction logMaintenance(string...\n    tag 23\t\t\tMaintenanceLog[] public logs\n      JUMPDEST \t\t\tMaintenanceLog[] public logs\n      PUSH 0\t\t\tMaintenanceLog[] public logs\n      DUP2 \t\t\tMaintenanceLog[] public logs\n      DUP2 \t\t\tMaintenanceLog[] public logs\n      SLOAD \t\t\tMaintenanceLog[] public logs\n      DUP2 \t\t\tMaintenanceLog[] public logs\n      LT \t\t\tMaintenanceLog[] public logs\n      PUSH [tag] 56\t\t\tMaintenanceLog[] public logs\n      JUMPI \t\t\tMaintenanceLog[] public logs\n      PUSH 0\t\t\tMaintenanceLog[] public logs\n      DUP1 \t\t\tMaintenanceLog[] public logs\n      REVERT \t\t\tMaintenanceLog[] public logs\n    tag 56\t\t\tMaintenanceLog[] public logs\n      JUMPDEST \t\t\tMaintenanceLog[] public logs\n      SWAP1 \t\t\tMaintenanceLog[] public logs\n      PUSH 0\t\t\tMaintenanceLog[] public logs\n      MSTORE \t\t\tMaintenanceLog[] public logs\n      PUSH 20\t\t\tMaintenanceLog[] public logs\n      PUSH 0\t\t\tMaintenanceLog[] public logs\n      KECCAK256 \t\t\tMaintenanceLog[] public logs\n      SWAP1 \t\t\tMaintenanceLog[] public logs\n      PUSH 5\t\t\tMaintenanceLog[] public logs\n      MUL \t\t\tMaintenanceLog[] public logs\n      ADD \t\t\tMaintenanceLog[] public logs\n      PUSH 0\t\t\tMaintenanceLog[] public logs\n      SWAP2 \t\t\tMaintenanceLog[] public logs\n      POP \t\t\tMaintenanceLog[] public logs\n      SWAP1 \t\t\tMaintenanceLog[] public logs\n      POP \t\t\tMaintenanceLog[] public logs\n      DUP1 \t\t\tMaintenanceLog[] public logs\n      PUSH 0\t\t\tMaintenanceLog[] public logs\n      ADD \t\t\tMaintenanceLog[] public logs\n      SLOAD \t\t\tMaintenanceLog[] public logs\n      SWAP1 \t\t\tMaintenanceLog[] public logs\n      DUP1 \t\t\tMaintenanceLog[] public logs\n      PUSH 1\t\t\tMaintenanceLog[] public logs\n      ADD \t\t\tMaintenanceLog[] public logs\n      DUP1 \t\t\tMaintenanceLog[] public logs\n      SLOAD \t\t\tMaintenanceLog[] public logs\n      PUSH [tag] 58\t\t\tMaintenanceLog[] public logs\n      SWAP1 \t\t\tMaintenanceLog[] public logs\n      PUSH [tag] 38\t\t\tMaintenanceLog[] public logs\n      JUMP [in]\t\t\tMaintenanceLog[] public logs\n    tag 58\t\t\tMaintenanceLog[] public logs\n      JUMPDEST \t\t\tMaintenanceLog[] public logs\n      DUP1 \t\t\tMaintenanceLog[] public logs\n      PUSH 1F\t\t\tMaintenanceLog[] public logs\n      ADD \t\t\tMaintenanceLog[] public logs\n      PUSH 20\t\t\tMaintenanceLog[] public logs\n      DUP1 \t\t\tMaintenanceLog[] public logs\n      SWAP2 \t\t\tMaintenanceLog[] public logs\n      DIV \t\t\tMaintenanceLog[] public logs\n      MUL \t\t\tMaintenanceLog[] public logs\n      PUSH 20\t\t\tMaintenanceLog[] public logs\n      ADD \t\t\tMaintenanceLog[] public logs\n      PUSH 40\t\t\tMaintenanceLog[] public logs\n      MLOAD \t\t\tMaintenanceLog[] public logs\n      SWAP1 \t\t\tMaintenanceLog[] public logs\n      DUP2 \t\t\tMaintenanceLog[] public logs\n      ADD \t\t\tMaintenanceLog[] public logs\n      PUSH 40\t\t\tMaintenanceLog[] public logs\n      MSTORE \t\t\tMaintenanceLog[] public logs\n      DUP1 \t\t\tMaintenanceLog[] public logs\n      SWAP3 \t\t\tMaintenanceLog[] public logs\n      SWAP2 \t\t\tMaintenanceLog[] public logs\n      SWAP1 \t\t\tMaintenanceLog[] public logs\n      DUP2 \t\t\tMaintenanceLog[] public logs\n      DUP2 \t\t\tMaintenanceLog[] public logs\n      MSTORE \t\t\tMaintenanceLog[] public logs\n      PUSH 20\t\t\tMaintenanceLog[] public logs\n      ADD \t\t\tMaintenanceLog[] public logs\n      DUP3 \t\t\tMaintenanceLog[] public logs\n      DUP1 \t\t\tMaintenanceLog[] public logs\n      SLOAD \t\t\tMaintenanceLog[] public logs\n      PUSH [tag] 59\t\t\tMaintenanceLog[] public logs\n      SWAP1 \t\t\tMaintenanceLog[] public logs\n      PUSH [tag] 38\t\t\tMaintenanceLog[] public logs\n      JUMP [in]\t\t\tMaintenanceLog[] public logs\n    tag 59\t\t\tMaintenanceLog[] public logs\n      JUMPDEST \t\t\tMaintenanceLog[] public logs\n      DUP1 \t\t\tMaintenanceLog[] public logs\n      ISZERO \t\t\tMaintenanceLog[] public logs\n      PUSH [tag] 60\t\t\tMaintenanceLog[] public logs\n      JUMPI \t\t\tMaintenanceLog[] public logs\n      DUP1 \t\t\tMaintenanceLog[] public logs\n      PUSH 1F\t\t\tMaintenanceLog[] public logs\n      LT \t\t\tMaintenanceLog[] public logs\n      PUSH [tag] 61\t\t\tMaintenanceLog[] public logs\n      JUMPI \t\t\tMaintenanceLog[] public logs\n      PUSH 100\t\t\tMaintenanceLog[] public logs\n      DUP1 \t\t\tMaintenanceLog[] public logs\n      DUP4 \t\t\tMaintenanceLog[] public logs\n      SLOAD \t\t\tMaintenanceLog[] public logs\n      DIV \t\t\tMaintenanceLog[] public logs\n      MUL \t\t\tMaintenanceLog[] public logs\n      DUP4 \t\t\tMaintenanceLog[] public logs\n      MSTORE \t\t\tMaintenanceLog[] public logs\n      SWAP2 \t\t\tMaintenanceLog[] public logs\n      PUSH 20\t\t\tMaintenanceLog[] public logs\n      ADD \t\t\tMaintenanceLog[] public logs\n      SWAP2 \t\t\tMaintenanceLog[] public logs\n      PUSH [tag] 60\t\t\tMaintenanceLog[] public logs\n      JUMP \t\t\tMaintenanceLog[] public logs\n    tag 61\t\t\tMaintenanceLog[] public logs\n      JUMPDEST \t\t\tMaintenanceLog[] public logs\n      DUP3 \t\t\tMaintenanceLog[] public logs\n      ADD \t\t\tMaintenanceLog[] public logs\n      SWAP2 \t\t\tMaintenanceLog[] public logs\n      SWAP1 \t\t\tMaintenanceLog[] public logs\n      PUSH 0\t\t\tMaintenanceLog[] public logs\n      MSTORE \t\t\tMaintenanceLog[] public logs\n      PUSH 20\t\t\tMaintenanceLog[] public logs\n      PUSH 0\t\t\tMaintenanceLog[] public logs\n      KECCAK256 \t\t\tMaintenanceLog[] public logs\n      SWAP1 \t\t\tMaintenanceLog[] public logs\n    tag 62\t\t\tMaintenanceLog[] public logs\n      JUMPDEST \t\t\tMaintenanceLog[] public logs\n      DUP2 \t\t\tMaintenanceLog[] public logs\n      SLOAD \t\t\tMaintenanceLog[] public logs\n      DUP2 \t\t\tMaintenanceLog[] public logs\n      MSTORE \t\t\tMaintenanceLog[] public logs\n      SWAP1 \t\t\tMaintenanceLog[] public logs\n      PUSH 1\t\t\tMaintenanceLog[] public logs\n      ADD \t\t\tMaintenanceLog[] public logs\n      SWAP1 \t\t\tMaintenanceLog[] public logs\n      PUSH 20\t\t\tMaintenanceLog[] public logs\n      ADD \t\t\tMaintenanceLog[] public logs\n      DUP1 \t\t\tMaintenanceLog[] public logs\n      DUP4 \t\t\tMaintenanceLog[] public logs\n      GT \t\t\tMaintenanceLog[] public logs\n      PUSH [tag] 62\t\t\tMaintenanceLog[] public logs\n      JUMPI \t\t\tMaintenanceLog[] public logs\n      DUP3 \t\t\tMaintenanceLog[] public logs\n      SWAP1 \t\t\tMaintenanceLog[] public logs\n      SUB \t\t\tMaintenanceLog[] public logs\n      PUSH 1F\t\t\tMaintenanceLog[] public logs\n      AND \t\t\tMaintenanceLog[] public logs\n      DUP3 \t\t\tMaintenanceLog[] public logs\n      ADD \t\t\tMaintenanceLog[] public logs\n      SWAP2 \t\t\tMaintenanceLog[] public logs\n    tag 60\t\t\tMaintenanceLog[] public logs\n      JUMPDEST \t\t\tMaintenanceLog[] public logs\n      POP \t\t\tMaintenanceLog[] public logs\n      POP \t\t\tMaintenanceLog[] public logs\n      POP \t\t\tMaintenanceLog[] public logs\n      POP \t\t\tMaintenanceLog[] public logs\n      POP \t\t\tMaintenanceLog[] public logs\n      SWAP1 \t\t\tMaintenanceLog[] public logs\n      DUP1 \t\t\tMaintenanceLog[] public logs\n      PUSH 2\t\t\tMaintenanceLog[] public logs\n      ADD \t\t\tMaintenanceLog[] public logs\n      DUP1 \t\t\tMaintenanceLog[] public logs\n      SLOAD \t\t\tMaintenanceLog[] public logs\n      PUSH [tag] 63\t\t\tMaintenanceLog[] public logs\n      SWAP1 \t\t\tMaintenanceLog[] public logs\n      PUSH [tag] 38\t\t\tMaintenanceLog[] public logs\n      JUMP [in]\t\t\tMaintenanceLog[] public logs\n    tag 63\t\t\tMaintenanceLog[] public logs\n      JUMPDEST \t\t\tMaintenanceLog[] public logs\n      DUP1 \t\t\tMaintenanceLog[] public logs\n      PUSH 1F\t\t\tMaintenanceLog[] public logs\n      ADD \t\t\tMaintenanceLog[] public logs\n      PUSH 20\t\t\tMaintenanceLog[] public logs\n      DUP1 \t\t\tMaintenanceLog[] public logs\n      SWAP2 \t\t\tMaintenanceLog[] public logs\n      DIV \t\t\tMaintenanceLog[] public logs\n      MUL \t\t\tMaintenanceLog[] public logs\n      PUSH 20\t\t\tMaintenanceLog[] public logs\n      ADD \t\t\tMaintenanceLog[] public logs\n      PUSH 40\t\t\tMaintenanceLog[] public logs\n      MLOAD \t\t\tMaintenanceLog[] public logs\n      SWAP1 \t\t\tMaintenanceLog[] public logs\n      DUP2 \t\t\tMaintenanceLog[] public logs\n      ADD \t\t\tMaintenanceLog[] public logs\n      PUSH 40\t\t\tMaintenanceLog[] public logs\n      MSTORE \t\t\tMaintenanceLog[] public logs\n      DUP1 \t\t\tMaintenanceLog[] public logs\n      SWAP3 \t\t\tMaintenanceLog[] public logs\n      SWAP2 \t\t\tMaintenanceLog[] public logs\n      SWAP1 \t\t\tMaintenanceLog[] public logs\n      DUP2 \t\t\tMaintenanceLog[] public logs\n      DUP2 \t\t\tMaintenanceLog[] public logs\n      MSTORE \t\t\tMaintenanceLog[] public logs\n      PUSH 20\t\t\tMaintenanceLog[] public logs\n      ADD \t\t\tMaintenanceLog[] public logs\n      DUP3 \t\t\tMaintenanceLog[] public logs\n      DUP1 \t\t\tMaintenanceLog[] public logs\n      SLOAD \t\t\tMaintenanceLog[] public logs\n      PUSH [tag] 64\t\t\tMaintenanceLog[] public logs\n      SWAP1 \t\t\tMaintenanceLog[] public logs\n      PUSH [tag] 38\t\t\tMaintenanceLog[] public logs\n      JUMP [in]\t\t\tMaintenanceLog[] public logs\n    tag 64\t\t\tMaintenanceLog[] public logs\n      JUMPDEST \t\t\tMaintenanceLog[] public logs\n      DUP1 \t\t\tMaintenanceLog[] public logs\n      ISZERO \t\t\tMaintenanceLog[] public logs\n      PUSH [tag] 65\t\t\tMaintenanceLog[] public logs\n      JUMPI \t\t\tMaintenanceLog[] public logs\n      DUP1 \t\t\tMaintenanceLog[] public logs\n      PUSH 1F\t\t\tMaintenanceLog[] public logs\n      LT \t\t\tMaintenanceLog[] public logs\n      PUSH [tag] 66\t\t\tMaintenanceLog[] public logs\n      JUMPI \t\t\tMaintenanceLog[] public logs\n      PUSH 100\t\t\tMaintenanceLog[] public logs\n      DUP1 \t\t\tMaintenanceLog[] public logs\n      DUP4 \t\t\tMaintenanceLog[] public logs\n      SLOAD \t\t\tMaintenanceLog[] public logs\n      DIV \t\t\tMaintenanceLog[] public logs\n      MUL \t\t\tMaintenanceLog[] public logs\n      DUP4 \t\t\tMaintenanceLog[] public logs\n      MSTORE \t\t\tMaintenanceLog[] public logs\n      SWAP2 \t\t\tMaintenanceLog[] public logs\n      PUSH 20\t\t\tMaintenanceLog[] public logs\n      ADD \t\t\tMaintenanceLog[] public logs\n      SWAP2 \t\t\tMaintenanceLog[] public logs\n      PUSH [tag] 65\t\t\tMaintenanceLog[] public logs\n      JUMP \t\t\tMaintenanceLog[] public logs\n    tag 66\t\t\tMaintenanceLog[] public logs\n      JUMPDEST \t\t\tMaintenanceLog[] public logs\n      DUP3 \t\t\tMaintenanceLog[] public logs\n      ADD \t\t\tMaintenanceLog[] public logs\n      SWAP2 \t\t\tMaintenanceLog[] public logs\n      SWAP1 \t\t\tMaintenanceLog[] public logs\n      PUSH 0\t\t\tMaintenanceLog[] public logs\n      MSTORE \t\t\tMaintenanceLog[] public logs\n      PUSH 20\t\t\tMaintenanceLog[] public logs\n      PUSH 0\t\t\tMaintenanceLog[] public logs\n      KECCAK256 \t\t\tMaintenanceLog[] public logs\n      SWAP1 \t\t\tMaintenanceLog[] public logs\n    tag 67\t\t\tMaintenanceLog[] public logs\n      JUMPDEST \t\t\tMaintenanceLog[] public logs\n      DUP2 \t\t\tMaintenanceLog[] public logs\n      SLOAD \t\t\tMaintenanceLog[] public logs\n      DUP2 \t\t\tMaintenanceLog[] public logs\n      MSTORE \t\t\tMaintenanceLog[] public logs\n      SWAP1 \t\t\tMaintenanceLog[] public logs\n      PUSH 1\t\t\tMaintenanceLog[] public logs\n      ADD \t\t\tMaintenanceLog[] public logs\n      SWAP1 \t\t\tMaintenanceLog[] public logs\n      PUSH 20\t\t\tMaintenanceLog[] public logs\n      ADD \t\t\tMaintenanceLog[] public logs\n      DUP1 \t\t\tMaintenanceLog[] public logs\n      DUP4 \t\t\tMaintenanceLog[] public logs\n      GT \t\t\tMaintenanceLog[] public logs\n      PUSH [tag] 67\t\t\tMaintenanceLog[] public logs\n      JUMPI \t\t\tMaintenanceLog[] public logs\n      DUP3 \t\t\tMaintenanceLog[] public logs\n      SWAP1 \t\t\tMaintenanceLog[] public logs\n      SUB \t\t\tMaintenanceLog[] public logs\n      PUSH 1F\t\t\tMaintenanceLog[] public logs\n      AND \t\t\tMaintenanceLog[] public logs\n      DUP3 \t\t\tMaintenanceLog[] public logs\n      ADD \t\t\tMaintenanceLog[] public logs\n      SWAP2 \t\t\tMaintenanceLog[] public logs\n    tag 65\t\t\tMaintenanceLog[] public logs\n      JUMPDEST \t\t\tMaintenanceLog[] public logs\n      POP \t\t\tMaintenanceLog[] public logs\n      POP \t\t\tMaintenanceLog[] public logs\n      POP \t\t\tMaintenanceLog[] public logs\n      POP \t\t\tMaintenanceLog[] public logs\n      POP \t\t\tMaintenanceLog[] public logs\n      SWAP1 \t\t\tMaintenanceLog[] public logs\n      DUP1 \t\t\tMaintenanceLog[] public logs\n      PUSH 3\t\t\tMaintenanceLog[] public logs\n      ADD \t\t\tMaintenanceLog[] public logs\n      PUSH 0\t\t\tMaintenanceLog[] public logs\n      SWAP1 \t\t\tMaintenanceLog[] public logs\n      SLOAD \t\t\tMaintenanceLog[] public logs\n      SWAP1 \t\t\tMaintenanceLog[] public logs\n      PUSH 100\t\t\tMaintenanceLog[] public logs\n      EXP \t\t\tMaintenanceLog[] public logs\n      SWAP1 \t\t\tMaintenanceLog[] public logs\n      DIV \t\t\tMaintenanceLog[] public logs\n      PUSH FF\t\t\tMaintenanceLog[] public logs\n      AND \t\t\tMaintenanceLog[] public logs\n      SWAP1 \t\t\tMaintenanceLog[] public logs\n      DUP1 \t\t\tMaintenanceLog[] public logs\n      PUSH 4\t\t\tMaintenanceLog[] public logs\n      ADD \t\t\tMaintenanceLog[] public logs\n      SLOAD \t\t\tMaintenanceLog[] public logs\n      SWAP1 \t\t\tMaintenanceLog[] public logs\n      POP \t\t\tMaintenanceLog[] public logs\n      DUP6 \t\t\tMaintenanceLog[] public logs\n      JUMP [out]\t\t\tMaintenanceLog[] public logs\n    tag 27\t\t\t\n      JUMPDEST \t\t\t\n      PUSH 40\t\t\t\n      MLOAD \t\t\t\n      DUP1 \t\t\t\n      PUSH A0\t\t\t\n      ADD \t\t\t\n      PUSH 40\t\t\t\n      MSTORE \t\t\t\n      DUP1 \t\t\t\n      PUSH 0\t\t\t\n      DUP2 \t\t\t\n      MSTORE \t\t\t\n      PUSH 20\t\t\t\n      ADD \t\t\t\n      PUSH 60\t\t\t\n      DUP2 \t\t\t\n      MSTORE \t\t\t\n      PUSH 20\t\t\t\n      ADD \t\t\t\n      PUSH 60\t\t\t\n      DUP2 \t\t\t\n      MSTORE \t\t\t\n      PUSH 20\t\t\t\n      ADD \t\t\t\n      PUSH 0\t\t\t\n      ISZERO \t\t\t\n      ISZERO \t\t\t\n      DUP2 \t\t\t\n      MSTORE \t\t\t\n      PUSH 20\t\t\t\n      ADD \t\t\t\n      PUSH 0\t\t\t\n      DUP2 \t\t\t\n      MSTORE \t\t\t\n      POP \t\t\t\n      SWAP1 \t\t\t\n      JUMP [out]\t\t\t\n    tag 53\t\t\t\n      JUMPDEST \t\t\t\n      DUP3 \t\t\t\n      DUP1 \t\t\t\n      SLOAD \t\t\t\n      PUSH [tag] 68\t\t\t\n      SWAP1 \t\t\t\n      PUSH [tag] 38\t\t\t\n      JUMP [in]\t\t\t\n    tag 68\t\t\t\n      JUMPDEST \t\t\t\n      SWAP1 \t\t\t\n      PUSH 0\t\t\t\n      MSTORE \t\t\t\n      PUSH 20\t\t\t\n      PUSH 0\t\t\t\n      KECCAK256 \t\t\t\n      SWAP1 \t\t\t\n      PUSH 1F\t\t\t\n      ADD \t\t\t\n      PUSH 20\t\t\t\n      SWAP1 \t\t\t\n      DIV \t\t\t\n      DUP2 \t\t\t\n      ADD \t\t\t\n      SWAP3 \t\t\t\n      DUP3 \t\t\t\n      PUSH [tag] 70\t\t\t\n      JUMPI \t\t\t\n      PUSH 0\t\t\t\n      DUP6 \t\t\t\n      SSTORE \t\t\t\n      PUSH [tag] 69\t\t\t\n      JUMP \t\t\t\n    tag 70\t\t\t\n      JUMPDEST \t\t\t\n      DUP3 \t\t\t\n      PUSH 1F\t\t\t\n      LT \t\t\t\n      PUSH [tag] 71\t\t\t\n      JUMPI \t\t\t\n      DUP1 \t\t\t\n      MLOAD \t\t\t\n      PUSH FF\t\t\t\n      NOT \t\t\t\n      AND \t\t\t\n      DUP4 \t\t\t\n      DUP1 \t\t\t\n      ADD \t\t\t\n      OR \t\t\t\n      DUP6 \t\t\t\n      SSTORE \t\t\t\n      PUSH [tag] 69\t\t\t\n      JUMP \t\t\t\n    tag 71\t\t\t\n      JUMPDEST \t\t\t\n      DUP3 \t\t\t\n      DUP1 \t\t\t\n      ADD \t\t\t\n      PUSH 1\t\t\t\n      ADD \t\t\t\n      DUP6 \t\t\t\n      SSTORE \t\t\t\n      DUP3 \t\t\t\n      ISZERO \t\t\t\n      PUSH [tag] 69\t\t\t\n      JUMPI \t\t\t\n      SWAP2 \t\t\t\n      DUP3 \t\t\t\n      ADD \t\t\t\n    tag 72\t\t\t\n      JUMPDEST \t\t\t\n      DUP3 \t\t\t\n      DUP2 \t\t\t\n      GT \t\t\t\n      ISZERO \t\t\t\n      PUSH [tag] 73\t\t\t\n      JUMPI \t\t\t\n      DUP3 \t\t\t\n      MLOAD \t\t\t\n      DUP3 \t\t\t\n      SSTORE \t\t\t\n      SWAP2 \t\t\t\n      PUSH 20\t\t\t\n      ADD \t\t\t\n      SWAP2 \t\t\t\n      SWAP1 \t\t\t\n      PUSH 1\t\t\t\n      ADD \t\t\t\n      SWAP1 \t\t\t\n      PUSH [tag] 72\t\t\t\n      JUMP \t\t\t\n    tag 73\t\t\t\n      JUMPDEST \t\t\t\n    tag 69\t\t\t\n      JUMPDEST \t\t\t\n      POP \t\t\t\n      SWAP1 \t\t\t\n      POP \t\t\t\n      PUSH [tag] 74\t\t\t\n      SWAP2 \t\t\t\n      SWAP1 \t\t\t\n      PUSH [tag] 75\t\t\t\n      JUMP [in]\t\t\t\n    tag 74\t\t\t\n      JUMPDEST \t\t\t\n      POP \t\t\t\n      SWAP1 \t\t\t\n      JUMP [out]\t\t\t\n    tag 75\t\t\t\n      JUMPDEST \t\t\t\n    tag 76\t\t\t\n      JUMPDEST \t\t\t\n      DUP1 \t\t\t\n      DUP3 \t\t\t\n      GT \t\t\t\n      ISZERO \t\t\t\n      PUSH [tag] 77\t\t\t\n      JUMPI \t\t\t\n      PUSH 0\t\t\t\n      DUP2 \t\t\t\n      PUSH 0\t\t\t\n      SWAP1 \t\t\t\n      SSTORE \t\t\t\n      POP \t\t\t\n      PUSH 1\t\t\t\n      ADD \t\t\t\n      PUSH [tag] 76\t\t\t\n      JUMP \t\t\t\n    tag 77\t\t\t\n      JUMPDEST \t\t\t\n      POP \t\t\t\n      SWAP1 \t\t\t\n      JUMP [out]\t\t\t\n    tag 79\t\t\t-License-Identifier: MIT\\r\\npr...\n      JUMPDEST \t\t\t-License-Identifier: MIT\\r\\npr...\n      PUSH 0\t\t\t-License-Identifier: MIT\\r\\npr...\n      PUSH [tag] 81\t\t\tenanceLog {\\r\\n        uint id...\n      PUSH [tag] 82\t\t\t      uint id;\\r\\n        stri...\n      DUP5 \t\t\t      \n      PUSH [tag] 83\t\t\t      uint id;\\r\\n        stri...\n      JUMP [in]\t\t\t      uint id;\\r\\n        stri...\n    tag 82\t\t\t      uint id;\\r\\n        stri...\n      JUMPDEST \t\t\t      uint id;\\r\\n        stri...\n      PUSH [tag] 84\t\t\tenanceLog {\\r\\n        uint id...\n      JUMP [in]\t\t\tenanceLog {\\r\\n        uint id...\n    tag 81\t\t\tenanceLog {\\r\\n        uint id...\n      JUMPDEST \t\t\tenanceLog {\\r\\n        uint id...\n      SWAP1 \t\t\tuct MaintenanceLog {\\r\\n      ...\n      POP \t\t\tuct MaintenanceLog {\\r\\n      ...\n      DUP3 \t\t\t   boo\n      DUP2 \t\t\t\\r\\n   \n      MSTORE \t\t\ttaHash;\\r\\n        bool\n      PUSH 20\t\t\tnt t\n      DUP2 \t\t\t     \n      ADD \t\t\t\\n        uint ti\n      DUP5 \t\t\teLo\n      DUP5 \t\t\tainten\n      DUP5 \t\t\t   \n      ADD \t\t\t\\r\\n\\r\\n    Maintena\n      GT \t\t\t  }\\r\\n\\r\\n    MaintenanceLog\n      ISZERO \t\t\t\\n \n      PUSH [tag] 85\t\t\t\\n \n      JUMPI \t\t\t\\n \n      PUSH 0\t\t\ts\n      DUP1 \t\t\tl\n      REVERT \t\t\tpublic logs;\n    tag 85\t\t\t\\n \n      JUMPDEST \t\t\t\\n \n      PUSH [tag] 86\t\t\tpublic logCount;\\r\\n\\r\\n    ev...\n      DUP5 \t\t\ttenanc\n      DUP3 \t\t\t Ma\n      DUP6 \t\t\teve\n      PUSH [tag] 87\t\t\tpublic logCount;\\r\\n\\r\\n    ev...\n      JUMP [in]\t\t\tpublic logCount;\\r\\n\\r\\n    ev...\n    tag 86\t\t\tpublic logCount;\\r\\n\\r\\n    ev...\n      JUMPDEST \t\t\tpublic logCount;\\r\\n\\r\\n    ev...\n      POP \t\t\t{\\r\\n    struct MaintenanceLog...\n      SWAP4 \t\t\t{\\r\\n    struct MaintenanceLog...\n      SWAP3 \t\t\t{\\r\\n    struct MaintenanceLog...\n      POP \t\t\t{\\r\\n    struct MaintenanceLog...\n      POP \t\t\t{\\r\\n    struct MaintenanceLog...\n      POP \t\t\t{\\r\\n    struct MaintenanceLog...\n      JUMP [out]\t\t\t{\\r\\n    struct MaintenanceLog...\n    tag 88\t\t\tid, string ipfsHash, string da...\n      JUMPDEST \t\t\tid, string ipfsHash, string da...\n      PUSH 0\t\t\tid, string ipfsHash, string da...\n      DUP2 \t\t\t\\n    f\n      CALLDATALOAD \t\t\timestamp);\\r\\n\\r\\n    fu\n      SWAP1 \t\t\td, uint timestamp);\\r\\n\\r\\n   ...\n      POP \t\t\td, uint timestamp);\\r\\n\\r\\n   ...\n      PUSH [tag] 90\t\t\tgMaintenance(string memory _ip\n      DUP2 \t\t\try _i\n      PUSH [tag] 91\t\t\tgMaintenance(string memory _ip\n      JUMP [in]\t\t\tgMaintenance(string memory _ip\n    tag 90\t\t\tgMaintenance(string memory _ip\n      JUMPDEST \t\t\tgMaintenance(string memory _ip\n      SWAP3 \t\t\tnanceNeeded, uint timestamp);\\...\n      SWAP2 \t\t\tnanceNeeded, uint timestamp);\\...\n      POP \t\t\tnanceNeeded, uint timestamp);\\...\n      POP \t\t\tnanceNeeded, uint timestamp);\\...\n      JUMP [out]\t\t\tnanceNeeded, uint timestamp);\\...\n    tag 92\t\t\taHash, bool _maintenanceNeeded...\n      JUMPDEST \t\t\taHash, bool _maintenanceNeeded...\n      PUSH 0\t\t\taHash, bool _maintenanceNeeded...\n      DUP3 \t\t\t _i\n      PUSH 1F\t\t\tgCou\n      DUP4 \t\t\tceLog(\n      ADD \t\t\tenanceLog(logCoun\n      SLT \t\t\taintenanceLog(logCount, _ip\n      PUSH [tag] 94\t\t\tog\n      JUMPI \t\t\tog\n      PUSH 0\t\t\ta\n      DUP1 \t\t\tt\n      REVERT \t\t\tsh, _dataHas\n    tag 94\t\t\tog\n      JUMPDEST \t\t\tog\n      DUP2 \t\t\t));\\r\\n \n      CALLDATALOAD \t\t\tock.timestamp));\\r\\n  \n      PUSH [tag] 95\t\t\tanceLogged(logCount, _ipfsHash...\n      DUP5 \t\t\tamp\n      DUP3 \t\t\tk.time\n      PUSH 20\t\t\td, b\n      DUP7 \t\t\tnceNee\n      ADD \t\t\ttenanceNeeded, bl\n      PUSH [tag] 79\t\t\tanceLogged(logCount, _ipfsHash...\n      JUMP [in]\t\t\tanceLogged(logCount, _ipfsHash...\n    tag 95\t\t\tanceLogged(logCount, _ipfsHash...\n      JUMPDEST \t\t\tanceLogged(logCount, _ipfsHash...\n      SWAP2 \t\t\tt MaintenanceLogged(logCount, ...\n      POP \t\t\tt MaintenanceLogged(logCount, ...\n      POP \t\t\t\\n        logs.push(Maintenanc...\n      SWAP3 \t\t\t\\n        logs.push(Maintenanc...\n      SWAP2 \t\t\t\\n        logs.push(Maintenanc...\n      POP \t\t\t\\n        logs.push(Maintenanc...\n      POP \t\t\t\\n        logs.push(Maintenanc...\n      JUMP [out]\t\t\t\\n        logs.push(Maintenanc...\n    tag 96\t\t\t    function getMaintenanceLog...\n      JUMPDEST \t\t\t    function getMaintenanceLog...\n      PUSH 0\t\t\t    function getMaintenanceLog...\n      DUP2 \t\t\t {\\r\\n  \n      CALLDATALOAD \t\t\tceLog memory) {\\r\\n   \n      SWAP1 \t\t\tMaintenanceLog memory) {\\r\\n  ...\n      POP \t\t\tMaintenanceLog memory) {\\r\\n  ...\n      PUSH [tag] 98\t\t\tire(_id > 0 && _id <= logCount...\n      DUP2 \t\t\tunt, \n      PUSH [tag] 99\t\t\tire(_id > 0 && _id <= logCount...\n      JUMP [in]\t\t\tire(_id > 0 && _id <= logCount...\n    tag 98\t\t\tire(_id > 0 && _id <= logCount...\n      JUMPDEST \t\t\tire(_id > 0 && _id <= logCount...\n      SWAP3 \t\t\t returns (MaintenanceLog memor...\n      SWAP2 \t\t\t returns (MaintenanceLog memor...\n      POP \t\t\t returns (MaintenanceLog memor...\n      POP \t\t\t returns (MaintenanceLog memor...\n      JUMP [out]\t\t\t returns (MaintenanceLog memor...\n    tag 19\t\t\t exist\");\\r\\n        return lo...\n      JUMPDEST \t\t\t exist\");\\r\\n        return lo...\n      PUSH 0\t\t\t exist\");\\r\\n        return lo...\n      DUP1 \t\t\t exist\");\\r\\n        return lo...\n      PUSH 0\t\t\t exist\");\\r\\n        return lo...\n      PUSH 60\t\t\t\n      DUP5 \t\t\t\n      DUP7 \t\t\t\n      SUB \t\t\t\n      SLT \t\t\t\n      ISZERO \t\t\t\n      PUSH [tag] 101\t\t\t\n      JUMPI \t\t\t\n      PUSH 0\t\t\t\n      DUP1 \t\t\t\n      REVERT \t\t\t\n    tag 101\t\t\t\n      JUMPDEST \t\t\t\n      PUSH 0\t\t\t\n      DUP5 \t\t\t\n      ADD \t\t\t\n      CALLDATALOAD \t\t\t\n      PUSH FFFFFFFFFFFFFFFF\t\t\t\n      DUP2 \t\t\t\n      GT \t\t\t\n      ISZERO \t\t\t\n      PUSH [tag] 102\t\t\t\n      JUMPI \t\t\t\n      PUSH 0\t\t\t\n      DUP1 \t\t\t\n      REVERT \t\t\t\n    tag 102\t\t\t\n      JUMPDEST \t\t\t\n      PUSH [tag] 103\t\t\t\n      DUP7 \t\t\t\n      DUP3 \t\t\t\n      DUP8 \t\t\t\n      ADD \t\t\t\n      PUSH [tag] 92\t\t\t\n      JUMP [in]\t\t\t\n    tag 103\t\t\t\n      JUMPDEST \t\t\t\n      SWAP4 \t\t\t\n      POP \t\t\t\n      POP \t\t\t\n      PUSH 20\t\t\t\n      DUP5 \t\t\t\n      ADD \t\t\t\n      CALLDATALOAD \t\t\t\n      PUSH FFFFFFFFFFFFFFFF\t\t\t\n      DUP2 \t\t\t\n      GT \t\t\t\n      ISZERO \t\t\t\n      PUSH [tag] 104\t\t\t\n      JUMPI \t\t\t\n      PUSH 0\t\t\t\n      DUP1 \t\t\t\n      REVERT \t\t\t\n    tag 104\t\t\t\n      JUMPDEST \t\t\t\n      PUSH [tag] 105\t\t\t\n      DUP7 \t\t\t\n      DUP3 \t\t\t\n      DUP8 \t\t\t\n      ADD \t\t\t\n      PUSH [tag] 92\t\t\t\n      JUMP [in]\t\t\t\n    tag 105\t\t\t\n      JUMPDEST \t\t\t\n      SWAP3 \t\t\t\n      POP \t\t\t\n      POP \t\t\t\n      PUSH 40\t\t\t\n      PUSH [tag] 106\t\t\t\n      DUP7 \t\t\t\n      DUP3 \t\t\t\n      DUP8 \t\t\t\n      ADD \t\t\t\n      PUSH [tag] 88\t\t\t\n      JUMP [in]\t\t\t\n    tag 106\t\t\t\n      JUMPDEST \t\t\t\n      SWAP2 \t\t\t\n      POP \t\t\t\n      POP \t\t\t\n      SWAP3 \t\t\t\n      POP \t\t\t\n      SWAP3 \t\t\t\n      POP \t\t\t\n      SWAP3 \t\t\t\n      JUMP [out]\t\t\t\n    tag 13\t\t\t\n      JUMPDEST \t\t\t\n      PUSH 0\t\t\t\n      PUSH 20\t\t\t\n      DUP3 \t\t\t\n      DUP5 \t\t\t\n      SUB \t\t\t\n      SLT \t\t\t\n      ISZERO \t\t\t\n      PUSH [tag] 108\t\t\t\n      JUMPI \t\t\t\n      PUSH 0\t\t\t\n      DUP1 \t\t\t\n      REVERT \t\t\t\n    tag 108\t\t\t\n      JUMPDEST \t\t\t\n      PUSH 0\t\t\t\n      PUSH [tag] 109\t\t\t\n      DUP5 \t\t\t\n      DUP3 \t\t\t\n      DUP6 \t\t\t\n      ADD \t\t\t\n      PUSH [tag] 96\t\t\t\n      JUMP [in]\t\t\t\n    tag 109\t\t\t\n      JUMPDEST \t\t\t\n      SWAP2 \t\t\t\n      POP \t\t\t\n      POP \t\t\t\n      SWAP3 \t\t\t\n      SWAP2 \t\t\t\n      POP \t\t\t\n      POP \t\t\t\n      JUMP [out]\t\t\t\n    tag 110\t\t\t\n      JUMPDEST \t\t\t\n      PUSH [tag] 112\t\t\t\n      DUP2 \t\t\t\n      PUSH [tag] 113\t\t\t\n      JUMP [in]\t\t\t\n    tag 112\t\t\t\n      JUMPDEST \t\t\t\n      DUP3 \t\t\t\n      MSTORE \t\t\t\n      POP \t\t\t\n      POP \t\t\t\n      JUMP [out]\t\t\t\n    tag 114\t\t\t\n      JUMPDEST \t\t\t\n      PUSH [tag] 116\t\t\t\n      DUP2 \t\t\t\n      PUSH [tag] 113\t\t\t\n      JUMP [in]\t\t\t\n    tag 116\t\t\t\n      JUMPDEST \t\t\t\n      DUP3 \t\t\t\n      MSTORE \t\t\t\n      POP \t\t\t\n      POP \t\t\t\n      JUMP [out]\t\t\t\n    tag 117\t\t\t\n      JUMPDEST \t\t\t\n      PUSH 0\t\t\t\n      PUSH [tag] 119\t\t\t\n      DUP3 \t\t\t\n      PUSH [tag] 120\t\t\t\n      JUMP [in]\t\t\t\n    tag 119\t\t\t\n      JUMPDEST \t\t\t\n      PUSH [tag] 121\t\t\t\n      DUP2 \t\t\t\n      DUP6 \t\t\t\n      PUSH [tag] 122\t\t\t\n      JUMP [in]\t\t\t\n    tag 121\t\t\t\n      JUMPDEST \t\t\t\n      SWAP4 \t\t\t\n      POP \t\t\t\n      PUSH [tag] 123\t\t\t\n      DUP2 \t\t\t\n      DUP6 \t\t\t\n      PUSH 20\t\t\t\n      DUP7 \t\t\t\n      ADD \t\t\t\n      PUSH [tag] 124\t\t\t\n      JUMP [in]\t\t\t\n    tag 123\t\t\t\n      JUMPDEST \t\t\t\n      PUSH [tag] 125\t\t\t\n      DUP2 \t\t\t\n      PUSH [tag] 126\t\t\t\n      JUMP [in]\t\t\t\n    tag 125\t\t\t\n      JUMPDEST \t\t\t\n      DUP5 \t\t\t\n      ADD \t\t\t\n      SWAP2 \t\t\t\n      POP \t\t\t\n      POP \t\t\t\n      SWAP3 \t\t\t\n      SWAP2 \t\t\t\n      POP \t\t\t\n      POP \t\t\t\n      JUMP [out]\t\t\t\n    tag 127\t\t\t\n      JUMPDEST \t\t\t\n      PUSH 0\t\t\t\n      PUSH [tag] 129\t\t\t\n      DUP3 \t\t\t\n      PUSH [tag] 120\t\t\t\n      JUMP [in]\t\t\t\n    tag 129\t\t\t\n      JUMPDEST \t\t\t\n      PUSH [tag] 130\t\t\t\n      DUP2 \t\t\t\n      DUP6 \t\t\t\n      PUSH [tag] 131\t\t\t\n      JUMP [in]\t\t\t\n    tag 130\t\t\t\n      JUMPDEST \t\t\t\n      SWAP4 \t\t\t\n      POP \t\t\t\n      PUSH [tag] 132\t\t\t\n      DUP2 \t\t\t\n      DUP6 \t\t\t\n      PUSH 20\t\t\t\n      DUP7 \t\t\t\n      ADD \t\t\t\n      PUSH [tag] 124\t\t\t\n      JUMP [in]\t\t\t\n    tag 132\t\t\t\n      JUMPDEST \t\t\t\n      PUSH [tag] 133\t\t\t\n      DUP2 \t\t\t\n      PUSH [tag] 126\t\t\t\n      JUMP [in]\t\t\t\n    tag 133\t\t\t\n      JUMPDEST \t\t\t\n      DUP5 \t\t\t\n      ADD \t\t\t\n      SWAP2 \t\t\t\n      POP \t\t\t\n      POP \t\t\t\n      SWAP3 \t\t\t\n      SWAP2 \t\t\t\n      POP \t\t\t\n      POP \t\t\t\n      JUMP [out]\t\t\t\n    tag 134\t\t\t\n      JUMPDEST \t\t\t\n      PUSH 0\t\t\t\n      PUSH [tag] 136\t\t\t\n      PUSH 12\t\t\t\n      DUP4 \t\t\t\n      PUSH [tag] 131\t\t\t\n      JUMP [in]\t\t\t\n    tag 136\t\t\t\n      JUMPDEST \t\t\t\n      SWAP2 \t\t\t\n      POP \t\t\t\n      PUSH 4C6F6720646F6573206E6F742065786973740000000000000000000000000000\t\t\t\n      PUSH 0\t\t\t\n      DUP4 \t\t\t\n      ADD \t\t\t\n      MSTORE \t\t\t\n      PUSH 20\t\t\t\n      DUP3 \t\t\t\n      ADD \t\t\t\n      SWAP1 \t\t\t\n      POP \t\t\t\n      SWAP2 \t\t\t\n      SWAP1 \t\t\t\n      POP \t\t\t\n      JUMP [out]\t\t\t\n    tag 137\t\t\t\n      JUMPDEST \t\t\t\n      PUSH 0\t\t\t\n      PUSH A0\t\t\t\n      DUP4 \t\t\t\n      ADD \t\t\t\n      PUSH 0\t\t\t\n      DUP4 \t\t\t\n      ADD \t\t\t\n      MLOAD \t\t\t\n      PUSH [tag] 139\t\t\t\n      PUSH 0\t\t\t\n      DUP7 \t\t\t\n      ADD \t\t\t\n      DUP3 \t\t\t\n      PUSH [tag] 140\t\t\t\n      JUMP [in]\t\t\t\n    tag 139\t\t\t\n      JUMPDEST \t\t\t\n      POP \t\t\t\n      PUSH 20\t\t\t\n      DUP4 \t\t\t\n      ADD \t\t\t\n      MLOAD \t\t\t\n      DUP5 \t\t\t\n      DUP3 \t\t\t\n      SUB \t\t\t\n      PUSH 20\t\t\t\n      DUP7 \t\t\t\n      ADD \t\t\t\n      MSTORE \t\t\t\n      PUSH [tag] 141\t\t\t\n      DUP3 \t\t\t\n      DUP3 \t\t\t\n      PUSH [tag] 117\t\t\t\n      JUMP [in]\t\t\t\n    tag 141\t\t\t\n      JUMPDEST \t\t\t\n      SWAP2 \t\t\t\n      POP \t\t\t\n      POP \t\t\t\n      PUSH 40\t\t\t\n      DUP4 \t\t\t\n      ADD \t\t\t\n      MLOAD \t\t\t\n      DUP5 \t\t\t\n      DUP3 \t\t\t\n      SUB \t\t\t\n      PUSH 40\t\t\t\n      DUP7 \t\t\t\n      ADD \t\t\t\n      MSTORE \t\t\t\n      PUSH [tag] 142\t\t\t\n      DUP3 \t\t\t\n      DUP3 \t\t\t\n      PUSH [tag] 117\t\t\t\n      JUMP [in]\t\t\t\n    tag 142\t\t\t\n      JUMPDEST \t\t\t\n      SWAP2 \t\t\t\n      POP \t\t\t\n      POP \t\t\t\n      PUSH 60\t\t\t\n      DUP4 \t\t\t\n      ADD \t\t\t\n      MLOAD \t\t\t\n      PUSH [tag] 143\t\t\t\n      PUSH 60\t\t\t\n      DUP7 \t\t\t\n      ADD \t\t\t\n      DUP3 \t\t\t\n      PUSH [tag] 110\t\t\t\n      JUMP [in]\t\t\t\n    tag 143\t\t\t\n      JUMPDEST \t\t\t\n      POP \t\t\t\n      PUSH 80\t\t\t\n      DUP4 \t\t\t\n      ADD \t\t\t\n      MLOAD \t\t\t\n      PUSH [tag] 144\t\t\t\n      PUSH 80\t\t\t\n      DUP7 \t\t\t\n      ADD \t\t\t\n      DUP3 \t\t\t\n      PUSH [tag] 140\t\t\t\n      JUMP [in]\t\t\t\n    tag 144\t\t\t\n      JUMPDEST \t\t\t\n      POP \t\t\t\n      DUP1 \t\t\t\n      SWAP2 \t\t\t\n      POP \t\t\t\n      POP \t\t\t\n      SWAP3 \t\t\t\n      SWAP2 \t\t\t\n      POP \t\t\t\n      POP \t\t\t\n      JUMP [out]\t\t\t\n    tag 140\t\t\t\n      JUMPDEST \t\t\t\n      PUSH [tag] 146\t\t\t\n      DUP2 \t\t\t\n      PUSH [tag] 147\t\t\t\n      JUMP [in]\t\t\t\n    tag 146\t\t\t\n      JUMPDEST \t\t\t\n      DUP3 \t\t\t\n      MSTORE \t\t\t\n      POP \t\t\t\n      POP \t\t\t\n      JUMP [out]\t\t\t\n    tag 148\t\t\t\n      JUMPDEST \t\t\t\n      PUSH [tag] 150\t\t\t\n      DUP2 \t\t\t\n      PUSH [tag] 147\t\t\t\n      JUMP [in]\t\t\t\n    tag 150\t\t\t\n      JUMPDEST \t\t\t\n      DUP3 \t\t\t\n      MSTORE \t\t\t\n      POP \t\t\t\n      POP \t\t\t\n      JUMP [out]\t\t\t\n    tag 32\t\t\t\n      JUMPDEST \t\t\t\n      PUSH 0\t\t\t\n      PUSH 20\t\t\t\n      DUP3 \t\t\t\n      ADD \t\t\t\n      SWAP1 \t\t\t\n      POP \t\t\t\n      DUP2 \t\t\t\n      DUP2 \t\t\t\n      SUB \t\t\t\n      PUSH 0\t\t\t\n      DUP4 \t\t\t\n      ADD \t\t\t\n      MSTORE \t\t\t\n      PUSH [tag] 152\t\t\t\n      DUP2 \t\t\t\n      PUSH [tag] 134\t\t\t\n      JUMP [in]\t\t\t\n    tag 152\t\t\t\n      JUMPDEST \t\t\t\n      SWAP1 \t\t\t\n      POP \t\t\t\n      SWAP2 \t\t\t\n      SWAP1 \t\t\t\n      POP \t\t\t\n      JUMP [out]\t\t\t\n    tag 16\t\t\t\n      JUMPDEST \t\t\t\n      PUSH 0\t\t\t\n      PUSH 20\t\t\t\n      DUP3 \t\t\t\n      ADD \t\t\t\n      SWAP1 \t\t\t\n      POP \t\t\t\n      DUP2 \t\t\t\n      DUP2 \t\t\t\n      SUB \t\t\t\n      PUSH 0\t\t\t\n      DUP4 \t\t\t\n      ADD \t\t\t\n      MSTORE \t\t\t\n      PUSH [tag] 154\t\t\t\n      DUP2 \t\t\t\n      DUP5 \t\t\t\n      PUSH [tag] 137\t\t\t\n      JUMP [in]\t\t\t\n    tag 154\t\t\t\n      JUMPDEST \t\t\t\n      SWAP1 \t\t\t\n      POP \t\t\t\n      SWAP3 \t\t\t\n      SWAP2 \t\t\t\n      POP \t\t\t\n      POP \t\t\t\n      JUMP [out]\t\t\t\n    tag 10\t\t\t\n      JUMPDEST \t\t\t\n      PUSH 0\t\t\t\n      PUSH 20\t\t\t\n      DUP3 \t\t\t\n      ADD \t\t\t\n      SWAP1 \t\t\t\n      POP \t\t\t\n      PUSH [tag] 156\t\t\t\n      PUSH 0\t\t\t\n      DUP4 \t\t\t\n      ADD \t\t\t\n      DUP5 \t\t\t\n      PUSH [tag] 148\t\t\t\n      JUMP [in]\t\t\t\n    tag 156\t\t\t\n      JUMPDEST \t\t\t\n      SWAP3 \t\t\t\n      SWAP2 \t\t\t\n      POP \t\t\t\n      POP \t\t\t\n      JUMP [out]\t\t\t\n    tag 25\t\t\t\n      JUMPDEST \t\t\t\n      PUSH 0\t\t\t\n      PUSH A0\t\t\t\n      DUP3 \t\t\t\n      ADD \t\t\t\n      SWAP1 \t\t\t\n      POP \t\t\t\n      PUSH [tag] 158\t\t\t\n      PUSH 0\t\t\t\n      DUP4 \t\t\t\n      ADD \t\t\t\n      DUP9 \t\t\t\n      PUSH [tag] 148\t\t\t\n      JUMP [in]\t\t\t\n    tag 158\t\t\t\n      JUMPDEST \t\t\t\n      DUP2 \t\t\t\n      DUP2 \t\t\t\n      SUB \t\t\t\n      PUSH 20\t\t\t\n      DUP4 \t\t\t\n      ADD \t\t\t\n      MSTORE \t\t\t\n      PUSH [tag] 159\t\t\t\n      DUP2 \t\t\t\n      DUP8 \t\t\t\n      PUSH [tag] 127\t\t\t\n      JUMP [in]\t\t\t\n    tag 159\t\t\t\n      JUMPDEST \t\t\t\n      SWAP1 \t\t\t\n      POP \t\t\t\n      DUP2 \t\t\t\n      DUP2 \t\t\t\n      SUB \t\t\t\n      PUSH 40\t\t\t\n      DUP4 \t\t\t\n      ADD \t\t\t\n      MSTORE \t\t\t\n      PUSH [tag] 160\t\t\t\n      DUP2 \t\t\t\n      DUP7 \t\t\t\n      PUSH [tag] 127\t\t\t\n      JUMP [in]\t\t\t\n    tag 160\t\t\t\n      JUMPDEST \t\t\t\n      SWAP1 \t\t\t\n      POP \t\t\t\n      PUSH [tag] 161\t\t\t\n      PUSH 60\t\t\t\n      DUP4 \t\t\t\n      ADD \t\t\t\n      DUP6 \t\t\t\n      PUSH [tag] 114\t\t\t\n      JUMP [in]\t\t\t\n    tag 161\t\t\t\n      JUMPDEST \t\t\t\n      PUSH [tag] 162\t\t\t\n      PUSH 80\t\t\t\n      DUP4 \t\t\t\n      ADD \t\t\t\n      DUP5 \t\t\t\n      PUSH [tag] 148\t\t\t\n      JUMP [in]\t\t\t\n    tag 162\t\t\t\n      JUMPDEST \t\t\t\n      SWAP7 \t\t\t\n      SWAP6 \t\t\t\n      POP \t\t\t\n      POP \t\t\t\n      POP \t\t\t\n      POP \t\t\t\n      POP \t\t\t\n      POP \t\t\t\n      JUMP [out]\t\t\t\n    tag 84\t\t\t\n      JUMPDEST \t\t\t\n      PUSH 0\t\t\t\n      PUSH 40\t\t\t\n      MLOAD \t\t\t\n      SWAP1 \t\t\t\n      POP \t\t\t\n      DUP2 \t\t\t\n      DUP2 \t\t\t\n      ADD \t\t\t\n      DUP2 \t\t\t\n      DUP2 \t\t\t\n      LT \t\t\t\n      PUSH FFFFFFFFFFFFFFFF\t\t\t\n      DUP3 \t\t\t\n      GT \t\t\t\n      OR \t\t\t\n      ISZERO \t\t\t\n      PUSH [tag] 164\t\t\t\n      JUMPI \t\t\t\n      PUSH [tag] 165\t\t\t\n      PUSH [tag] 166\t\t\t\n      JUMP [in]\t\t\t\n    tag 165\t\t\t\n      JUMPDEST \t\t\t\n    tag 164\t\t\t\n      JUMPDEST \t\t\t\n      DUP1 \t\t\t\n      PUSH 40\t\t\t\n      MSTORE \t\t\t\n      POP \t\t\t\n      SWAP2 \t\t\t\n      SWAP1 \t\t\t\n      POP \t\t\t\n      JUMP [out]\t\t\t\n    tag 83\t\t\t\n      JUMPDEST \t\t\t\n      PUSH 0\t\t\t\n      PUSH FFFFFFFFFFFFFFFF\t\t\t\n      DUP3 \t\t\t\n      GT \t\t\t\n      ISZERO \t\t\t\n      PUSH [tag] 168\t\t\t\n      JUMPI \t\t\t\n      PUSH [tag] 169\t\t\t\n      PUSH [tag] 166\t\t\t\n      JUMP [in]\t\t\t\n    tag 169\t\t\t\n      JUMPDEST \t\t\t\n    tag 168\t\t\t\n      JUMPDEST \t\t\t\n      PUSH 1F\t\t\t\n      NOT \t\t\t\n      PUSH 1F\t\t\t\n      DUP4 \t\t\t\n      ADD \t\t\t\n      AND \t\t\t\n      SWAP1 \t\t\t\n      POP \t\t\t\n      PUSH 20\t\t\t\n      DUP2 \t\t\t\n      ADD \t\t\t\n      SWAP1 \t\t\t\n      POP \t\t\t\n      SWAP2 \t\t\t\n      SWAP1 \t\t\t\n      POP \t\t\t\n      JUMP [out]\t\t\t\n    tag 120\t\t\t\n      JUMPDEST \t\t\t\n      PUSH 0\t\t\t\n      DUP2 \t\t\t\n      MLOAD \t\t\t\n      SWAP1 \t\t\t\n      POP \t\t\t\n      SWAP2 \t\t\t\n      SWAP1 \t\t\t\n      POP \t\t\t\n      JUMP [out]\t\t\t\n    tag 122\t\t\t\n      JUMPDEST \t\t\t\n      PUSH 0\t\t\t\n      DUP3 \t\t\t\n      DUP3 \t\t\t\n      MSTORE \t\t\t\n      PUSH 20\t\t\t\n      DUP3 \t\t\t\n      ADD \t\t\t\n      SWAP1 \t\t\t\n      POP \t\t\t\n      SWAP3 \t\t\t\n      SWAP2 \t\t\t\n      POP \t\t\t\n      POP \t\t\t\n      JUMP [out]\t\t\t\n    tag 131\t\t\t\n      JUMPDEST \t\t\t\n      PUSH 0\t\t\t\n      DUP3 \t\t\t\n      DUP3 \t\t\t\n      MSTORE \t\t\t\n      PUSH 20\t\t\t\n      DUP3 \t\t\t\n      ADD \t\t\t\n      SWAP1 \t\t\t\n      POP \t\t\t\n      SWAP3 \t\t\t\n      SWAP2 \t\t\t\n      POP \t\t\t\n      POP \t\t\t\n      JUMP [out]\t\t\t\n    tag 34\t\t\t\n      JUMPDEST \t\t\t\n      PUSH 0\t\t\t\n      PUSH [tag] 174\t\t\t\n      DUP3 \t\t\t\n      PUSH [tag] 147\t\t\t\n      JUMP [in]\t\t\t\n    tag 174\t\t\t\n      JUMPDEST \t\t\t\n      SWAP2 \t\t\t\n      POP \t\t\t\n      PUSH [tag] 175\t\t\t\n      DUP4 \t\t\t\n      PUSH [tag] 147\t\t\t\n      JUMP [in]\t\t\t\n    tag 175\t\t\t\n      JUMPDEST \t\t\t\n      SWAP3 \t\t\t\n      POP \t\t\t\n      DUP3 \t\t\t\n      DUP3 \t\t\t\n      LT \t\t\t\n      ISZERO \t\t\t\n      PUSH [tag] 176\t\t\t\n      JUMPI \t\t\t\n      PUSH [tag] 177\t\t\t\n      PUSH [tag] 178\t\t\t\n      JUMP [in]\t\t\t\n    tag 177\t\t\t\n      JUMPDEST \t\t\t\n    tag 176\t\t\t\n      JUMPDEST \t\t\t\n      DUP3 \t\t\t\n      DUP3 \t\t\t\n      SUB \t\t\t\n      SWAP1 \t\t\t\n      POP \t\t\t\n      SWAP3 \t\t\t\n      SWAP2 \t\t\t\n      POP \t\t\t\n      POP \t\t\t\n      JUMP [out]\t\t\t\n    tag 113\t\t\t\n      JUMPDEST \t\t\t\n      PUSH 0\t\t\t\n      DUP2 \t\t\t\n      ISZERO \t\t\t\n      ISZERO \t\t\t\n      SWAP1 \t\t\t\n      POP \t\t\t\n      SWAP2 \t\t\t\n      SWAP1 \t\t\t\n      POP \t\t\t\n      JUMP [out]\t\t\t\n    tag 147\t\t\t\n      JUMPDEST \t\t\t\n      PUSH 0\t\t\t\n      DUP2 \t\t\t\n      SWAP1 \t\t\t\n      POP \t\t\t\n      SWAP2 \t\t\t\n      SWAP1 \t\t\t\n      POP \t\t\t\n      JUMP [out]\t\t\t\n    tag 87\t\t\t\n      JUMPDEST \t\t\t\n      DUP3 \t\t\t\n      DUP2 \t\t\t\n      DUP4 \t\t\t\n      CALLDATACOPY \t\t\t\n      PUSH 0\t\t\t\n      DUP4 \t\t\t\n      DUP4 \t\t\t\n      ADD \t\t\t\n      MSTORE \t\t\t\n      POP \t\t\t\n      POP \t\t\t\n      POP \t\t\t\n      JUMP [out]\t\t\t\n    tag 124\t\t\t\n      JUMPDEST \t\t\t\n      PUSH 0\t\t\t\n    tag 183\t\t\t\n      JUMPDEST \t\t\t\n      DUP4 \t\t\t\n      DUP2 \t\t\t\n      LT \t\t\t\n      ISZERO \t\t\t\n      PUSH [tag] 185\t\t\t\n      JUMPI \t\t\t\n      DUP1 \t\t\t\n      DUP3 \t\t\t\n      ADD \t\t\t\n      MLOAD \t\t\t\n      DUP2 \t\t\t\n      DUP5 \t\t\t\n      ADD \t\t\t\n      MSTORE \t\t\t\n      PUSH 20\t\t\t\n      DUP2 \t\t\t\n      ADD \t\t\t\n      SWAP1 \t\t\t\n      POP \t\t\t\n      PUSH [tag] 183\t\t\t\n      JUMP \t\t\t\n    tag 185\t\t\t\n      JUMPDEST \t\t\t\n      DUP4 \t\t\t\n      DUP2 \t\t\t\n      GT \t\t\t\n      ISZERO \t\t\t\n      PUSH [tag] 186\t\t\t\n      JUMPI \t\t\t\n      PUSH 0\t\t\t\n      DUP5 \t\t\t\n      DUP5 \t\t\t\n      ADD \t\t\t\n      MSTORE \t\t\t\n    tag 186\t\t\t\n      JUMPDEST \t\t\t\n      POP \t\t\t\n      POP \t\t\t\n      POP \t\t\t\n      POP \t\t\t\n      JUMP [out]\t\t\t\n    tag 38\t\t\t\n      JUMPDEST \t\t\t\n      PUSH 0\t\t\t\n      PUSH 2\t\t\t\n      DUP3 \t\t\t\n      DIV \t\t\t\n      SWAP1 \t\t\t\n      POP \t\t\t\n      PUSH 1\t\t\t\n      DUP3 \t\t\t\n      AND \t\t\t\n      DUP1 \t\t\t\n      PUSH [tag] 188\t\t\t\n      JUMPI \t\t\t\n      PUSH 7F\t\t\t\n      DUP3 \t\t\t\n      AND \t\t\t\n      SWAP2 \t\t\t\n      POP \t\t\t\n    tag 188\t\t\t\n      JUMPDEST \t\t\t\n      PUSH 20\t\t\t\n      DUP3 \t\t\t\n      LT \t\t\t\n      DUP2 \t\t\t\n      EQ \t\t\t\n      ISZERO \t\t\t\n      PUSH [tag] 189\t\t\t\n      JUMPI \t\t\t\n      PUSH [tag] 190\t\t\t\n      PUSH [tag] 191\t\t\t\n      JUMP [in]\t\t\t\n    tag 190\t\t\t\n      JUMPDEST \t\t\t\n    tag 189\t\t\t\n      JUMPDEST \t\t\t\n      POP \t\t\t\n      SWAP2 \t\t\t\n      SWAP1 \t\t\t\n      POP \t\t\t\n      JUMP [out]\t\t\t\n    tag 50\t\t\t\n      JUMPDEST \t\t\t\n      PUSH 0\t\t\t\n      PUSH [tag] 193\t\t\t\n      DUP3 \t\t\t\n      PUSH [tag] 147\t\t\t\n      JUMP [in]\t\t\t\n    tag 193\t\t\t\n      JUMPDEST \t\t\t\n      SWAP2 \t\t\t\n      POP \t\t\t\n      PUSH FFFFFFFFFFFFFFFFFFFFFFFFFFFFFFFFFFFFFFFFFFFFFFFFFFFFFFFFFFFFFFFF\t\t\t\n      DUP3 \t\t\t\n      EQ \t\t\t\n      ISZERO \t\t\t\n      PUSH [tag] 194\t\t\t\n      JUMPI \t\t\t\n      PUSH [tag] 195\t\t\t\n      PUSH [tag] 178\t\t\t\n      JUMP [in]\t\t\t\n    tag 195\t\t\t\n      JUMPDEST \t\t\t\n    tag 194\t\t\t\n      JUMPDEST \t\t\t\n      PUSH 1\t\t\t\n      DUP3 \t\t\t\n      ADD \t\t\t\n      SWAP1 \t\t\t\n      POP \t\t\t\n      SWAP2 \t\t\t\n      SWAP1 \t\t\t\n      POP \t\t\t\n      JUMP [out]\t\t\t\n    tag 178\t\t\t\n      JUMPDEST \t\t\t\n      PUSH 4E487B7100000000000000000000000000000000000000000000000000000000\t\t\t\n      PUSH 0\t\t\t\n      MSTORE \t\t\t\n      PUSH 11\t\t\t\n      PUSH 4\t\t\t\n      MSTORE \t\t\t\n      PUSH 24\t\t\t\n      PUSH 0\t\t\t\n      REVERT \t\t\t\n    tag 191\t\t\t\n      JUMPDEST \t\t\t\n      PUSH 4E487B7100000000000000000000000000000000000000000000000000000000\t\t\t\n      PUSH 0\t\t\t\n      MSTORE \t\t\t\n      PUSH 22\t\t\t\n      PUSH 4\t\t\t\n      MSTORE \t\t\t\n      PUSH 24\t\t\t\n      PUSH 0\t\t\t\n      REVERT \t\t\t\n    tag 166\t\t\t\n      JUMPDEST \t\t\t\n      PUSH 4E487B7100000000000000000000000000000000000000000000000000000000\t\t\t\n      PUSH 0\t\t\t\n      MSTORE \t\t\t\n      PUSH 41\t\t\t\n      PUSH 4\t\t\t\n      MSTORE \t\t\t\n      PUSH 24\t\t\t\n      PUSH 0\t\t\t\n      REVERT \t\t\t\n    tag 126\t\t\t\n      JUMPDEST \t\t\t\n      PUSH 0\t\t\t\n      PUSH 1F\t\t\t\n      NOT \t\t\t\n      PUSH 1F\t\t\t\n      DUP4 \t\t\t\n      ADD \t\t\t\n      AND \t\t\t\n      SWAP1 \t\t\t\n      POP \t\t\t\n      SWAP2 \t\t\t\n      SWAP1 \t\t\t\n      POP \t\t\t\n      JUMP [out]\t\t\t\n    tag 91\t\t\t\n      JUMPDEST \t\t\t\n      PUSH [tag] 201\t\t\t\n      DUP2 \t\t\t\n      PUSH [tag] 113\t\t\t\n      JUMP [in]\t\t\t\n    tag 201\t\t\t\n      JUMPDEST \t\t\t\n      DUP2 \t\t\t\n      EQ \t\t\t\n      PUSH [tag] 202\t\t\t\n      JUMPI \t\t\t\n      PUSH 0\t\t\t\n      DUP1 \t\t\t\n      REVERT \t\t\t\n    tag 202\t\t\t\n      JUMPDEST \t\t\t\n      POP \t\t\t\n      JUMP [out]\t\t\t\n    tag 99\t\t\t\n      JUMPDEST \t\t\t\n      PUSH [tag] 204\t\t\t\n      DUP2 \t\t\t\n      PUSH [tag] 147\t\t\t\n      JUMP [in]\t\t\t\n    tag 204\t\t\t\n      JUMPDEST \t\t\t\n      DUP2 \t\t\t\n      EQ \t\t\t\n      PUSH [tag] 205\t\t\t\n      JUMPI \t\t\t\n      PUSH 0\t\t\t\n      DUP1 \t\t\t\n      REVERT \t\t\t\n    tag 205\t\t\t\n      JUMPDEST \t\t\t\n      POP \t\t\t\n      JUMP [out]\t\t\t\n    .data\n"
}